{
  "address": "0x68B1D87F95878fE05B998F19b66F4baba5De1aed",
  "abi": [
    {
      "inputs": [
        {
          "internalType": "address",
          "name": "_Bash",
          "type": "address"
        }
      ],
      "stateMutability": "nonpayable",
      "type": "constructor"
    },
    {
      "inputs": [],
      "name": "Bash",
      "outputs": [
        {
          "internalType": "address",
          "name": "",
          "type": "address"
        }
      ],
      "stateMutability": "view",
      "type": "function"
    },
    {
      "inputs": [
        {
          "internalType": "address",
          "name": "_pair",
          "type": "address"
        }
      ],
      "name": "getKValue",
      "outputs": [
        {
          "internalType": "uint256",
          "name": "k_",
          "type": "uint256"
        }
      ],
      "stateMutability": "view",
      "type": "function"
    },
    {
      "inputs": [
        {
          "internalType": "address",
          "name": "_pair",
          "type": "address"
        }
      ],
      "name": "getTotalValue",
      "outputs": [
        {
          "internalType": "uint256",
          "name": "_value",
          "type": "uint256"
        }
      ],
      "stateMutability": "view",
      "type": "function"
    },
    {
      "inputs": [
        {
          "internalType": "address",
          "name": "_pair",
          "type": "address"
        }
      ],
      "name": "markdown",
      "outputs": [
        {
          "internalType": "uint256",
          "name": "",
          "type": "uint256"
        }
      ],
      "stateMutability": "view",
      "type": "function"
    },
    {
      "inputs": [
        {
          "internalType": "address",
          "name": "_pair",
          "type": "address"
        },
        {
          "internalType": "uint256",
          "name": "amount_",
          "type": "uint256"
        }
      ],
      "name": "valuation",
      "outputs": [
        {
          "internalType": "uint256",
          "name": "_value",
          "type": "uint256"
        }
      ],
      "stateMutability": "view",
      "type": "function"
    }
  ],
  "transactionHash": "0xaa7c86ee5430cee2c209a08b8ac2c5b7791629c53695dfa4a18addc478ac0893",
  "args": [
    "0xe7f1725E7734CE288F8367e1Bb143E90bb3F0512"
  ],
  "numDeployments": 1,
  "solcInputHash": "c74b70a3488bfbc32d8346d1a8a217f2",
  "bytecode": "0x60a060405234801561001057600080fd5b5060405161103a38038061103a8339818101604052602081101561003357600080fd5b50516001600160a01b03811661004857600080fd5b606081901b6001600160601b0319166080526001600160a01b0316610fac61008e600039806101e5528061026b5280610358528061040f52806104b55250610fac6000f3fe608060405234801561001057600080fd5b50600436106100675760003560e01c80634249719f116100505780634249719f146100c8578063490084ef146100f4578063686375491461011a57610067565b806332da80a31461006c5780633c4e6da7146100a4575b600080fd5b6100926004803603602081101561008257600080fd5b50356001600160a01b0316610140565b60408051918252519081900360200190f35b6100ac6104b3565b604080516001600160a01b039092168252519081900360200190f35b610092600480360360408110156100de57600080fd5b506001600160a01b0381351690602001356104d7565b6100926004803603602081101561010a57600080fd5b50356001600160a01b031661057f565b6100926004803603602081101561013057600080fd5b50356001600160a01b031661086c565b6000806000836001600160a01b0316630902f1ac6040518163ffffffff1660e01b815260040160606040518083038186803b15801561017e57600080fd5b505afa158015610192573d6000803e3d6000fd5b505050506040513d60608110156101a857600080fd5b50805160209182015160408051630dfe168160e01b815290516dffffffffffffffffffffffffffff93841696509290911693506001600160a01b037f000000000000000000000000000000000000000000000000000000000000000081169390881692630dfe1681926004808201939291829003018186803b15801561022d57600080fd5b505afa158015610241573d6000803e3d6000fd5b505050506040513d602081101561025757600080fd5b50516001600160a01b0316148061030357507f00000000000000000000000000000000000000000000000000000000000000006001600160a01b0316846001600160a01b031663d21220a76040518163ffffffff1660e01b815260040160206040518083038186803b1580156102cc57600080fd5b505afa1580156102e0573d6000803e3d6000fd5b505050506040513d60208110156102f657600080fd5b50516001600160a01b0316145b610354576040805162461bcd60e51b815260206004820152601160248201527f50616972206d697373696e672042617368000000000000000000000000000000604482015290519081900360640190fd5b60007f00000000000000000000000000000000000000000000000000000000000000006001600160a01b0316856001600160a01b0316630dfe16816040518163ffffffff1660e01b815260040160206040518083038186803b1580156103b957600080fd5b505afa1580156103cd573d6000803e3d6000fd5b505050506040513d60208110156103e357600080fd5b50516001600160a01b031614156103fb5750806103fe565b50815b6104a861040a8661086c565b6104a27f00000000000000000000000000000000000000000000000000000000000000006001600160a01b031663313ce5676040518163ffffffff1660e01b815260040160206040518083038186803b15801561046657600080fd5b505afa15801561047a573d6000803e3d6000fd5b505050506040513d602081101561049057600080fd5b5051849060ff16600a0a6002026108da565b9061093a565b93505050505b919050565b7f000000000000000000000000000000000000000000000000000000000000000081565b6000806104e38461086c565b90506000846001600160a01b03166318160ddd6040518163ffffffff1660e01b815260040160206040518083038186803b15801561052057600080fd5b505afa158015610534573d6000803e3d6000fd5b505050506040513d602081101561054a57600080fd5b50519050610576670de0b6b3a76400006104a261056f61056a888661097c565b610afe565b85906108da565b95945050505050565b600080826001600160a01b0316630dfe16816040518163ffffffff1660e01b815260040160206040518083038186803b1580156105bb57600080fd5b505afa1580156105cf573d6000803e3d6000fd5b505050506040513d60208110156105e557600080fd5b50516040805163313ce56760e01b815290516001600160a01b039092169163313ce56791600480820192602092909190829003018186803b15801561062957600080fd5b505afa15801561063d573d6000803e3d6000fd5b505050506040513d602081101561065357600080fd5b50516040805163d21220a760e01b8152905160ff90921692506000916001600160a01b0386169163d21220a7916004808301926020929190829003018186803b15801561069f57600080fd5b505afa1580156106b3573d6000803e3d6000fd5b505050506040513d60208110156106c957600080fd5b50516040805163313ce56760e01b815290516001600160a01b039092169163313ce56791600480820192602092909190829003018186803b15801561070d57600080fd5b505afa158015610721573d6000803e3d6000fd5b505050506040513d602081101561073757600080fd5b50516040805163313ce56760e01b8152905160ff90921692506000916107c7916001600160a01b0388169163313ce56791600480820192602092909190829003018186803b15801561078857600080fd5b505afa15801561079c573d6000803e3d6000fd5b505050506040513d60208110156107b257600080fd5b505160ff166107c18585610b16565b90610b70565b9050600080866001600160a01b0316630902f1ac6040518163ffffffff1660e01b815260040160606040518083038186803b15801561080557600080fd5b505afa158015610819573d6000803e3d6000fd5b505050506040513d606081101561082f57600080fd5b5080516020909101516dffffffffffffffffffffffffffff9182169350169050610861600a84900a6104a284846108da565b979650505050505050565b60006108bd6040518060400160405280600881526020017f537172743a2025730000000000000000000000000000000000000000000000008152506108b86108b38561057f565b610bb2565b610c1c565b6108d460026108ce6108b38561057f565b906108da565b92915050565b6000826108e9575060006108d4565b828202828482816108f657fe5b04146109335760405162461bcd60e51b8152600401808060200182810382526021815260200180610f566021913960400191505060405180910390fd5b9392505050565b600061093383836040518060400160405280601a81526020017f536166654d6174683a206469766973696f6e206279207a65726f000000000000815250610cce565b610984610f1d565b600082116109c35760405162461bcd60e51b8152600401808060200182810382526026815260200180610f306026913960400191505060405180910390fd5b826109dd57506040805160208101909152600081526108d4565b71ffffffffffffffffffffffffffffffffffff8311610a8457600082607085901b81610a0557fe5b0490506001600160e01b03811115610a64576040805162461bcd60e51b815260206004820152601e60248201527f4669786564506f696e743a3a6672616374696f6e3a206f766572666c6f770000604482015290519081900360640190fd5b6040518060200160405280826001600160e01b03168152509150506108d4565b6000610aa0846e01000000000000000000000000000085610d70565b90506001600160e01b03811115610a64576040805162461bcd60e51b815260206004820152601e60248201527f4669786564506f696e743a3a6672616374696f6e3a206f766572666c6f770000604482015290519081900360640190fd5b516612725dd1d243ab6001600160e01b039091160490565b600082820183811015610933576040805162461bcd60e51b815260206004820152601b60248201527f536166654d6174683a206164646974696f6e206f766572666c6f770000000000604482015290519081900360640190fd5b600061093383836040518060400160405280601e81526020017f536166654d6174683a207375627472616374696f6e206f766572666c6f770000815250610e05565b60006003821115610c0e5750806000610bd6610bcf83600261093a565b6001610b16565b90505b81811015610c0857809150610c01610bfa610bf4858461093a565b83610b16565b600261093a565b9050610bd9565b506104ae565b81156104ae57506001919050565b610cca82826040516024018080602001838152602001828103825284818151815260200191508051906020019080838360005b83811015610c67578181015183820152602001610c4f565b50505050905090810190601f168015610c945780820380516001836020036101000a031916815260200191505b5060408051601f198184030181529190526020810180516001600160e01b03166309710a9d60e41b1790529350610e5f92505050565b5050565b60008183610d5a5760405162461bcd60e51b81526004018080602001828103825283818151815260200191508051906020019080838360005b83811015610d1f578181015183820152602001610d07565b50505050905090810190601f168015610d4c5780820380516001836020036101000a031916815260200191505b509250505060405180910390fd5b506000838581610d6657fe5b0495945050505050565b6000806000610d7f8686610e80565b9150915060008480610d8d57fe5b868809905082811115610da1576001820391505b8083039250848210610dfa576040805162461bcd60e51b815260206004820152601a60248201527f46756c6c4d6174683a3a6d756c4469763a206f766572666c6f77000000000000604482015290519081900360640190fd5b610861838387610ead565b60008184841115610e575760405162461bcd60e51b8152602060048201818152835160248401528351909283926044909101919085019080838360008315610d1f578181015183820152602001610d07565b505050900390565b80516a636f6e736f6c652e6c6f67602083016000808483855afa5050505050565b6000808060001984860990508385029250828103915082811015610ea5576001820391505b509250929050565b60008181038216808381610ebd57fe5b049250808581610ec957fe5b049450808160000381610ed857fe5b60028581038087028203028087028203028087028203028087028203028087028203028087028203029586029003909402930460010193909302939093010292915050565b6040805160208101909152600081529056fe4669786564506f696e743a3a6672616374696f6e3a206469766973696f6e206279207a65726f536166654d6174683a206d756c7469706c69636174696f6e206f766572666c6f77a2646970667358221220098bb19dfae0f2dc93ba8b3964b7f3c9ec0e9dd16ee8dd0b63c79a1f19ab251364736f6c63430007050033",
  "devdoc": {
    "kind": "dev",
    "methods": {},
    "version": 1
  },
  "userdoc": {
    "kind": "user",
    "methods": {},
    "version": 1
  },
  "storageLayout": {
    "storage": [],
    "types": null
  }
}