{
  "address": "0x959922bE3CAee4b8Cd9a407cc3ac1C251C2007B1",
  "abi": [
    {
      "inputs": [
        {
          "internalType": "address",
          "name": "_Bash",
          "type": "address"
        }
      ],
      "stateMutability": "nonpayable",
      "type": "constructor"
    },
    {
      "inputs": [],
      "name": "Bash",
      "outputs": [
        {
          "internalType": "address",
          "name": "",
          "type": "address"
        }
      ],
      "stateMutability": "view",
      "type": "function"
    },
    {
      "inputs": [
        {
          "internalType": "address",
          "name": "_pair",
          "type": "address"
        }
      ],
      "name": "getKValue",
      "outputs": [
        {
          "internalType": "uint256",
          "name": "k_",
          "type": "uint256"
        }
      ],
      "stateMutability": "view",
      "type": "function"
    },
    {
      "inputs": [
        {
          "internalType": "address",
          "name": "_pair",
          "type": "address"
        }
      ],
      "name": "getTotalValue",
      "outputs": [
        {
          "internalType": "uint256",
          "name": "_value",
          "type": "uint256"
        }
      ],
      "stateMutability": "view",
      "type": "function"
    },
    {
      "inputs": [
        {
          "internalType": "address",
          "name": "_pair",
          "type": "address"
        }
      ],
      "name": "markdown",
      "outputs": [
        {
          "internalType": "uint256",
          "name": "",
          "type": "uint256"
        }
      ],
      "stateMutability": "view",
      "type": "function"
    },
    {
      "inputs": [
        {
          "internalType": "address",
          "name": "_pair",
          "type": "address"
        },
        {
          "internalType": "uint256",
          "name": "amount_",
          "type": "uint256"
        }
      ],
      "name": "valuation",
      "outputs": [
        {
          "internalType": "uint256",
          "name": "_value",
          "type": "uint256"
        }
      ],
      "stateMutability": "view",
      "type": "function"
    }
  ],
  "transactionHash": "0xd7ce6b694d000eee9b52a605518e47286266d1c8b5e8b1a2e90f22c7cf460690",
  "args": [
    "0xe7f1725E7734CE288F8367e1Bb143E90bb3F0512"
  ],
  "numDeployments": 1,
  "solcInputHash": "8a8304175682ed9b5fd448dad42113dc",
  "bytecode": "0x60a060405234801561001057600080fd5b50604051610ee8380380610ee88339818101604052602081101561003357600080fd5b50516001600160a01b03811661004857600080fd5b606081901b6001600160601b0319166080526001600160a01b0316610e5a61008e600039806101ce5280610254528061033552806103ec52806104925250610e5a6000f3fe608060405234801561001057600080fd5b50600436106100575760003560e01c806332da80a31461005c5780633c4e6da7146100945780634249719f146100b8578063490084ef146100e4578063686375491461010a575b600080fd5b6100826004803603602081101561007257600080fd5b50356001600160a01b0316610130565b60408051918252519081900360200190f35b61009c610490565b604080516001600160a01b039092168252519081900360200190f35b610082600480360360408110156100ce57600080fd5b506001600160a01b0381351690602001356104b4565b610082600480360360208110156100fa57600080fd5b50356001600160a01b031661055c565b6100826004803603602081101561012057600080fd5b50356001600160a01b0316610842565b6000806000836001600160a01b0316630902f1ac6040518163ffffffff1660e01b815260040160606040518083038186803b15801561016e57600080fd5b505afa158015610182573d6000803e3d6000fd5b505050506040513d606081101561019857600080fd5b50805160209182015160408051630dfe168160e01b815290516001600160701b0393841696509290911693506001600160a01b037f000000000000000000000000000000000000000000000000000000000000000081169390881692630dfe1681926004808201939291829003018186803b15801561021657600080fd5b505afa15801561022a573d6000803e3d6000fd5b505050506040513d602081101561024057600080fd5b50516001600160a01b031614806102ec57507f00000000000000000000000000000000000000000000000000000000000000006001600160a01b0316846001600160a01b031663d21220a76040518163ffffffff1660e01b815260040160206040518083038186803b1580156102b557600080fd5b505afa1580156102c9573d6000803e3d6000fd5b505050506040513d60208110156102df57600080fd5b50516001600160a01b0316145b610331576040805162461bcd60e51b81526020600482015260116024820152700a0c2d2e440dad2e6e6d2dcce4084c2e6d607b1b604482015290519081900360640190fd5b60007f00000000000000000000000000000000000000000000000000000000000000006001600160a01b0316856001600160a01b0316630dfe16816040518163ffffffff1660e01b815260040160206040518083038186803b15801561039657600080fd5b505afa1580156103aa573d6000803e3d6000fd5b505050506040513d60208110156103c057600080fd5b50516001600160a01b031614156103d85750806103db565b50815b6104856103e786610842565b61047f7f00000000000000000000000000000000000000000000000000000000000000006001600160a01b031663313ce5676040518163ffffffff1660e01b815260040160206040518083038186803b15801561044357600080fd5b505afa158015610457573d6000803e3d6000fd5b505050506040513d602081101561046d57600080fd5b5051849060ff16600a0a600202610866565b906108c6565b93505050505b919050565b7f000000000000000000000000000000000000000000000000000000000000000081565b6000806104c084610842565b90506000846001600160a01b03166318160ddd6040518163ffffffff1660e01b815260040160206040518083038186803b1580156104fd57600080fd5b505afa158015610511573d6000803e3d6000fd5b505050506040513d602081101561052757600080fd5b50519050610553670de0b6b3a764000061047f61054c6105478886610908565b610a7f565b8590610866565b95945050505050565b600080826001600160a01b0316630dfe16816040518163ffffffff1660e01b815260040160206040518083038186803b15801561059857600080fd5b505afa1580156105ac573d6000803e3d6000fd5b505050506040513d60208110156105c257600080fd5b50516040805163313ce56760e01b815290516001600160a01b039092169163313ce56791600480820192602092909190829003018186803b15801561060657600080fd5b505afa15801561061a573d6000803e3d6000fd5b505050506040513d602081101561063057600080fd5b50516040805163d21220a760e01b8152905160ff90921692506000916001600160a01b0386169163d21220a7916004808301926020929190829003018186803b15801561067c57600080fd5b505afa158015610690573d6000803e3d6000fd5b505050506040513d60208110156106a657600080fd5b50516040805163313ce56760e01b815290516001600160a01b039092169163313ce56791600480820192602092909190829003018186803b1580156106ea57600080fd5b505afa1580156106fe573d6000803e3d6000fd5b505050506040513d602081101561071457600080fd5b50516040805163313ce56760e01b8152905160ff90921692506000916107a4916001600160a01b0388169163313ce56791600480820192602092909190829003018186803b15801561076557600080fd5b505afa158015610779573d6000803e3d6000fd5b505050506040513d602081101561078f57600080fd5b505160ff1661079e8585610a97565b90610af1565b9050600080866001600160a01b0316630902f1ac6040518163ffffffff1660e01b815260040160606040518083038186803b1580156107e257600080fd5b505afa1580156107f6573d6000803e3d6000fd5b505050506040513d606081101561080c57600080fd5b5080516020909101516001600160701b039182169350169050610837600a84900a61047f8484610866565b979650505050505050565b6000610860600261085a6108558561055c565b610b33565b90610866565b92915050565b60008261087557506000610860565b8282028284828161088257fe5b04146108bf5760405162461bcd60e51b8152600401808060200182810382526021815260200180610e046021913960400191505060405180910390fd5b9392505050565b60006108bf83836040518060400160405280601a81526020017f536166654d6174683a206469766973696f6e206279207a65726f000000000000815250610b9d565b610910610dcb565b6000821161094f5760405162461bcd60e51b8152600401808060200182810382526026815260200180610dde6026913960400191505060405180910390fd5b826109695750604080516020810190915260008152610860565b71ffffffffffffffffffffffffffffffffffff8311610a1057600082607085901b8161099157fe5b0490506001600160e01b038111156109f0576040805162461bcd60e51b815260206004820152601e60248201527f4669786564506f696e743a3a6672616374696f6e3a206f766572666c6f770000604482015290519081900360640190fd5b6040518060200160405280826001600160e01b0316815250915050610860565b6000610a2184600160701b85610c3f565b90506001600160e01b038111156109f0576040805162461bcd60e51b815260206004820152601e60248201527f4669786564506f696e743a3a6672616374696f6e3a206f766572666c6f770000604482015290519081900360640190fd5b516612725dd1d243ab6001600160e01b039091160490565b6000828201838110156108bf576040805162461bcd60e51b815260206004820152601b60248201527f536166654d6174683a206164646974696f6e206f766572666c6f770000000000604482015290519081900360640190fd5b60006108bf83836040518060400160405280601e81526020017f536166654d6174683a207375627472616374696f6e206f766572666c6f770000815250610cd4565b60006003821115610b8f5750806000610b57610b508360026108c6565b6001610a97565b90505b81811015610b8957809150610b82610b7b610b7585846108c6565b83610a97565b60026108c6565b9050610b5a565b5061048b565b811561048b57506001919050565b60008183610c295760405162461bcd60e51b81526004018080602001828103825283818151815260200191508051906020019080838360005b83811015610bee578181015183820152602001610bd6565b50505050905090810190601f168015610c1b5780820380516001836020036101000a031916815260200191505b509250505060405180910390fd5b506000838581610c3557fe5b0495945050505050565b6000806000610c4e8686610d2e565b9150915060008480610c5c57fe5b868809905082811115610c70576001820391505b8083039250848210610cc9576040805162461bcd60e51b815260206004820152601a60248201527f46756c6c4d6174683a3a6d756c4469763a206f766572666c6f77000000000000604482015290519081900360640190fd5b610837838387610d5b565b60008184841115610d265760405162461bcd60e51b8152602060048201818152835160248401528351909283926044909101919085019080838360008315610bee578181015183820152602001610bd6565b505050900390565b6000808060001984860990508385029250828103915082811015610d53576001820391505b509250929050565b60008181038216808381610d6b57fe5b049250808581610d7757fe5b049450808160000381610d8657fe5b60028581038087028203028087028203028087028203028087028203028087028203028087028203029586029003909402930460010193909302939093010292915050565b6040805160208101909152600081529056fe4669786564506f696e743a3a6672616374696f6e3a206469766973696f6e206279207a65726f536166654d6174683a206d756c7469706c69636174696f6e206f766572666c6f77a264697066735822122009bc32e6c57d2daae8ed89f05c7ec354d3f47198b75c8a4c5ad710c3203e4efa64736f6c63430007050033",
  "devdoc": {
    "kind": "dev",
    "methods": {},
    "version": 1
  },
  "userdoc": {
    "kind": "user",
    "methods": {},
    "version": 1
  },
  "storageLayout": {
    "storage": [],
    "types": null
  }
}