{
  "address": "0xb9132D6b42492Ba3e291492D9849fFB3Cc1bAB4F",
  "abi": [
    {
      "inputs": [
        {
          "internalType": "address",
          "name": "_Time",
          "type": "address"
        },
        {
          "internalType": "address",
          "name": "_Memories",
          "type": "address"
        },
        {
          "internalType": "uint32",
          "name": "_epochLength",
          "type": "uint32"
        },
        {
          "internalType": "uint256",
          "name": "_firstEpochNumber",
          "type": "uint256"
        },
        {
          "internalType": "uint32",
          "name": "_firstEpochTime",
          "type": "uint32"
        }
      ],
      "stateMutability": "nonpayable",
      "type": "constructor"
    },
    {
      "anonymous": false,
      "inputs": [
        {
          "indexed": true,
          "internalType": "address",
          "name": "previousOwner",
          "type": "address"
        },
        {
          "indexed": true,
          "internalType": "address",
          "name": "newOwner",
          "type": "address"
        }
      ],
      "name": "OwnershipPulled",
      "type": "event"
    },
    {
      "anonymous": false,
      "inputs": [
        {
          "indexed": true,
          "internalType": "address",
          "name": "previousOwner",
          "type": "address"
        },
        {
          "indexed": true,
          "internalType": "address",
          "name": "newOwner",
          "type": "address"
        }
      ],
      "name": "OwnershipPushed",
      "type": "event"
    },
    {
      "inputs": [],
      "name": "Memories",
      "outputs": [
        {
          "internalType": "address",
          "name": "",
          "type": "address"
        }
      ],
      "stateMutability": "view",
      "type": "function"
    },
    {
      "inputs": [],
      "name": "Time",
      "outputs": [
        {
          "internalType": "address",
          "name": "",
          "type": "address"
        }
      ],
      "stateMutability": "view",
      "type": "function"
    },
    {
      "inputs": [
        {
          "internalType": "address",
          "name": "_recipient",
          "type": "address"
        }
      ],
      "name": "claim",
      "outputs": [],
      "stateMutability": "nonpayable",
      "type": "function"
    },
    {
      "inputs": [],
      "name": "contractBalance",
      "outputs": [
        {
          "internalType": "uint256",
          "name": "",
          "type": "uint256"
        }
      ],
      "stateMutability": "view",
      "type": "function"
    },
    {
      "inputs": [],
      "name": "distributor",
      "outputs": [
        {
          "internalType": "address",
          "name": "",
          "type": "address"
        }
      ],
      "stateMutability": "view",
      "type": "function"
    },
    {
      "inputs": [],
      "name": "epoch",
      "outputs": [
        {
          "internalType": "uint256",
          "name": "number",
          "type": "uint256"
        },
        {
          "internalType": "uint256",
          "name": "distribute",
          "type": "uint256"
        },
        {
          "internalType": "uint32",
          "name": "length",
          "type": "uint32"
        },
        {
          "internalType": "uint32",
          "name": "endTime",
          "type": "uint32"
        }
      ],
      "stateMutability": "view",
      "type": "function"
    },
    {
      "inputs": [],
      "name": "forfeit",
      "outputs": [],
      "stateMutability": "nonpayable",
      "type": "function"
    },
    {
      "inputs": [
        {
          "internalType": "uint256",
          "name": "_amount",
          "type": "uint256"
        }
      ],
      "name": "giveLockBonus",
      "outputs": [],
      "stateMutability": "nonpayable",
      "type": "function"
    },
    {
      "inputs": [],
      "name": "index",
      "outputs": [
        {
          "internalType": "uint256",
          "name": "",
          "type": "uint256"
        }
      ],
      "stateMutability": "view",
      "type": "function"
    },
    {
      "inputs": [],
      "name": "locker",
      "outputs": [
        {
          "internalType": "address",
          "name": "",
          "type": "address"
        }
      ],
      "stateMutability": "view",
      "type": "function"
    },
    {
      "inputs": [],
      "name": "manager",
      "outputs": [
        {
          "internalType": "address",
          "name": "",
          "type": "address"
        }
      ],
      "stateMutability": "view",
      "type": "function"
    },
    {
      "inputs": [],
      "name": "pullManagement",
      "outputs": [],
      "stateMutability": "nonpayable",
      "type": "function"
    },
    {
      "inputs": [
        {
          "internalType": "address",
          "name": "newOwner_",
          "type": "address"
        }
      ],
      "name": "pushManagement",
      "outputs": [],
      "stateMutability": "nonpayable",
      "type": "function"
    },
    {
      "inputs": [],
      "name": "rebase",
      "outputs": [],
      "stateMutability": "nonpayable",
      "type": "function"
    },
    {
      "inputs": [],
      "name": "renounceManagement",
      "outputs": [],
      "stateMutability": "nonpayable",
      "type": "function"
    },
    {
      "inputs": [
        {
          "internalType": "uint256",
          "name": "_amount",
          "type": "uint256"
        }
      ],
      "name": "returnLockBonus",
      "outputs": [],
      "stateMutability": "nonpayable",
      "type": "function"
    },
    {
      "inputs": [
        {
          "internalType": "enum ATBASHStaking.CONTRACTS",
          "name": "_contract",
          "type": "uint8"
        },
        {
          "internalType": "address",
          "name": "_address",
          "type": "address"
        }
      ],
      "name": "setContract",
      "outputs": [],
      "stateMutability": "nonpayable",
      "type": "function"
    },
    {
      "inputs": [
        {
          "internalType": "uint256",
          "name": "_warmupPeriod",
          "type": "uint256"
        }
      ],
      "name": "setWarmup",
      "outputs": [],
      "stateMutability": "nonpayable",
      "type": "function"
    },
    {
      "inputs": [
        {
          "internalType": "uint256",
          "name": "_amount",
          "type": "uint256"
        },
        {
          "internalType": "address",
          "name": "_recipient",
          "type": "address"
        }
      ],
      "name": "stake",
      "outputs": [
        {
          "internalType": "bool",
          "name": "",
          "type": "bool"
        }
      ],
      "stateMutability": "nonpayable",
      "type": "function"
    },
    {
      "inputs": [],
      "name": "toggleDepositLock",
      "outputs": [],
      "stateMutability": "nonpayable",
      "type": "function"
    },
    {
      "inputs": [],
      "name": "totalBonus",
      "outputs": [
        {
          "internalType": "uint256",
          "name": "",
          "type": "uint256"
        }
      ],
      "stateMutability": "view",
      "type": "function"
    },
    {
      "inputs": [
        {
          "internalType": "uint256",
          "name": "_amount",
          "type": "uint256"
        },
        {
          "internalType": "bool",
          "name": "_trigger",
          "type": "bool"
        }
      ],
      "name": "unstake",
      "outputs": [],
      "stateMutability": "nonpayable",
      "type": "function"
    },
    {
      "inputs": [],
      "name": "warmupContract",
      "outputs": [
        {
          "internalType": "address",
          "name": "",
          "type": "address"
        }
      ],
      "stateMutability": "view",
      "type": "function"
    },
    {
      "inputs": [
        {
          "internalType": "address",
          "name": "",
          "type": "address"
        }
      ],
      "name": "warmupInfo",
      "outputs": [
        {
          "internalType": "uint256",
          "name": "deposit",
          "type": "uint256"
        },
        {
          "internalType": "uint256",
          "name": "gons",
          "type": "uint256"
        },
        {
          "internalType": "uint256",
          "name": "expiry",
          "type": "uint256"
        },
        {
          "internalType": "bool",
          "name": "lock",
          "type": "bool"
        }
      ],
      "stateMutability": "view",
      "type": "function"
    },
    {
      "inputs": [],
      "name": "warmupPeriod",
      "outputs": [
        {
          "internalType": "uint256",
          "name": "",
          "type": "uint256"
        }
      ],
      "stateMutability": "view",
      "type": "function"
    }
  ],
  "transactionHash": "0x2c00bb3e3fcdc43b34018e42def303b96f4f22c1f3356ba9b276ed772928fbb8",
  "numDeployments": 1,
  "solcInputHash": "7480ac4f58fbb08d423d48558430ab82",
  "bytecode": "0x60c060405234801561001057600080fd5b50604051611ac4380380611ac4833981810160405260a081101561003357600080fd5b50805160208201516040808401516060850151608090950151600080546001600160a01b031916331780825593519596949592949391926001600160a01b0392909216917fea8258f2d9ddb679928cf34b78cf645b7feda9acc828e4dd82d014eaae270eba908290a36001600160a01b0385166100af57600080fd5b6001600160601b0319606086901b166080526001600160a01b0384166100d457600080fd5b6001600160601b0319606094851b1660a0526040805160808101825283815260006020820181905263ffffffff95861692820183905292909416939094018390526002919091556003556004805464010000000090920263ffffffff60201b1963ffffffff19909316909317919091169190911790555060805160601c60a05160601c61190a6101ba6000398061041152806105ac528061068d52806107175280610a165280610b225280610dd85280610e565280610fe652806111ad52806112f55250806109205280610cd95280610e0d52806112945280611321525061190a6000f3fe608060405234801561001057600080fd5b50600436106101735760003560e01c80638f077b83116100de578063c9f464ff11610097578063ed4acaa811610071578063ed4acaa8146103a4578063f3d86e4a146103ac578063f62ae76a146103b4578063f8e157ea146103d157610173565b8063c9f464ff14610377578063d7b96d4e14610394578063deac361a1461039c57610173565b80638f077b83146102fe578063900cf0cf146103065780639ebea88c1461033a578063a8dd07dc1461035f578063af14052c14610367578063bfe109281461036f57610173565b8063481c6a7511610130578063481c6a75146102295780635a96ac0a146102315780636746f4c2146102395780637acb775714610287578063865e6fd3146102c75780638b7afe2e146102f657610173565b806303c2367014610178578063089208d8146101975780631e83409a1461019f5780632986c0e5146101c5578063367efb62146101df57806346f68ee914610203575b600080fd5b6101956004803603602081101561018e57600080fd5b50356103d9565b005b61019561043d565b610195600480360360208110156101b557600080fd5b50356001600160a01b03166104d4565b6101cd610689565b60408051918252519081900360200190f35b6101e7610715565b604080516001600160a01b039092168252519081900360200190f35b6101956004803603602081101561021957600080fd5b50356001600160a01b0316610739565b6101e7610826565b610195610835565b61025f6004803603602081101561024f57600080fd5b50356001600160a01b03166108df565b6040805194855260208501939093528383019190915215156060830152519081900360800190f35b6102b36004803603604081101561029d57600080fd5b50803590602001356001600160a01b0316610909565b604080519115158252519081900360200190f35b610195600480360360408110156102dd57600080fd5b50803560ff1690602001356001600160a01b0316610b55565b6101cd610ccf565b610195610d7b565b61030e610d9f565b60408051948552602085019390935263ffffffff91821684840152166060830152519081900360800190f35b6101956004803603604081101561035057600080fd5b50803590602001351515610dbd565b6101cd610e34565b610195610e3a565b6101e761108e565b6101956004803603602081101561038d57600080fd5b503561109d565b6101e76110ef565b6101cd6110fe565b6101e7611104565b610195611113565b610195600480360360208110156103ca57600080fd5b50356112bd565b6101e761131f565b6006546001600160a01b031633146103f057600080fd5b6007546103fd9082611343565b60075560065461043a906001600160a01b037f000000000000000000000000000000000000000000000000000000000000000081169116836113a4565b50565b6000546001600160a01b0316331461048a576040805162461bcd60e51b8152602060048201819052602482015260008051602061188b833981519152604482015290519081900360640190fd5b600080546040516001600160a01b03909116907fea8258f2d9ddb679928cf34b78cf645b7feda9acc828e4dd82d014eaae270eba908390a3600080546001600160a01b0319169055565b6104dc6117d2565b506001600160a01b0381166000908152600a602090815260409182902082516080810184528154815260018201549281019290925260028082015493830184905260039091015460ff1615156060830152549091118015906105415750604081015115155b15610685576001600160a01b038083166000908152600a602090815260408083208381556001810184905560028101939093556003909201805460ff19169055600854848201518351637965d56d60e01b8152600481019190915292519084169363c3a2a6659387937f000000000000000000000000000000000000000000000000000000000000000090921692637965d56d92602480840193919291829003018186803b1580156105f257600080fd5b505afa158015610606573d6000803e3d6000fd5b505050506040513d602081101561061c57600080fd5b5051604080516001600160e01b031960e086901b1681526001600160a01b039093166004840152602483019190915251604480830192600092919082900301818387803b15801561066c57600080fd5b505af1158015610680573d6000803e3d6000fd5b505050505b5050565b60007f00000000000000000000000000000000000000000000000000000000000000006001600160a01b0316632986c0e56040518163ffffffff1660e01b815260040160206040518083038186803b1580156106e457600080fd5b505afa1580156106f8573d6000803e3d6000fd5b505050506040513d602081101561070e57600080fd5b5051905090565b7f000000000000000000000000000000000000000000000000000000000000000081565b6000546001600160a01b03163314610786576040805162461bcd60e51b8152602060048201819052602482015260008051602061188b833981519152604482015290519081900360640190fd5b6001600160a01b0381166107cb5760405162461bcd60e51b81526004018080602001828103825260268152602001806118206026913960400191505060405180910390fd5b600080546040516001600160a01b03808516939216917fea8258f2d9ddb679928cf34b78cf645b7feda9acc828e4dd82d014eaae270eba91a3600180546001600160a01b0319166001600160a01b0392909216919091179055565b6000546001600160a01b031690565b6001546001600160a01b0316331461087e5760405162461bcd60e51b81526004018080602001828103825260228152602001806118696022913960400191505060405180910390fd5b600154600080546040516001600160a01b0393841693909116917faa151555690c956fc3ea32f106bb9f119b5237a061eaa8557cff3e51e3792c8d91a3600154600080546001600160a01b0319166001600160a01b03909216919091179055565b600a6020526000908152604090208054600182015460028301546003909301549192909160ff1684565b6000610913610e3a565b6109486001600160a01b037f0000000000000000000000000000000000000000000000000000000000000000163330866113fb565b6109506117d2565b506001600160a01b0382166000908152600a602090815260409182902082516080810184528154815260018201549281019290925260028101549282019290925260039091015460ff1615801560608301526109f3576040805162461bcd60e51b815260206004820152601f60248201527f4465706f7369747320666f72206163636f756e7420617265206c6f636b656400604482015290519081900360640190fd5b604080516080810190915281518190610a0c9087611343565b8152602001610aaf7f00000000000000000000000000000000000000000000000000000000000000006001600160a01b0316631bd39674886040518263ffffffff1660e01b81526004018082815260200191505060206040518083038186803b158015610a7857600080fd5b505afa158015610a8c573d6000803e3d6000fd5b505050506040513d6020811015610aa257600080fd5b5051602085015190611343565b8152600954600254602090920191610ac691611343565b8152600060209182018190526001600160a01b038681168252600a8352604091829020845181559284015160018401559083015160028301556060909201516003909101805460ff1916911515919091179055600854610b4b917f000000000000000000000000000000000000000000000000000000000000000081169116866113a4565b5060019392505050565b6000546001600160a01b03163314610ba2576040805162461bcd60e51b8152602060048201819052602482015260008051602061188b833981519152604482015290519081900360640190fd5b6000826002811115610bb057fe5b1415610bd657600580546001600160a01b0319166001600160a01b038316179055610685565b6001826002811115610be457fe5b1415610c52576008546001600160a01b031615610c325760405162461bcd60e51b81526004018080602001828103825260238152602001806118466023913960400191505060405180910390fd5b600880546001600160a01b0319166001600160a01b038316179055610685565b6002826002811115610c6057fe5b1415610685576006546001600160a01b031615610cae5760405162461bcd60e51b81526004018080602001828103825260238152602001806117fd6023913960400191505060405180910390fd5b600680546001600160a01b0383166001600160a01b03199091161790555050565b6000610d766007547f00000000000000000000000000000000000000000000000000000000000000006001600160a01b03166370a08231306040518263ffffffff1660e01b815260040180826001600160a01b0316815260200191505060206040518083038186803b158015610d4457600080fd5b505afa158015610d58573d6000803e3d6000fd5b505050506040513d6020811015610d6e57600080fd5b505190611343565b905090565b336000908152600a60205260409020600301805460ff19811660ff90911615179055565b60025460035460045463ffffffff8082169164010000000090041684565b8015610dcb57610dcb610e3a565b610e006001600160a01b037f0000000000000000000000000000000000000000000000000000000000000000163330856113fb565b6106856001600160a01b037f00000000000000000000000000000000000000000000000000000000000000001633846113a4565b60075481565b60045463ffffffff428116640100000000909204161161108c577f00000000000000000000000000000000000000000000000000000000000000006001600160a01b031663058ecdb46002600101546002600001546040518363ffffffff1660e01b81526004018083815260200182815260200192505050602060405180830381600087803b158015610ecc57600080fd5b505af1158015610ee0573d6000803e3d6000fd5b505050506040513d6020811015610ef657600080fd5b5050600454610f189063ffffffff640100000000820481169181169061145b16565b6004805463ffffffff929092166401000000000267ffffffff00000000199092169190911790556002805460010190556005546001600160a01b031615610fd657600560009054906101000a90046001600160a01b03166001600160a01b031663e4fc6b6d6040518163ffffffff1660e01b8152600401602060405180830381600087803b158015610fa957600080fd5b505af1158015610fbd573d6000803e3d6000fd5b505050506040513d6020811015610fd357600080fd5b50505b6000610fe0610ccf565b905060007f00000000000000000000000000000000000000000000000000000000000000006001600160a01b0316639358928b6040518163ffffffff1660e01b815260040160206040518083038186803b15801561103d57600080fd5b505afa158015611051573d6000803e3d6000fd5b505050506040513d602081101561106757600080fd5b5051905080821161107c576000600355610685565b61108682826114be565b60035550505b565b6005546001600160a01b031681565b6000546001600160a01b031633146110ea576040805162461bcd60e51b8152602060048201819052602482015260008051602061188b833981519152604482015290519081900360640190fd5b600955565b6006546001600160a01b031681565b60095481565b6008546001600160a01b031681565b61111b6117d2565b50336000818152600a602081815260408084208151608081018352815481526001820180548286019081526002840180548487015260038501805460ff8116151560608701529a8a5297875293889055908790559590915560ff1990951690925560085492518251637965d56d60e01b8152600481019190915291516001600160a01b039384169363c3a2a6659330937f000000000000000000000000000000000000000000000000000000000000000090921692637965d56d92602480840193919291829003018186803b1580156111f357600080fd5b505afa158015611207573d6000803e3d6000fd5b505050506040513d602081101561121d57600080fd5b5051604080516001600160e01b031960e086901b1681526001600160a01b039093166004840152602483019190915251604480830192600092919082900301818387803b15801561126d57600080fd5b505af1158015611281573d6000803e3d6000fd5b5050825161043a92506001600160a01b037f000000000000000000000000000000000000000000000000000000000000000016915033906113a4565b6006546001600160a01b031633146112d457600080fd5b6007546112e190826114be565b60075560065461043a906001600160a01b037f00000000000000000000000000000000000000000000000000000000000000008116911630846113fb565b7f000000000000000000000000000000000000000000000000000000000000000081565b60008282018381101561139d576040805162461bcd60e51b815260206004820152601b60248201527f536166654d6174683a206164646974696f6e206f766572666c6f770000000000604482015290519081900360640190fd5b9392505050565b604080516001600160a01b038416602482015260448082018490528251808303909101815260649091019091526020810180516001600160e01b031663a9059cbb60e01b1790526113f6908490611500565b505050565b604080516001600160a01b0380861660248301528416604482015260648082018490528251808303909101815260849091019091526020810180516001600160e01b03166323b872dd60e01b179052611455908590611500565b50505050565b600082820163ffffffff808516908216101561139d576040805162461bcd60e51b815260206004820152601b60248201527f536166654d6174683a206164646974696f6e206f766572666c6f770000000000604482015290519081900360640190fd5b600061139d83836040518060400160405280601e81526020017f536166654d6174683a207375627472616374696f6e206f766572666c6f7700008152506115b1565b6060611555826040518060400160405280602081526020017f5361666545524332303a206c6f772d6c6576656c2063616c6c206661696c6564815250856001600160a01b03166116489092919063ffffffff16565b8051909150156113f65780806020019051602081101561157457600080fd5b50516113f65760405162461bcd60e51b815260040180806020018281038252602a8152602001806118ab602a913960400191505060405180910390fd5b600081848411156116405760405162461bcd60e51b81526004018080602001828103825283818151815260200191508051906020019080838360005b838110156116055781810151838201526020016115ed565b50505050905090810190601f1680156116325780820380516001836020036101000a031916815260200191505b509250505060405180910390fd5b505050900390565b6060611657848460008561165f565b949350505050565b606061166a856117cc565b6116bb576040805162461bcd60e51b815260206004820152601d60248201527f416464726573733a2063616c6c20746f206e6f6e2d636f6e7472616374000000604482015290519081900360640190fd5b60006060866001600160a01b031685876040518082805190602001908083835b602083106116fa5780518252601f1990920191602091820191016116db565b6001836020036101000a03801982511681845116808217855250505050505090500191505060006040518083038185875af1925050503d806000811461175c576040519150601f19603f3d011682016040523d82523d6000602084013e611761565b606091505b509150915081156117755791506116579050565b8051156117855780518082602001fd5b60405162461bcd60e51b81526020600482018181528651602484015286518793919283926044019190850190808383600083156116055781810151838201526020016115ed565b3b151590565b6040518060800160405280600081526020016000815260200160008152602001600015158152509056fe4c6f636b65722063616e6e6f7420626520736574206d6f7265207468616e206f6e63654f776e61626c653a206e6577206f776e657220697320746865207a65726f20616464726573735761726d75702063616e6e6f7420626520736574206d6f7265207468616e206f6e63654f776e61626c653a206d757374206265206e6577206f776e657220746f2070756c6c4f776e61626c653a2063616c6c6572206973206e6f7420746865206f776e65725361666545524332303a204552433230206f7065726174696f6e20646964206e6f742073756363656564a26469706673582212209b9cb60dde7d1ea41b9be84b687e950dca01e97c1c530cef4e0bda4a4efe5a0964736f6c63430007050033",
  "devdoc": {
    "kind": "dev",
    "methods": {
      "claim(address)": {
        "params": {
          "_recipient": "address"
        }
      },
      "contractBalance()": {
        "returns": {
          "_0": "uint"
        }
      },
      "giveLockBonus(uint256)": {
        "params": {
          "_amount": "uint"
        }
      },
      "index()": {
        "returns": {
          "_0": "uint"
        }
      },
      "returnLockBonus(uint256)": {
        "params": {
          "_amount": "uint"
        }
      },
      "setContract(uint8,address)": {
        "params": {
          "_contract": "address"
        }
      },
      "setWarmup(uint256)": {
        "params": {
          "_warmupPeriod": "uint"
        }
      },
      "stake(uint256,address)": {
        "params": {
          "_amount": "uint"
        },
        "returns": {
          "_0": "bool"
        }
      },
      "unstake(uint256,bool)": {
        "params": {
          "_amount": "uint",
          "_trigger": "bool"
        }
      }
    },
    "version": 1
  },
  "userdoc": {
    "kind": "user",
    "methods": {
      "claim(address)": {
        "notice": "retrieve sOHM from warmup"
      },
      "contractBalance()": {
        "notice": "returns contract OHM holdings, including bonuses provided"
      },
      "forfeit()": {
        "notice": "forfeit sOHM in warmup and retrieve OHM"
      },
      "giveLockBonus(uint256)": {
        "notice": "provide bonus to locked staking contract"
      },
      "index()": {
        "notice": "returns the sOHM index, which tracks rebase growth"
      },
      "rebase()": {
        "notice": "trigger rebase if epoch over"
      },
      "returnLockBonus(uint256)": {
        "notice": "reclaim bonus from locked staking contract"
      },
      "setContract(uint8,address)": {
        "notice": "sets the contract address for LP staking"
      },
      "setWarmup(uint256)": {
        "notice": "set warmup period in epoch's numbers for new stakers"
      },
      "stake(uint256,address)": {
        "notice": "stake OHM to enter warmup"
      },
      "toggleDepositLock()": {
        "notice": "prevent new deposits to address (protection from malicious activity)"
      },
      "unstake(uint256,bool)": {
        "notice": "redeem sOHM for OHM"
      }
    },
    "version": 1
  },
  "storageLayout": {
    "storage": [
      {
        "astId": 941,
        "contract": "contracts/Staking.sol:ATBASHStaking",
        "label": "_owner",
        "offset": 0,
        "slot": "0",
        "type": "t_address"
      },
      {
        "astId": 943,
        "contract": "contracts/Staking.sol:ATBASHStaking",
        "label": "_newOwner",
        "offset": 0,
        "slot": "1",
        "type": "t_address"
      },
      {
        "astId": 1147,
        "contract": "contracts/Staking.sol:ATBASHStaking",
        "label": "epoch",
        "offset": 0,
        "slot": "2",
        "type": "t_struct(Epoch)1145_storage"
      },
      {
        "astId": 1149,
        "contract": "contracts/Staking.sol:ATBASHStaking",
        "label": "distributor",
        "offset": 0,
        "slot": "5",
        "type": "t_address"
      },
      {
        "astId": 1151,
        "contract": "contracts/Staking.sol:ATBASHStaking",
        "label": "locker",
        "offset": 0,
        "slot": "6",
        "type": "t_address"
      },
      {
        "astId": 1153,
        "contract": "contracts/Staking.sol:ATBASHStaking",
        "label": "totalBonus",
        "offset": 0,
        "slot": "7",
        "type": "t_uint256"
      },
      {
        "astId": 1155,
        "contract": "contracts/Staking.sol:ATBASHStaking",
        "label": "warmupContract",
        "offset": 0,
        "slot": "8",
        "type": "t_address"
      },
      {
        "astId": 1157,
        "contract": "contracts/Staking.sol:ATBASHStaking",
        "label": "warmupPeriod",
        "offset": 0,
        "slot": "9",
        "type": "t_uint256"
      },
      {
        "astId": 1219,
        "contract": "contracts/Staking.sol:ATBASHStaking",
        "label": "warmupInfo",
        "offset": 0,
        "slot": "10",
        "type": "t_mapping(t_address,t_struct(Claim)1215_storage)"
      }
    ],
    "types": {
      "t_address": {
        "encoding": "inplace",
        "label": "address",
        "numberOfBytes": "20"
      },
      "t_bool": {
        "encoding": "inplace",
        "label": "bool",
        "numberOfBytes": "1"
      },
      "t_mapping(t_address,t_struct(Claim)1215_storage)": {
        "encoding": "mapping",
        "key": "t_address",
        "label": "mapping(address => struct ATBASHStaking.Claim)",
        "numberOfBytes": "32",
        "value": "t_struct(Claim)1215_storage"
      },
      "t_struct(Claim)1215_storage": {
        "encoding": "inplace",
        "label": "struct ATBASHStaking.Claim",
        "members": [
          {
            "astId": 1208,
            "contract": "contracts/Staking.sol:ATBASHStaking",
            "label": "deposit",
            "offset": 0,
            "slot": "0",
            "type": "t_uint256"
          },
          {
            "astId": 1210,
            "contract": "contracts/Staking.sol:ATBASHStaking",
            "label": "gons",
            "offset": 0,
            "slot": "1",
            "type": "t_uint256"
          },
          {
            "astId": 1212,
            "contract": "contracts/Staking.sol:ATBASHStaking",
            "label": "expiry",
            "offset": 0,
            "slot": "2",
            "type": "t_uint256"
          },
          {
            "astId": 1214,
            "contract": "contracts/Staking.sol:ATBASHStaking",
            "label": "lock",
            "offset": 0,
            "slot": "3",
            "type": "t_bool"
          }
        ],
        "numberOfBytes": "128"
      },
      "t_struct(Epoch)1145_storage": {
        "encoding": "inplace",
        "label": "struct ATBASHStaking.Epoch",
        "members": [
          {
            "astId": 1138,
            "contract": "contracts/Staking.sol:ATBASHStaking",
            "label": "number",
            "offset": 0,
            "slot": "0",
            "type": "t_uint256"
          },
          {
            "astId": 1140,
            "contract": "contracts/Staking.sol:ATBASHStaking",
            "label": "distribute",
            "offset": 0,
            "slot": "1",
            "type": "t_uint256"
          },
          {
            "astId": 1142,
            "contract": "contracts/Staking.sol:ATBASHStaking",
            "label": "length",
            "offset": 0,
            "slot": "2",
            "type": "t_uint32"
          },
          {
            "astId": 1144,
            "contract": "contracts/Staking.sol:ATBASHStaking",
            "label": "endTime",
            "offset": 4,
            "slot": "2",
            "type": "t_uint32"
          }
        ],
        "numberOfBytes": "96"
      },
      "t_uint256": {
        "encoding": "inplace",
        "label": "uint256",
        "numberOfBytes": "32"
      },
      "t_uint32": {
        "encoding": "inplace",
        "label": "uint32",
        "numberOfBytes": "4"
      }
    }
  }
}