{
  "address": "0x7969c5eD335650692Bc04293B07F5BF2e7A673C0",
  "abi": [
    {
      "inputs": [
        {
          "internalType": "address",
          "name": "_Time",
          "type": "address"
        }
      ],
      "stateMutability": "nonpayable",
      "type": "constructor"
    },
    {
      "inputs": [],
      "name": "Time",
      "outputs": [
        {
          "internalType": "address",
          "name": "",
          "type": "address"
        }
      ],
      "stateMutability": "view",
      "type": "function"
    },
    {
      "inputs": [
        {
          "internalType": "address",
          "name": "_pair",
          "type": "address"
        }
      ],
      "name": "getKValue",
      "outputs": [
        {
          "internalType": "uint256",
          "name": "k_",
          "type": "uint256"
        }
      ],
      "stateMutability": "view",
      "type": "function"
    },
    {
      "inputs": [
        {
          "internalType": "address",
          "name": "_pair",
          "type": "address"
        }
      ],
      "name": "getTotalValue",
      "outputs": [
        {
          "internalType": "uint256",
          "name": "_value",
          "type": "uint256"
        }
      ],
      "stateMutability": "view",
      "type": "function"
    },
    {
      "inputs": [
        {
          "internalType": "address",
          "name": "_pair",
          "type": "address"
        }
      ],
      "name": "markdown",
      "outputs": [
        {
          "internalType": "uint256",
          "name": "",
          "type": "uint256"
        }
      ],
      "stateMutability": "view",
      "type": "function"
    },
    {
      "inputs": [
        {
          "internalType": "address",
          "name": "_pair",
          "type": "address"
        },
        {
          "internalType": "uint256",
          "name": "amount_",
          "type": "uint256"
        }
      ],
      "name": "valuation",
      "outputs": [
        {
          "internalType": "uint256",
          "name": "_value",
          "type": "uint256"
        }
      ],
      "stateMutability": "view",
      "type": "function"
    }
  ],
  "transactionHash": "0xdf59b8ae89e2b7272b8205c6ad06985e8f1d19642cf92d6ac306405ed7eddd2d",
  "args": [
    "0x908B40ED87FCA620B101B3Cba2B4C640D11eF016"
  ],
  "numDeployments": 1,
  "solcInputHash": "7ceb5ae9fd3327713c93b73790d65187",
  "bytecode": "0x60a060405234801561001057600080fd5b506040516110493803806110498339818101604052602081101561003357600080fd5b50516001600160a01b03811661004857600080fd5b606081901b6001600160601b0319166080526001600160a01b0316610fc5610084600039806101d1528061026f528061076a5250610fc56000f3fe608060405234801561001057600080fd5b50600436106100575760003560e01c806332da80a31461005c5780634249719f14610094578063490084ef146100c057806368637549146100e6578063f8e157ea1461010c575b600080fd5b6100826004803603602081101561007257600080fd5b50356001600160a01b0316610130565b60408051918252519081900360200190f35b610082600480360360408110156100aa57600080fd5b506001600160a01b038135169060200135610313565b610082600480360360208110156100d657600080fd5b50356001600160a01b03166103bb565b610082600480360360208110156100fc57600080fd5b50356001600160a01b0316610744565b610114610768565b604080516001600160a01b039092168252519081900360200190f35b6000806000836001600160a01b0316630902f1ac6040518163ffffffff1660e01b815260040160606040518083038186803b15801561016e57600080fd5b505afa158015610182573d6000803e3d6000fd5b505050506040513d606081101561019857600080fd5b50805160209182015160408051630dfe168160e01b815290516001600160701b0393841696509290911693506000926001600160a01b037f000000000000000000000000000000000000000000000000000000000000000081169390891692630dfe1681926004808301939192829003018186803b15801561021957600080fd5b505afa15801561022d573d6000803e3d6000fd5b505050506040513d602081101561024357600080fd5b50516001600160a01b0316141561025b57508061025e565b50815b61030861026a86610744565b6103027f00000000000000000000000000000000000000000000000000000000000000006001600160a01b031663313ce5676040518163ffffffff1660e01b815260040160206040518083038186803b1580156102c657600080fd5b505afa1580156102da573d6000803e3d6000fd5b505050506040513d60208110156102f057600080fd5b5051849060ff16600a0a60020261078c565b906107ec565b93505050505b919050565b60008061031f84610744565b90506000846001600160a01b03166318160ddd6040518163ffffffff1660e01b815260040160206040518083038186803b15801561035c57600080fd5b505afa158015610370573d6000803e3d6000fd5b505050506040513d602081101561038657600080fd5b505190506103b2670de0b6b3a76400006103026103ab6103a6888661082e565b6109a5565b859061078c565b95945050505050565b60006103f0604051806040016040528060118152602001705f7061697220616464726573733a20257360781b815250836109bd565b6000826001600160a01b0316630dfe16816040518163ffffffff1660e01b815260040160206040518083038186803b15801561042b57600080fd5b505afa15801561043f573d6000803e3d6000fd5b505050506040513d602081101561045557600080fd5b50516040805163313ce56760e01b815290516001600160a01b039092169163313ce56791600480820192602092909190829003018186803b15801561049957600080fd5b505afa1580156104ad573d6000803e3d6000fd5b505050506040513d60208110156104c357600080fd5b50516040805163d21220a760e01b8152905160ff90921692506000916001600160a01b0386169163d21220a7916004808301926020929190829003018186803b15801561050f57600080fd5b505afa158015610523573d6000803e3d6000fd5b505050506040513d602081101561053957600080fd5b50516040805163313ce56760e01b815290516001600160a01b039092169163313ce56791600480820192602092909190829003018186803b15801561057d57600080fd5b505afa158015610591573d6000803e3d6000fd5b505050506040513d60208110156105a757600080fd5b50516040805163313ce56760e01b8152905160ff9092169250600091610637916001600160a01b0388169163313ce56791600480820192602092909190829003018186803b1580156105f857600080fd5b505afa15801561060c573d6000803e3d6000fd5b505050506040513d602081101561062257600080fd5b505160ff166106318585610a78565b90610ad2565b90506106676040518060400160405280600c81526020016b646563696d616c733a20257360a01b81525082610b14565b600080866001600160a01b0316630902f1ac6040518163ffffffff1660e01b815260040160606040518083038186803b1580156106a357600080fd5b505afa1580156106b7573d6000803e3d6000fd5b505050506040513d60608110156106cd57600080fd5b50805160209182015160408051808201909152601a81527f72657365727665303a2025732c2072657365727665313a202573000000000000938101939093526001600160701b039182169450169150610727908383610bc2565b610739600a84900a610302848461078c565b979650505050505050565b6000610762600261075c610757856103bb565b610c7d565b9061078c565b92915050565b7f000000000000000000000000000000000000000000000000000000000000000081565b60008261079b57506000610762565b828202828482816107a857fe5b04146107e55760405162461bcd60e51b8152600401808060200182810382526021815260200180610f6f6021913960400191505060405180910390fd5b9392505050565b60006107e583836040518060400160405280601a81526020017f536166654d6174683a206469766973696f6e206279207a65726f000000000000815250610ce7565b610836610f36565b600082116108755760405162461bcd60e51b8152600401808060200182810382526026815260200180610f496026913960400191505060405180910390fd5b8261088f5750604080516020810190915260008152610762565b71ffffffffffffffffffffffffffffffffffff831161093657600082607085901b816108b757fe5b0490506001600160e01b03811115610916576040805162461bcd60e51b815260206004820152601e60248201527f4669786564506f696e743a3a6672616374696f6e3a206f766572666c6f770000604482015290519081900360640190fd5b6040518060200160405280826001600160e01b0316815250915050610762565b600061094784600160701b85610d89565b90506001600160e01b03811115610916576040805162461bcd60e51b815260206004820152601e60248201527f4669786564506f696e743a3a6672616374696f6e3a206f766572666c6f770000604482015290519081900360640190fd5b516612725dd1d243ab6001600160e01b039091160490565b610a7482826040516024018080602001836001600160a01b03168152602001828103825284818151815260200191508051906020019080838360005b83811015610a115781810151838201526020016109f9565b50505050905090810190601f168015610a3e5780820380516001836020036101000a031916815260200191505b5060408051601f198184030181529190526020810180516001600160e01b031663319af33360e01b1790529350610e1e92505050565b5050565b6000828201838110156107e5576040805162461bcd60e51b815260206004820152601b60248201527f536166654d6174683a206164646974696f6e206f766572666c6f770000000000604482015290519081900360640190fd5b60006107e583836040518060400160405280601e81526020017f536166654d6174683a207375627472616374696f6e206f766572666c6f770000815250610e3f565b610a7482826040516024018080602001838152602001828103825284818151815260200191508051906020019080838360005b83811015610b5f578181015183820152602001610b47565b50505050905090810190601f168015610b8c5780820380516001836020036101000a031916815260200191505b5060408051601f198184030181529190526020810180516001600160e01b03166309710a9d60e41b1790529350610e1e92505050565b610c788383836040516024018080602001848152602001838152602001828103825285818151815260200191508051906020019080838360005b83811015610c14578181015183820152602001610bfc565b50505050905090810190601f168015610c415780820380516001836020036101000a031916815260200191505b5060408051601f198184030181529190526020810180516001600160e01b031663969cdd0360e01b1790529450610e1e9350505050565b505050565b60006003821115610cd95750806000610ca1610c9a8360026107ec565b6001610a78565b90505b81811015610cd357809150610ccc610cc5610cbf85846107ec565b83610a78565b60026107ec565b9050610ca4565b5061030e565b811561030e57506001919050565b60008183610d735760405162461bcd60e51b81526004018080602001828103825283818151815260200191508051906020019080838360005b83811015610d38578181015183820152602001610d20565b50505050905090810190601f168015610d655780820380516001836020036101000a031916815260200191505b509250505060405180910390fd5b506000838581610d7f57fe5b0495945050505050565b6000806000610d988686610e99565b9150915060008480610da657fe5b868809905082811115610dba576001820391505b8083039250848210610e13576040805162461bcd60e51b815260206004820152601a60248201527f46756c6c4d6174683a3a6d756c4469763a206f766572666c6f77000000000000604482015290519081900360640190fd5b610739838387610ec6565b80516a636f6e736f6c652e6c6f67602083016000808483855afa5050505050565b60008184841115610e915760405162461bcd60e51b8152602060048201818152835160248401528351909283926044909101919085019080838360008315610d38578181015183820152602001610d20565b505050900390565b6000808060001984860990508385029250828103915082811015610ebe576001820391505b509250929050565b60008181038216808381610ed657fe5b049250808581610ee257fe5b049450808160000381610ef157fe5b60028581038087028203028087028203028087028203028087028203028087028203028087028203029586029003909402930460010193909302939093010292915050565b6040805160208101909152600081529056fe4669786564506f696e743a3a6672616374696f6e3a206469766973696f6e206279207a65726f536166654d6174683a206d756c7469706c69636174696f6e206f766572666c6f77a26469706673582212203f90277ad03b2a080bcab46bb62286ddd36b611a351c189be47dca3370d535f564736f6c63430007050033",
  "devdoc": {
    "kind": "dev",
    "methods": {},
    "version": 1
  },
  "userdoc": {
    "kind": "user",
    "methods": {},
    "version": 1
  },
  "storageLayout": {
    "storage": [],
    "types": null
  }
}