{
  "address": "0xB7f8BC63BbcaD18155201308C8f3540b07f84F5e",
  "abi": [
    {
      "inputs": [
        {
          "internalType": "address",
          "name": "_Bash",
          "type": "address"
        },
        {
          "internalType": "address",
          "name": "_DAI",
          "type": "address"
        },
        {
          "internalType": "uint32",
          "name": "_secondsNeededForQueue",
          "type": "uint32"
        }
      ],
      "stateMutability": "nonpayable",
      "type": "constructor"
    },
    {
      "anonymous": false,
      "inputs": [
        {
          "indexed": true,
          "internalType": "enum BashTreasury.MANAGING",
          "name": "managing",
          "type": "uint8"
        },
        {
          "indexed": false,
          "internalType": "address",
          "name": "activated",
          "type": "address"
        },
        {
          "indexed": false,
          "internalType": "bool",
          "name": "result",
          "type": "bool"
        }
      ],
      "name": "ChangeActivated",
      "type": "event"
    },
    {
      "anonymous": false,
      "inputs": [
        {
          "indexed": true,
          "internalType": "enum BashTreasury.MANAGING",
          "name": "managing",
          "type": "uint8"
        },
        {
          "indexed": false,
          "internalType": "address",
          "name": "queued",
          "type": "address"
        }
      ],
      "name": "ChangeQueued",
      "type": "event"
    },
    {
      "anonymous": false,
      "inputs": [
        {
          "indexed": true,
          "internalType": "address",
          "name": "debtor",
          "type": "address"
        },
        {
          "indexed": true,
          "internalType": "address",
          "name": "token",
          "type": "address"
        },
        {
          "indexed": false,
          "internalType": "uint256",
          "name": "amount",
          "type": "uint256"
        },
        {
          "indexed": false,
          "internalType": "uint256",
          "name": "value",
          "type": "uint256"
        }
      ],
      "name": "CreateDebt",
      "type": "event"
    },
    {
      "anonymous": false,
      "inputs": [
        {
          "indexed": true,
          "internalType": "address",
          "name": "token",
          "type": "address"
        },
        {
          "indexed": false,
          "internalType": "uint256",
          "name": "amount",
          "type": "uint256"
        },
        {
          "indexed": false,
          "internalType": "uint256",
          "name": "value",
          "type": "uint256"
        }
      ],
      "name": "Deposit",
      "type": "event"
    },
    {
      "anonymous": false,
      "inputs": [
        {
          "indexed": true,
          "internalType": "address",
          "name": "previousOwner",
          "type": "address"
        },
        {
          "indexed": true,
          "internalType": "address",
          "name": "newOwner",
          "type": "address"
        }
      ],
      "name": "OwnershipPulled",
      "type": "event"
    },
    {
      "anonymous": false,
      "inputs": [
        {
          "indexed": true,
          "internalType": "address",
          "name": "previousOwner",
          "type": "address"
        },
        {
          "indexed": true,
          "internalType": "address",
          "name": "newOwner",
          "type": "address"
        }
      ],
      "name": "OwnershipPushed",
      "type": "event"
    },
    {
      "anonymous": false,
      "inputs": [
        {
          "indexed": true,
          "internalType": "address",
          "name": "debtor",
          "type": "address"
        },
        {
          "indexed": true,
          "internalType": "address",
          "name": "token",
          "type": "address"
        },
        {
          "indexed": false,
          "internalType": "uint256",
          "name": "amount",
          "type": "uint256"
        },
        {
          "indexed": false,
          "internalType": "uint256",
          "name": "value",
          "type": "uint256"
        }
      ],
      "name": "RepayDebt",
      "type": "event"
    },
    {
      "anonymous": false,
      "inputs": [
        {
          "indexed": true,
          "internalType": "uint256",
          "name": "totalReserves",
          "type": "uint256"
        }
      ],
      "name": "ReservesAudited",
      "type": "event"
    },
    {
      "anonymous": false,
      "inputs": [
        {
          "indexed": true,
          "internalType": "address",
          "name": "token",
          "type": "address"
        },
        {
          "indexed": false,
          "internalType": "uint256",
          "name": "amount",
          "type": "uint256"
        }
      ],
      "name": "ReservesManaged",
      "type": "event"
    },
    {
      "anonymous": false,
      "inputs": [
        {
          "indexed": true,
          "internalType": "uint256",
          "name": "totalReserves",
          "type": "uint256"
        }
      ],
      "name": "ReservesUpdated",
      "type": "event"
    },
    {
      "anonymous": false,
      "inputs": [
        {
          "indexed": true,
          "internalType": "address",
          "name": "caller",
          "type": "address"
        },
        {
          "indexed": true,
          "internalType": "address",
          "name": "recipient",
          "type": "address"
        },
        {
          "indexed": false,
          "internalType": "uint256",
          "name": "amount",
          "type": "uint256"
        }
      ],
      "name": "RewardsMinted",
      "type": "event"
    },
    {
      "anonymous": false,
      "inputs": [
        {
          "indexed": true,
          "internalType": "address",
          "name": "token",
          "type": "address"
        },
        {
          "indexed": false,
          "internalType": "uint256",
          "name": "amount",
          "type": "uint256"
        },
        {
          "indexed": false,
          "internalType": "uint256",
          "name": "value",
          "type": "uint256"
        }
      ],
      "name": "Withdrawal",
      "type": "event"
    },
    {
      "inputs": [],
      "name": "Bash",
      "outputs": [
        {
          "internalType": "address",
          "name": "",
          "type": "address"
        }
      ],
      "stateMutability": "view",
      "type": "function"
    },
    {
      "inputs": [
        {
          "internalType": "address",
          "name": "",
          "type": "address"
        }
      ],
      "name": "LiquidityDepositorQueue",
      "outputs": [
        {
          "internalType": "uint32",
          "name": "",
          "type": "uint32"
        }
      ],
      "stateMutability": "view",
      "type": "function"
    },
    {
      "inputs": [
        {
          "internalType": "address",
          "name": "",
          "type": "address"
        }
      ],
      "name": "LiquidityManagerQueue",
      "outputs": [
        {
          "internalType": "uint32",
          "name": "",
          "type": "uint32"
        }
      ],
      "stateMutability": "view",
      "type": "function"
    },
    {
      "inputs": [
        {
          "internalType": "address",
          "name": "",
          "type": "address"
        }
      ],
      "name": "LiquidityTokenQueue",
      "outputs": [
        {
          "internalType": "uint32",
          "name": "",
          "type": "uint32"
        }
      ],
      "stateMutability": "view",
      "type": "function"
    },
    {
      "inputs": [],
      "name": "MEMOries",
      "outputs": [
        {
          "internalType": "address",
          "name": "",
          "type": "address"
        }
      ],
      "stateMutability": "view",
      "type": "function"
    },
    {
      "inputs": [
        {
          "internalType": "address",
          "name": "",
          "type": "address"
        }
      ],
      "name": "ReserveManagerQueue",
      "outputs": [
        {
          "internalType": "uint32",
          "name": "",
          "type": "uint32"
        }
      ],
      "stateMutability": "view",
      "type": "function"
    },
    {
      "inputs": [],
      "name": "auditReserves",
      "outputs": [],
      "stateMutability": "nonpayable",
      "type": "function"
    },
    {
      "inputs": [
        {
          "internalType": "address",
          "name": "",
          "type": "address"
        }
      ],
      "name": "bondCalculator",
      "outputs": [
        {
          "internalType": "address",
          "name": "",
          "type": "address"
        }
      ],
      "stateMutability": "view",
      "type": "function"
    },
    {
      "inputs": [
        {
          "internalType": "address",
          "name": "",
          "type": "address"
        }
      ],
      "name": "debtorBalance",
      "outputs": [
        {
          "internalType": "uint256",
          "name": "",
          "type": "uint256"
        }
      ],
      "stateMutability": "view",
      "type": "function"
    },
    {
      "inputs": [
        {
          "internalType": "address",
          "name": "",
          "type": "address"
        }
      ],
      "name": "debtorQueue",
      "outputs": [
        {
          "internalType": "uint32",
          "name": "",
          "type": "uint32"
        }
      ],
      "stateMutability": "view",
      "type": "function"
    },
    {
      "inputs": [
        {
          "internalType": "uint256",
          "name": "",
          "type": "uint256"
        }
      ],
      "name": "debtors",
      "outputs": [
        {
          "internalType": "address",
          "name": "",
          "type": "address"
        }
      ],
      "stateMutability": "view",
      "type": "function"
    },
    {
      "inputs": [
        {
          "internalType": "uint256",
          "name": "_amount",
          "type": "uint256"
        },
        {
          "internalType": "address",
          "name": "_token",
          "type": "address"
        },
        {
          "internalType": "uint256",
          "name": "_profit",
          "type": "uint256"
        }
      ],
      "name": "deposit",
      "outputs": [
        {
          "internalType": "uint256",
          "name": "send_",
          "type": "uint256"
        }
      ],
      "stateMutability": "nonpayable",
      "type": "function"
    },
    {
      "inputs": [],
      "name": "excessReserves",
      "outputs": [
        {
          "internalType": "uint256",
          "name": "",
          "type": "uint256"
        }
      ],
      "stateMutability": "view",
      "type": "function"
    },
    {
      "inputs": [
        {
          "internalType": "uint256",
          "name": "_amount",
          "type": "uint256"
        },
        {
          "internalType": "address",
          "name": "_token",
          "type": "address"
        }
      ],
      "name": "incurDebt",
      "outputs": [],
      "stateMutability": "nonpayable",
      "type": "function"
    },
    {
      "inputs": [
        {
          "internalType": "address",
          "name": "",
          "type": "address"
        }
      ],
      "name": "isDebtor",
      "outputs": [
        {
          "internalType": "bool",
          "name": "",
          "type": "bool"
        }
      ],
      "stateMutability": "view",
      "type": "function"
    },
    {
      "inputs": [
        {
          "internalType": "address",
          "name": "",
          "type": "address"
        }
      ],
      "name": "isLiquidityDepositor",
      "outputs": [
        {
          "internalType": "bool",
          "name": "",
          "type": "bool"
        }
      ],
      "stateMutability": "view",
      "type": "function"
    },
    {
      "inputs": [
        {
          "internalType": "address",
          "name": "",
          "type": "address"
        }
      ],
      "name": "isLiquidityManager",
      "outputs": [
        {
          "internalType": "bool",
          "name": "",
          "type": "bool"
        }
      ],
      "stateMutability": "view",
      "type": "function"
    },
    {
      "inputs": [
        {
          "internalType": "address",
          "name": "",
          "type": "address"
        }
      ],
      "name": "isLiquidityToken",
      "outputs": [
        {
          "internalType": "bool",
          "name": "",
          "type": "bool"
        }
      ],
      "stateMutability": "view",
      "type": "function"
    },
    {
      "inputs": [
        {
          "internalType": "address",
          "name": "",
          "type": "address"
        }
      ],
      "name": "isReserveDepositor",
      "outputs": [
        {
          "internalType": "bool",
          "name": "",
          "type": "bool"
        }
      ],
      "stateMutability": "view",
      "type": "function"
    },
    {
      "inputs": [
        {
          "internalType": "address",
          "name": "",
          "type": "address"
        }
      ],
      "name": "isReserveManager",
      "outputs": [
        {
          "internalType": "bool",
          "name": "",
          "type": "bool"
        }
      ],
      "stateMutability": "view",
      "type": "function"
    },
    {
      "inputs": [
        {
          "internalType": "address",
          "name": "",
          "type": "address"
        }
      ],
      "name": "isReserveSpender",
      "outputs": [
        {
          "internalType": "bool",
          "name": "",
          "type": "bool"
        }
      ],
      "stateMutability": "view",
      "type": "function"
    },
    {
      "inputs": [
        {
          "internalType": "address",
          "name": "",
          "type": "address"
        }
      ],
      "name": "isReserveToken",
      "outputs": [
        {
          "internalType": "bool",
          "name": "",
          "type": "bool"
        }
      ],
      "stateMutability": "view",
      "type": "function"
    },
    {
      "inputs": [
        {
          "internalType": "address",
          "name": "",
          "type": "address"
        }
      ],
      "name": "isRewardManager",
      "outputs": [
        {
          "internalType": "bool",
          "name": "",
          "type": "bool"
        }
      ],
      "stateMutability": "view",
      "type": "function"
    },
    {
      "inputs": [
        {
          "internalType": "uint256",
          "name": "",
          "type": "uint256"
        }
      ],
      "name": "liquidityDepositors",
      "outputs": [
        {
          "internalType": "address",
          "name": "",
          "type": "address"
        }
      ],
      "stateMutability": "view",
      "type": "function"
    },
    {
      "inputs": [
        {
          "internalType": "uint256",
          "name": "",
          "type": "uint256"
        }
      ],
      "name": "liquidityManagers",
      "outputs": [
        {
          "internalType": "address",
          "name": "",
          "type": "address"
        }
      ],
      "stateMutability": "view",
      "type": "function"
    },
    {
      "inputs": [
        {
          "internalType": "uint256",
          "name": "",
          "type": "uint256"
        }
      ],
      "name": "liquidityTokens",
      "outputs": [
        {
          "internalType": "address",
          "name": "",
          "type": "address"
        }
      ],
      "stateMutability": "view",
      "type": "function"
    },
    {
      "inputs": [
        {
          "internalType": "address",
          "name": "_token",
          "type": "address"
        },
        {
          "internalType": "uint256",
          "name": "_amount",
          "type": "uint256"
        }
      ],
      "name": "manage",
      "outputs": [],
      "stateMutability": "nonpayable",
      "type": "function"
    },
    {
      "inputs": [],
      "name": "manager",
      "outputs": [
        {
          "internalType": "address",
          "name": "",
          "type": "address"
        }
      ],
      "stateMutability": "view",
      "type": "function"
    },
    {
      "inputs": [
        {
          "internalType": "address",
          "name": "_recipient",
          "type": "address"
        },
        {
          "internalType": "uint256",
          "name": "_amount",
          "type": "uint256"
        }
      ],
      "name": "mintRewards",
      "outputs": [],
      "stateMutability": "nonpayable",
      "type": "function"
    },
    {
      "inputs": [],
      "name": "pullManagement",
      "outputs": [],
      "stateMutability": "nonpayable",
      "type": "function"
    },
    {
      "inputs": [
        {
          "internalType": "address",
          "name": "newOwner_",
          "type": "address"
        }
      ],
      "name": "pushManagement",
      "outputs": [],
      "stateMutability": "nonpayable",
      "type": "function"
    },
    {
      "inputs": [
        {
          "internalType": "enum BashTreasury.MANAGING",
          "name": "_managing",
          "type": "uint8"
        },
        {
          "internalType": "address",
          "name": "_address",
          "type": "address"
        }
      ],
      "name": "queue",
      "outputs": [
        {
          "internalType": "bool",
          "name": "",
          "type": "bool"
        }
      ],
      "stateMutability": "nonpayable",
      "type": "function"
    },
    {
      "inputs": [],
      "name": "renounceManagement",
      "outputs": [],
      "stateMutability": "nonpayable",
      "type": "function"
    },
    {
      "inputs": [
        {
          "internalType": "uint256",
          "name": "_amount",
          "type": "uint256"
        }
      ],
      "name": "repayDebtWithOHM",
      "outputs": [],
      "stateMutability": "nonpayable",
      "type": "function"
    },
    {
      "inputs": [
        {
          "internalType": "uint256",
          "name": "_amount",
          "type": "uint256"
        },
        {
          "internalType": "address",
          "name": "_token",
          "type": "address"
        }
      ],
      "name": "repayDebtWithReserve",
      "outputs": [],
      "stateMutability": "nonpayable",
      "type": "function"
    },
    {
      "inputs": [
        {
          "internalType": "address",
          "name": "",
          "type": "address"
        }
      ],
      "name": "reserveDepositorQueue",
      "outputs": [
        {
          "internalType": "uint32",
          "name": "",
          "type": "uint32"
        }
      ],
      "stateMutability": "view",
      "type": "function"
    },
    {
      "inputs": [
        {
          "internalType": "uint256",
          "name": "",
          "type": "uint256"
        }
      ],
      "name": "reserveDepositors",
      "outputs": [
        {
          "internalType": "address",
          "name": "",
          "type": "address"
        }
      ],
      "stateMutability": "view",
      "type": "function"
    },
    {
      "inputs": [
        {
          "internalType": "uint256",
          "name": "",
          "type": "uint256"
        }
      ],
      "name": "reserveManagers",
      "outputs": [
        {
          "internalType": "address",
          "name": "",
          "type": "address"
        }
      ],
      "stateMutability": "view",
      "type": "function"
    },
    {
      "inputs": [
        {
          "internalType": "address",
          "name": "",
          "type": "address"
        }
      ],
      "name": "reserveSpenderQueue",
      "outputs": [
        {
          "internalType": "uint32",
          "name": "",
          "type": "uint32"
        }
      ],
      "stateMutability": "view",
      "type": "function"
    },
    {
      "inputs": [
        {
          "internalType": "uint256",
          "name": "",
          "type": "uint256"
        }
      ],
      "name": "reserveSpenders",
      "outputs": [
        {
          "internalType": "address",
          "name": "",
          "type": "address"
        }
      ],
      "stateMutability": "view",
      "type": "function"
    },
    {
      "inputs": [
        {
          "internalType": "address",
          "name": "",
          "type": "address"
        }
      ],
      "name": "reserveTokenQueue",
      "outputs": [
        {
          "internalType": "uint32",
          "name": "",
          "type": "uint32"
        }
      ],
      "stateMutability": "view",
      "type": "function"
    },
    {
      "inputs": [
        {
          "internalType": "uint256",
          "name": "",
          "type": "uint256"
        }
      ],
      "name": "reserveTokens",
      "outputs": [
        {
          "internalType": "address",
          "name": "",
          "type": "address"
        }
      ],
      "stateMutability": "view",
      "type": "function"
    },
    {
      "inputs": [
        {
          "internalType": "address",
          "name": "",
          "type": "address"
        }
      ],
      "name": "rewardManagerQueue",
      "outputs": [
        {
          "internalType": "uint32",
          "name": "",
          "type": "uint32"
        }
      ],
      "stateMutability": "view",
      "type": "function"
    },
    {
      "inputs": [
        {
          "internalType": "uint256",
          "name": "",
          "type": "uint256"
        }
      ],
      "name": "rewardManagers",
      "outputs": [
        {
          "internalType": "address",
          "name": "",
          "type": "address"
        }
      ],
      "stateMutability": "view",
      "type": "function"
    },
    {
      "inputs": [],
      "name": "sOHMQueue",
      "outputs": [
        {
          "internalType": "uint256",
          "name": "",
          "type": "uint256"
        }
      ],
      "stateMutability": "view",
      "type": "function"
    },
    {
      "inputs": [],
      "name": "secondsNeededForQueue",
      "outputs": [
        {
          "internalType": "uint32",
          "name": "",
          "type": "uint32"
        }
      ],
      "stateMutability": "view",
      "type": "function"
    },
    {
      "inputs": [
        {
          "internalType": "enum BashTreasury.MANAGING",
          "name": "_managing",
          "type": "uint8"
        },
        {
          "internalType": "address",
          "name": "_address",
          "type": "address"
        },
        {
          "internalType": "address",
          "name": "_calculator",
          "type": "address"
        }
      ],
      "name": "toggle",
      "outputs": [
        {
          "internalType": "bool",
          "name": "",
          "type": "bool"
        }
      ],
      "stateMutability": "nonpayable",
      "type": "function"
    },
    {
      "inputs": [],
      "name": "totalDebt",
      "outputs": [
        {
          "internalType": "uint256",
          "name": "",
          "type": "uint256"
        }
      ],
      "stateMutability": "view",
      "type": "function"
    },
    {
      "inputs": [],
      "name": "totalReserves",
      "outputs": [
        {
          "internalType": "uint256",
          "name": "",
          "type": "uint256"
        }
      ],
      "stateMutability": "view",
      "type": "function"
    },
    {
      "inputs": [
        {
          "internalType": "address",
          "name": "_token",
          "type": "address"
        },
        {
          "internalType": "uint256",
          "name": "_amount",
          "type": "uint256"
        }
      ],
      "name": "valueOf",
      "outputs": [
        {
          "internalType": "uint256",
          "name": "value_",
          "type": "uint256"
        }
      ],
      "stateMutability": "view",
      "type": "function"
    },
    {
      "inputs": [
        {
          "internalType": "uint256",
          "name": "_amount",
          "type": "uint256"
        },
        {
          "internalType": "address",
          "name": "_token",
          "type": "address"
        }
      ],
      "name": "withdraw",
      "outputs": [],
      "stateMutability": "nonpayable",
      "type": "function"
    }
  ],
  "transactionHash": "0xbbef18075abe22b7a2f19b76d2ac3fce73e18953e39123aad3e72cff114f7b03",
  "args": [
    "0xe7f1725E7734CE288F8367e1Bb143E90bb3F0512",
    "0xDc64a140Aa3E981100a9becA4E685f962f0cF6C9",
    0
  ],
  "numDeployments": 1,
  "solcInputHash": "936a91e7072f6d97f513a5c4d8b391e6",
  "bytecode": "0x60c060405234801561001057600080fd5b5060405162003adf38038062003adf8339818101604052606081101561003557600080fd5b5080516020820151604092830151600080546001600160a01b031916331780825594519394929391926001600160a01b0316917fea8258f2d9ddb679928cf34b78cf645b7feda9acc828e4dd82d014eaae270eba908290a36001600160a01b0383166100a057600080fd5b6001600160601b0319606084901b166080526001600160a01b039182166000818152600360205260408120805460ff1916600190811790915560028054918201815582527f405787fa12a823e0f2b7631cc41b3ba8828b3321ca811111fa75cd3aa3bb5ace0180546001600160a01b0319169092179091556001600160e01b031960e083901b1660a052919092169163ffffffff169061393690620001a9903980611a8a52806120b4528061213152806121ae528061222a52806122bc528061233952806123b5528061243752806124b45280612531525080610a4e5280610df05280610f015280610fb552806113b652806116c5528061197f5280611d5752506139366000f3fe608060405234801561001057600080fd5b50600436106102f05760003560e01c80637a8960d81161019d578063c24ad43e116100e9578063ebd83cd8116100a2578063fbfd393b1161007c578063fbfd393b14610908578063fc7b9c181461093f578063fd1ec01014610947578063fff9ee8714610964576102f0565b8063ebd83cd814610896578063ee4e19a1146108bc578063fb939588146108e2576102f0565b8063c24ad43e146107ac578063cd85641a146107d2578063d031370b146107f8578063d796ffb814610815578063df89b34414610841578063e83afee314610867576102f0565b8063932cc8c311610156578063ab319c9a11610130578063ab319c9a14610711578063b1bd38b014610737578063b5b1d5601461075d578063bc157ac11461077a576102f0565b8063932cc8c31461069f578063a1210a2d146106c5578063a569e571146106eb576102f0565b80637a8960d814610609578063869871bf1461061157806387d67dff1461062e5780638f59c727146106545780638f6a7b571461067a5780638f840ddd14610697576102f0565b80632b7ce5001161025c5780634e83423c116102155780636a20de92116101ef5780636a20de92146105645780636b5e40a71461059057806370a0502a146105ad578063788c6c01146105ca576102f0565b80634e83423c146105105780635a96ac0a1461053657806368c31dd51461053e576102f0565b80632b7ce500146104ad5780633c4e6da7146104b5578063437f7912146104bd57806346f68ee9146104da578063481c6a751461050057806349880e5214610508576102f0565b80630f70431f116102ae5780630f70431f146103d0578063124154ca146103ed57806312422d23146104275780631af4da70146104535780631eec5a9a146104795780632789de37146104a5576102f0565b8062f714ce146102f55780630619aff114610323578063089208d81461035c578063094a8651146103645780630b0eee301461039c5780630c3513a8146103c8575b600080fd5b6103216004803603604081101561030b57600080fd5b50803590602001356001600160a01b031661098a565b005b6103406004803603602081101561033957600080fd5b5035610b61565b604080516001600160a01b039092168252519081900360200190f35b610321610b8b565b61038a6004803603602081101561037a57600080fd5b50356001600160a01b0316610c22565b60408051918252519081900360200190f35b610321600480360360408110156103b257600080fd5b506001600160a01b038135169060200135610c34565b61038a610de3565b610321600480360360208110156103e657600080fd5b5035610e87565b6104136004803603602081101561040357600080fd5b50356001600160a01b0316611006565b604080519115158252519081900360200190f35b6103216004803603604081101561043d57600080fd5b50803590602001356001600160a01b031661101b565b6103406004803603602081101561046957600080fd5b50356001600160a01b03166112eb565b61038a6004803603604081101561048f57600080fd5b506001600160a01b038135169060200135611306565b61038a6114fa565b610321611500565b6103406116c3565b610340600480360360208110156104d357600080fd5b50356116e7565b610321600480360360208110156104f057600080fd5b50356001600160a01b03166116f7565b6103406117e4565b6103406117f3565b6104136004803603602081101561052657600080fd5b50356001600160a01b0316611802565b610321611817565b6104136004803603602081101561055457600080fd5b50356001600160a01b03166118c1565b6103216004803603604081101561057a57600080fd5b506001600160a01b0381351690602001356118d6565b610340600480360360208110156105a657600080fd5b5035611a50565b610340600480360360208110156105c357600080fd5b5035611a60565b6105f0600480360360208110156105e057600080fd5b50356001600160a01b0316611a70565b6040805163ffffffff9092168252519081900360200190f35b6105f0611a88565b6103406004803603602081101561062757600080fd5b5035611aac565b6104136004803603602081101561064457600080fd5b50356001600160a01b0316611abc565b6105f06004803603602081101561066a57600080fd5b50356001600160a01b0316611ad1565b6103406004803603602081101561069057600080fd5b5035611ae9565b61038a611af9565b6105f0600480360360208110156106b557600080fd5b50356001600160a01b0316611aff565b610413600480360360208110156106db57600080fd5b50356001600160a01b0316611b17565b6104136004803603602081101561070157600080fd5b50356001600160a01b0316611b2c565b6105f06004803603602081101561072757600080fd5b50356001600160a01b0316611b41565b6105f06004803603602081101561074d57600080fd5b50356001600160a01b0316611b59565b6103406004803603602081101561077357600080fd5b5035611b71565b61038a6004803603606081101561079057600080fd5b508035906001600160a01b036020820135169060400135611b81565b6105f0600480360360208110156107c257600080fd5b50356001600160a01b0316611e59565b6105f0600480360360208110156107e857600080fd5b50356001600160a01b0316611e71565b6103406004803603602081101561080e57600080fd5b5035611e89565b6103216004803603604081101561082b57600080fd5b50803590602001356001600160a01b0316611e99565b6104136004803603602081101561085757600080fd5b50356001600160a01b031661201c565b6104136004803603604081101561087d57600080fd5b50803560ff1690602001356001600160a01b0316612031565b610413600480360360208110156108ac57600080fd5b50356001600160a01b03166125be565b610413600480360360208110156108d257600080fd5b50356001600160a01b03166125d3565b6105f0600480360360208110156108f857600080fd5b50356001600160a01b03166125e8565b6104136004803603606081101561091e57600080fd5b5060ff813516906001600160a01b0360208201358116916040013516612600565b61038a612f16565b6103406004803603602081101561095d57600080fd5b5035612f1c565b6105f06004803603602081101561097a57600080fd5b50356001600160a01b0316612f2c565b6001600160a01b03811660009081526003602052604090205460ff166109e6576040805162461bcd60e51b815260206004820152600c60248201526b139bdd081858d8d95c1d195960a21b604482015290519081900360640190fd5b3360009081526009602052604090205460ff161515600114610a3e576040805162461bcd60e51b815260206004820152600c60248201526b139bdd08185c1c1c9bdd995960a21b604482015290519081900360640190fd5b6000610a4a8284611306565b90507f00000000000000000000000000000000000000000000000000000000000000006001600160a01b03166379cc679033836040518363ffffffff1660e01b815260040180836001600160a01b0316815260200182815260200192505050600060405180830381600087803b158015610ac357600080fd5b505af1158015610ad7573d6000803e3d6000fd5b5050602154610ae99250905082612f44565b60218190556040516000805160206138b783398151915290600090a2610b196001600160a01b0383163385612f86565b604080518481526020810183905281516001600160a01b038516927fdf273cb619d95419a9cd0ec88123a0538c85064229baa6363788f743fff90deb928290030190a2505050565b60128181548110610b7157600080fd5b6000918252602090912001546001600160a01b0316905081565b6000546001600160a01b03163314610bd8576040805162461bcd60e51b81526020600482018190526024820152600080516020613897833981519152604482015290519081900360640190fd5b600080546040516001600160a01b03909116907fea8258f2d9ddb679928cf34b78cf645b7feda9acc828e4dd82d014eaae270eba908390a3600080546001600160a01b0319169055565b601b6020526000908152604090205481565b6001600160a01b0382166000908152600c602052604090205460ff1615610cad573360009081526016602052604090205460ff16610ca8576040805162461bcd60e51b815260206004820152600c60248201526b139bdd08185c1c1c9bdd995960a21b604482015290519081900360640190fd5b610d00565b3360009081526013602052604090205460ff16610d00576040805162461bcd60e51b815260206004820152600c60248201526b139bdd08185c1c1c9bdd995960a21b604482015290519081900360640190fd5b6000610d0c8383611306565b9050610d16610de3565b811115610d62576040805162461bcd60e51b8152602060048201526015602482015274496e73756666696369656e7420726573657276657360581b604482015290519081900360640190fd5b602154610d6f9082612f44565b60218190556040516000805160206138b783398151915290600090a2610d9f6001600160a01b0384163384612f86565b6040805183815290516001600160a01b038516917f2bb2640731848fe9820ba48dbc978c1fc9bbd5f11b948bfab05b7dee3378fd80919081900360200190a2505050565b6000610e82610e796022547f00000000000000000000000000000000000000000000000000000000000000006001600160a01b03166318160ddd6040518163ffffffff1660e01b815260040160206040518083038186803b158015610e4757600080fd5b505afa158015610e5b573d6000803e3d6000fd5b505050506040513d6020811015610e7157600080fd5b505190612f44565b60215490612f44565b905090565b3360009081526019602052604090205460ff16610eda576040805162461bcd60e51b815260206004820152600c60248201526b139bdd08185c1c1c9bdd995960a21b604482015290519081900360640190fd5b6040805163079cc67960e41b81523360048201526024810183905290516001600160a01b037f000000000000000000000000000000000000000000000000000000000000000016916379cc679091604480830192600092919082900301818387803b158015610f4857600080fd5b505af1158015610f5c573d6000803e3d6000fd5b5050336000908152601b6020526040902054610f7b9250905082612f44565b336000908152601b6020526040902055602254610f989082612f44565b602255604080518281526020810183905281516001600160a01b037f0000000000000000000000000000000000000000000000000000000000000000169233927fc6d98eecfc9c78ab62c89a82950079b54874749f1f6f24090f7acc758bc2f309929081900390910190a350565b60066020526000908152604090205460ff1681565b3360009081526019602052604090205460ff1661106e576040805162461bcd60e51b815260206004820152600c60248201526b139bdd08185c1c1c9bdd995960a21b604482015290519081900360640190fd5b6001600160a01b03811660009081526003602052604090205460ff166110ca576040805162461bcd60e51b815260206004820152600c60248201526b139bdd081858d8d95c1d195960a21b604482015290519081900360640190fd5b60006110d68284611306565b601f54604080516370a0823160e01b815233600482015290519293506000926001600160a01b03909216916370a0823191602480820192602092909190829003018186803b15801561112757600080fd5b505afa15801561113b573d6000803e3d6000fd5b505050506040513d602081101561115157600080fd5b5051336000908152601b602052604081205491925090611172908390612f44565b9050808311156111be576040805162461bcd60e51b8152602060048201526012602482015271115e18d959591cc81919589d081b1a5b5a5d60721b604482015290519081900360640190fd5b336000908152601b60205260409020546111d89084612fdd565b336000908152601b60205260409020556022546111f59084612fdd565b6022556021546112059084612f44565b60218190556040516000805160206138b783398151915290600090a26040805163a9059cbb60e01b81523360048201526024810187905290516001600160a01b0386169163a9059cbb9160448083019260209291908290030181600087803b15801561127057600080fd5b505af1158015611284573d6000803e3d6000fd5b505050506040513d602081101561129a57600080fd5b5050604080518681526020810185905281516001600160a01b0387169233927f7e1a939bed137a819b5d2979822c67f877689f7a863d5e4cb57cdca97b2977d6929081900390910190a35050505050565b6011602052600090815260409020546001600160a01b031681565b6001600160a01b03821660009081526003602052604081205460ff16156114435761143c836001600160a01b031663313ce5676040518163ffffffff1660e01b815260040160206040518083038186803b15801561136357600080fd5b505afa158015611377573d6000803e3d6000fd5b505050506040513d602081101561138d57600080fd5b50516040805163313ce56760e01b8152905160ff909216600a0a91611436916001600160a01b037f0000000000000000000000000000000000000000000000000000000000000000169163313ce56791600480820192602092909190829003018186803b1580156113fd57600080fd5b505afa158015611411573d6000803e3d6000fd5b505050506040513d602081101561142757600080fd5b5051859060ff16600a0a613037565b90613090565b90506114f4565b6001600160a01b0383166000908152600c602052604090205460ff16156114f4576001600160a01b03808416600081815260116020908152604091829020548251634249719f60e01b815260048101949094526024840187905291519190931692634249719f9260448082019391829003018186803b1580156114c557600080fd5b505afa1580156114d9573d6000803e3d6000fd5b505050506040513d60208110156114ef57600080fd5b505190505b92915050565b60205481565b6000546001600160a01b0316331461154d576040805162461bcd60e51b81526020600482018190526024820152600080516020613897833981519152604482015290519081900360640190fd5b6000805b6002548110156116255761161b6116146002838154811061156e57fe5b600091825260209091200154600280546001600160a01b03909216918590811061159457fe5b60009182526020918290200154604080516370a0823160e01b815230600482015290516001600160a01b03909216926370a0823192602480840193829003018186803b1580156115e357600080fd5b505afa1580156115f7573d6000803e3d6000fd5b505050506040513d602081101561160d57600080fd5b5051611306565b8390612fdd565b9150600101611551565b5060005b600b548110156116765761166c611614600b838154811061164657fe5b600091825260209091200154600b80546001600160a01b03909216918590811061159457fe5b9150600101611629565b50602181905560405181906000805160206138b783398151915290600090a260405181907fec691f09f6924b27932253f85caf99bacc30360cc0e50a1cc4d2acc24601446690600090a250565b7f000000000000000000000000000000000000000000000000000000000000000081565b60088181548110610b7157600080fd5b6000546001600160a01b03163314611744576040805162461bcd60e51b81526020600482018190526024820152600080516020613897833981519152604482015290519081900360640190fd5b6001600160a01b0381166117895760405162461bcd60e51b815260040180806020018281038252602681526020018061382e6026913960400191505060405180910390fd5b600080546040516001600160a01b03808516939216917fea8258f2d9ddb679928cf34b78cf645b7feda9acc828e4dd82d014eaae270eba91a3600180546001600160a01b0319166001600160a01b0392909216919091179055565b6000546001600160a01b031690565b601f546001600160a01b031681565b601d6020526000908152604090205460ff1681565b6001546001600160a01b031633146118605760405162461bcd60e51b81526004018080602001828103825260228152602001806138546022913960400191505060405180910390fd5b600154600080546040516001600160a01b0393841693909116917faa151555690c956fc3ea32f106bb9f119b5237a061eaa8557cff3e51e3792c8d91a3600154600080546001600160a01b0319166001600160a01b03909216919091179055565b60036020526000908152604090205460ff1681565b336000908152601d602052604090205460ff16611929576040805162461bcd60e51b815260206004820152600c60248201526b139bdd08185c1c1c9bdd995960a21b604482015290519081900360640190fd5b611931610de3565b81111561197d576040805162461bcd60e51b8152602060048201526015602482015274496e73756666696369656e7420726573657276657360581b604482015290519081900360640190fd5b7f00000000000000000000000000000000000000000000000000000000000000006001600160a01b03166340c10f1983836040518363ffffffff1660e01b815260040180836001600160a01b0316815260200182815260200192505050600060405180830381600087803b1580156119f457600080fd5b505af1158015611a08573d6000803e3d6000fd5b50506040805184815290516001600160a01b03861693503392507ffa8ccab40e7da8146c2304cd0950334fd30a6ba093abe86261aa13911fed849c9181900360200190a35050565b60058181548110610b7157600080fd5b60158181548110610b7157600080fd5b60046020526000908152604090205463ffffffff1681565b7f000000000000000000000000000000000000000000000000000000000000000081565b60188181548110610b7157600080fd5b60096020526000908152604090205460ff1681565b600d6020526000908152604090205463ffffffff1681565b600e8181548110610b7157600080fd5b60215481565b60076020526000908152604090205463ffffffff1681565b600f6020526000908152604090205460ff1681565b600c6020526000908152604090205460ff1681565b60176020526000908152604090205463ffffffff1681565b60146020526000908152604090205463ffffffff1681565b601c8181548110610b7157600080fd5b6001600160a01b03821660009081526003602052604081205460ff1680611bc057506001600160a01b0383166000908152600c602052604090205460ff165b611c00576040805162461bcd60e51b815260206004820152600c60248201526b139bdd081858d8d95c1d195960a21b604482015290519081900360640190fd5b611c2e6040518060400160405280600a81526020016925732c2025732c20257360b01b8152503330876130d2565b611c436001600160a01b0384163330876131a8565b6001600160a01b03831660009081526003602052604090205460ff1615611cbc573360009081526006602052604090205460ff16611cb7576040805162461bcd60e51b815260206004820152600c60248201526b139bdd08185c1c1c9bdd995960a21b604482015290519081900360640190fd5b611d0f565b336000908152600f602052604090205460ff16611d0f576040805162461bcd60e51b815260206004820152600c60248201526b139bdd08185c1c1c9bdd995960a21b604482015290519081900360640190fd5b6000611d1b8486611306565b9050611d496040518060400160405280600981526020016825732073756220257360b81b8152508285613202565b611d538184612f44565b91507f00000000000000000000000000000000000000000000000000000000000000006001600160a01b03166340c10f1933846040518363ffffffff1660e01b815260040180836001600160a01b0316815260200182815260200192505050600060405180830381600087803b158015611dcc57600080fd5b505af1158015611de0573d6000803e3d6000fd5b5050602154611df29250905082612fdd565b60218190556040516000805160206138b783398151915290600090a2604080518681526020810183905281516001600160a01b038716927f90890809c654f11d6e72a28fa60149770a0d11ec6c92319d6ceb2bb0a4ea1a15928290030190a2509392505050565b600a6020526000908152604090205463ffffffff1681565b601a6020526000908152604090205463ffffffff1681565b60028181548110610b7157600080fd5b3360009081526019602052604090205460ff16611eec576040805162461bcd60e51b815260206004820152600c60248201526b139bdd08185c1c1c9bdd995960a21b604482015290519081900360640190fd5b6001600160a01b03811660009081526003602052604090205460ff16611f48576040805162461bcd60e51b815260206004820152600c60248201526b139bdd081858d8d95c1d195960a21b604482015290519081900360640190fd5b611f5d6001600160a01b0382163330856131a8565b6000611f698284611306565b336000908152601b6020526040902054909150611f869082612f44565b336000908152601b6020526040902055602254611fa39082612f44565b602255602154611fb39082612fdd565b60218190556040516000805160206138b783398151915290600090a2604080518481526020810183905281516001600160a01b0385169233927fc6d98eecfc9c78ab62c89a82950079b54874749f1f6f24090f7acc758bc2f309929081900390910190a3505050565b60166020526000908152604090205460ff1681565b600080546001600160a01b0316331461207f576040805162461bcd60e51b81526020600482018190526024820152600080516020613897833981519152604482015290519081900360640190fd5b6001600160a01b03821661209257600080fd5b60008360098111156120a057fe5b141561210f576120da63ffffffff428116907f0000000000000000000000000000000000000000000000000000000000000000906132b816565b6001600160a01b0383166000908152600760205260409020805463ffffffff191663ffffffff9290921691909117905561256d565b600183600981111561211d57fe5b141561218c5761215763ffffffff428116907f0000000000000000000000000000000000000000000000000000000000000000906132b816565b6001600160a01b0383166000908152600a60205260409020805463ffffffff191663ffffffff9290921691909117905561256d565b600283600981111561219a57fe5b1415612209576121d463ffffffff428116907f0000000000000000000000000000000000000000000000000000000000000000906132b816565b6001600160a01b0383166000908152600460205260409020805463ffffffff191663ffffffff9290921691909117905561256d565b600383600981111561221757fe5b141561229a5761226561225563ffffffff7f000000000000000000000000000000000000000000000000000000000000000081169060029061331b16565b63ffffffff42811691906132b816565b6001600160a01b0383166000908152601460205260409020805463ffffffff191663ffffffff9290921691909117905561256d565b60048360098111156122a857fe5b1415612317576122e263ffffffff428116907f0000000000000000000000000000000000000000000000000000000000000000906132b816565b6001600160a01b0383166000908152601060205260409020805463ffffffff191663ffffffff9290921691909117905561256d565b600583600981111561232557fe5b14156123945761235f63ffffffff428116907f0000000000000000000000000000000000000000000000000000000000000000906132b816565b6001600160a01b0383166000908152600d60205260409020805463ffffffff191663ffffffff9290921691909117905561256d565b60068360098111156123a257fe5b1415612415576123e061225563ffffffff7f000000000000000000000000000000000000000000000000000000000000000081169060029061331b16565b6001600160a01b0383166000908152601760205260409020805463ffffffff191663ffffffff9290921691909117905561256d565b600783600981111561242357fe5b14156124925761245d63ffffffff428116907f0000000000000000000000000000000000000000000000000000000000000000906132b816565b6001600160a01b0383166000908152601a60205260409020805463ffffffff191663ffffffff9290921691909117905561256d565b60088360098111156124a057fe5b141561250f576124da63ffffffff428116907f0000000000000000000000000000000000000000000000000000000000000000906132b816565b6001600160a01b0383166000908152601e60205260409020805463ffffffff191663ffffffff9290921691909117905561256d565b600983600981111561251d57fe5b14156125655761255763ffffffff428116907f0000000000000000000000000000000000000000000000000000000000000000906132b816565b63ffffffff1660205561256d565b5060006114f4565b82600981111561257957fe5b604080516001600160a01b038516815290517f0e4f2c4b5bc209d509bc3d49348c787fefadc66a79351b470599ac0f5be52eaf9181900360200190a250600192915050565b60136020526000908152604090205460ff1681565b60196020526000908152604090205460ff1681565b601e6020526000908152604090205463ffffffff1681565b600080546001600160a01b0316331461264e576040805162461bcd60e51b81526020600482018190526024820152600080516020613897833981519152604482015290519081900360640190fd5b6001600160a01b03831661266157600080fd5b60008085600981111561267057fe5b141561273657612683600760068661338c565b15612706576001600160a01b0384166000908152600760205260409020805463ffffffff191690556126b6600585613485565b61270657600580546001810182556000919091527f036b6384b5eca791c62761152d0c79bb0604c104a5fb6f4eb0703f3154bb3db00180546001600160a01b0319166001600160a01b0386161790555b506001600160a01b0383166000908152600660205260409020805460ff81161560ff199091168117909155612eb8565b600185600981111561274457fe5b141561280a57612757600a60098661338c565b156127da576001600160a01b0384166000908152600a60205260409020805463ffffffff1916905561278a600885613485565b6127da57600880546001810182556000919091527ff3f7a9fe364faab93b216da50a3214154f22a0a2b415b23a84c8169e8b636ee30180546001600160a01b0319166001600160a01b0386161790555b506001600160a01b0383166000908152600960205260409020805460ff81161560ff199091168117909155612eb8565b600285600981111561281857fe5b14156128de5761282b600460038661338c565b156128ae576001600160a01b0384166000908152600460205260409020805463ffffffff1916905561285e600285613485565b6128ae57600280546001810182556000919091527f405787fa12a823e0f2b7631cc41b3ba8828b3321ca811111fa75cd3aa3bb5ace0180546001600160a01b0319166001600160a01b0386161790555b506001600160a01b0383166000908152600360205260409020805460ff81161560ff199091168117909155612eb8565b60038560098111156128ec57fe5b14156129ef576128ff601460138661338c565b156129bf57601280546001810182557fbb8a6a4669ba250d26cd7a459eca9d215f8307e33aebe50379bc5a3617ec34440180546001600160a01b0319166001600160a01b0387169081179091556000908152601460205260409020805463ffffffff1916905561296f9085613485565b6129bf57601280546001810182556000919091527fbb8a6a4669ba250d26cd7a459eca9d215f8307e33aebe50379bc5a3617ec34440180546001600160a01b0319166001600160a01b0386161790555b506001600160a01b0383166000908152601360205260409020805460ff81161560ff199091168117909155612eb8565b60048560098111156129fd57fe5b1415612b0057612a106010600f8661338c565b15612ad057600e80546001810182557fbb7b4a454dc3493923482f07822329ed19e8244eff582cc204f8554c3620c3fd0180546001600160a01b0319166001600160a01b0387169081179091556000908152601060205260409020805463ffffffff19169055612a809085613485565b612ad057600e80546001810182556000919091527fbb7b4a454dc3493923482f07822329ed19e8244eff582cc204f8554c3620c3fd0180546001600160a01b0319166001600160a01b0386161790555b506001600160a01b0383166000908152600f60205260409020805460ff81161560ff199091168117909155612eb8565b6005856009811115612b0e57fe5b1415612bf657612b21600d600c8661338c565b15612ba4576001600160a01b0384166000908152600d60205260409020805463ffffffff19169055612b54600b85613485565b612ba457600b80546001810182556000919091527f0175b7a638427703f0dbe7bb9bbf987a2551717b34e79f33b5b1008d1fa01db90180546001600160a01b0319166001600160a01b0386161790555b506001600160a01b038381166000908152600c60209081526040808320805460ff81161560ff199091168117909155601190925290912080546001600160a01b03191692851692909217909155612eb8565b6006856009811115612c0457fe5b1415612cca57612c17601760168661338c565b15612c9a576001600160a01b0384166000908152601760205260409020805463ffffffff19169055612c4a601585613485565b612c9a57601580546001810182556000919091527f55f448fdea98c4d29eb340757ef0a66cd03dbb9538908a6a81d96026b71ec4750180546001600160a01b0319166001600160a01b0386161790555b506001600160a01b0383166000908152601660205260409020805460ff81161560ff199091168117909155612eb8565b6007856009811115612cd857fe5b1415612d9e57612ceb601a60198661338c565b15612d6e576001600160a01b0384166000908152601a60205260409020805463ffffffff19169055612d1e601885613485565b612d6e57601880546001810182556000919091527fb13d2d76d1f4b7be834882e410b3e3a8afaf69f83600ae24db354391d2378d2e0180546001600160a01b0319166001600160a01b0386161790555b506001600160a01b0383166000908152601960205260409020805460ff81161560ff199091168117909155612eb8565b6008856009811115612dac57fe5b1415612e7257612dbf601e601d8661338c565b15612e42576001600160a01b0384166000908152601e60205260409020805463ffffffff19169055612df2601c85613485565b612e4257601c80546001810182556000919091527f0e4562a10381dec21b205ed72637e6b1b523bdd0e4d4d50af5cd23dd4500a2110180546001600160a01b0319166001600160a01b0386161790555b506001600160a01b0383166000908152601d60205260409020805460ff81161560ff199091168117909155612eb8565b6009856009811115612e8057fe5b1415612eae57506000602055601f80546001600160a01b0319166001600160a01b0385161790556001612eb8565b6000915050612f0f565b846009811115612ec457fe5b604080516001600160a01b0387168152831515602082015281517f0dcacb7e392f3d6a216ed2660e3dcfd40b7793d33591db2ba185a6b8e44fc477929181900390910190a260019150505b9392505050565b60225481565b600b8181548110610b7157600080fd5b60106020526000908152604090205463ffffffff1681565b6000612f0f83836040518060400160405280601e81526020017f536166654d6174683a207375627472616374696f6e206f766572666c6f7700008152506134d5565b604080516001600160a01b038416602482015260448082018490528251808303909101815260649091019091526020810180516001600160e01b031663a9059cbb60e01b179052612fd890849061356c565b505050565b600082820183811015612f0f576040805162461bcd60e51b815260206004820152601b60248201527f536166654d6174683a206164646974696f6e206f766572666c6f770000000000604482015290519081900360640190fd5b600082613046575060006114f4565b8282028284828161305357fe5b0414612f0f5760405162461bcd60e51b81526004018080602001828103825260218152602001806138766021913960400191505060405180910390fd5b6000612f0f83836040518060400160405280601a81526020017f536166654d6174683a206469766973696f6e206279207a65726f00000000000081525061361d565b6131a2848484846040516024018080602001856001600160a01b03168152602001846001600160a01b03168152602001838152602001828103825286818151815260200191508051906020019080838360005b8381101561313d578181015183820152602001613125565b50505050905090810190601f16801561316a5780820380516001836020036101000a031916815260200191505b5060408051601f198184030181529190526020810180516001600160e01b0316636eb7943d60e01b1790529550613682945050505050565b50505050565b604080516001600160a01b0380861660248301528416604482015260648082018490528251808303909101815260849091019091526020810180516001600160e01b03166323b872dd60e01b1790526131a290859061356c565b612fd88383836040516024018080602001848152602001838152602001828103825285818151815260200191508051906020019080838360005b8381101561325457818101518382015260200161323c565b50505050905090810190601f1680156132815780820380516001836020036101000a031916815260200191505b5060408051601f198184030181529190526020810180516001600160e01b031663969cdd0360e01b17905294506136829350505050565b600082820163ffffffff8085169082161015612f0f576040805162461bcd60e51b815260206004820152601b60248201527f536166654d6174683a206164646974696f6e206f766572666c6f770000000000604482015290519081900360640190fd5b600063ffffffff8316613330575060006114f4565b82820263ffffffff808416908086169083168161334957fe5b0463ffffffff1614612f0f5760405162461bcd60e51b81526004018080602001828103825260218152602001806138766021913960400191505060405180910390fd5b6001600160a01b03811660009081526020839052604081205460ff1661347b576001600160a01b03821660009081526020859052604090205463ffffffff16613409576040805162461bcd60e51b815260206004820152600a6024820152694d75737420717565756560b01b604482015290519081900360640190fd5b6001600160a01b03821660009081526020859052604090205463ffffffff42811691161115613473576040805162461bcd60e51b8152602060048201526011602482015270145d595d59481b9bdd08195e1c1a5c9959607a1b604482015290519081900360640190fd5b506001612f0f565b5060009392505050565b6000805b835481101561347b57826001600160a01b03168482815481106134a857fe5b6000918252602090912001546001600160a01b031614156134cd5760019150506114f4565b600101613489565b600081848411156135645760405162461bcd60e51b81526004018080602001828103825283818151815260200191508051906020019080838360005b83811015613529578181015183820152602001613511565b50505050905090810190601f1680156135565780820380516001836020036101000a031916815260200191505b509250505060405180910390fd5b505050900390565b60606135c1826040518060400160405280602081526020017f5361666545524332303a206c6f772d6c6576656c2063616c6c206661696c6564815250856001600160a01b03166136a39092919063ffffffff16565b805190915015612fd8578080602001905160208110156135e057600080fd5b5051612fd85760405162461bcd60e51b815260040180806020018281038252602a8152602001806138d7602a913960400191505060405180910390fd5b6000818361366c5760405162461bcd60e51b8152602060048201818152835160248401528351909283926044909101919085019080838360008315613529578181015183820152602001613511565b50600083858161367857fe5b0495945050505050565b80516a636f6e736f6c652e6c6f67602083016000808483855afa5050505050565b60606136b284846000856136ba565b949350505050565b60606136c585613827565b613716576040805162461bcd60e51b815260206004820152601d60248201527f416464726573733a2063616c6c20746f206e6f6e2d636f6e7472616374000000604482015290519081900360640190fd5b60006060866001600160a01b031685876040518082805190602001908083835b602083106137555780518252601f199092019160209182019101613736565b6001836020036101000a03801982511681845116808217855250505050505090500191505060006040518083038185875af1925050503d80600081146137b7576040519150601f19603f3d011682016040523d82523d6000602084013e6137bc565b606091505b509150915081156137d05791506136b29050565b8051156137e05780518082602001fd5b60405162461bcd60e51b8152602060048201818152865160248401528651879391928392604401919085019080838360008315613529578181015183820152602001613511565b3b15159056fe4f776e61626c653a206e6577206f776e657220697320746865207a65726f20616464726573734f776e61626c653a206d757374206265206e6577206f776e657220746f2070756c6c536166654d6174683a206d756c7469706c69636174696f6e206f766572666c6f774f776e61626c653a2063616c6c6572206973206e6f7420746865206f776e657293bb8edd35984706eee1b92541281f7f62d33c01c5b2ec0929a113603bd21d665361666545524332303a204552433230206f7065726174696f6e20646964206e6f742073756363656564a26469706673582212202dffcae612368431119bfbd1cee2c468c5c70127ed40b74ddf45e9dc2d3362c164736f6c63430007050033",
  "devdoc": {
    "kind": "dev",
    "methods": {
      "deposit(uint256,address,uint256)": {
        "params": {
          "_amount": "uint",
          "_profit": "uint",
          "_token": "address"
        },
        "returns": {
          "send_": "uint"
        }
      },
      "excessReserves()": {
        "returns": {
          "_0": "uint"
        }
      },
      "incurDebt(uint256,address)": {
        "params": {
          "_amount": "uint",
          "_token": "address"
        }
      },
      "manage(address,uint256)": {
        "params": {
          "_amount": "uint",
          "_token": "address"
        }
      },
      "queue(uint8,address)": {
        "params": {
          "_address": "address",
          "_managing": "MANAGING"
        },
        "returns": {
          "_0": "bool"
        }
      },
      "repayDebtWithOHM(uint256)": {
        "params": {
          "_amount": "uint"
        }
      },
      "repayDebtWithReserve(uint256,address)": {
        "params": {
          "_amount": "uint",
          "_token": "address"
        }
      },
      "toggle(uint8,address,address)": {
        "params": {
          "_address": "address",
          "_calculator": "address",
          "_managing": "MANAGING"
        },
        "returns": {
          "_0": "bool"
        }
      },
      "valueOf(address,uint256)": {
        "params": {
          "_amount": "uint",
          "_token": "address"
        },
        "returns": {
          "value_": "uint"
        }
      },
      "withdraw(uint256,address)": {
        "params": {
          "_amount": "uint",
          "_token": "address"
        }
      }
    },
    "version": 1
  },
  "userdoc": {
    "kind": "user",
    "methods": {
      "auditReserves()": {
        "notice": "takes inventory of all tracked assetsalways consolidate to recognized reserves before audit"
      },
      "deposit(uint256,address,uint256)": {
        "notice": "allow approved address to deposit an asset for OHM"
      },
      "excessReserves()": {
        "notice": "returns excess reserves not backing tokens"
      },
      "incurDebt(uint256,address)": {
        "notice": "allow approved address to borrow reserves"
      },
      "manage(address,uint256)": {
        "notice": "allow approved address to withdraw assets"
      },
      "mintRewards(address,uint256)": {
        "notice": "send epoch reward to staking contract"
      },
      "queue(uint8,address)": {
        "notice": "queue address to change boolean in mapping"
      },
      "repayDebtWithOHM(uint256)": {
        "notice": "allow approved address to repay borrowed reserves with OHM"
      },
      "repayDebtWithReserve(uint256,address)": {
        "notice": "allow approved address to repay borrowed reserves with reserves"
      },
      "toggle(uint8,address,address)": {
        "notice": "verify queue then set boolean in mapping"
      },
      "valueOf(address,uint256)": {
        "notice": "returns BASH valuation of asset"
      },
      "withdraw(uint256,address)": {
        "notice": "allow approved address to burn OHM for reserves"
      }
    },
    "version": 1
  },
  "storageLayout": {
    "storage": [
      {
        "astId": 2152,
        "contract": "contracts/Treasury.sol:BashTreasury",
        "label": "_owner",
        "offset": 0,
        "slot": "0",
        "type": "t_address"
      },
      {
        "astId": 2154,
        "contract": "contracts/Treasury.sol:BashTreasury",
        "label": "_newOwner",
        "offset": 0,
        "slot": "1",
        "type": "t_address"
      },
      {
        "astId": 2499,
        "contract": "contracts/Treasury.sol:BashTreasury",
        "label": "reserveTokens",
        "offset": 0,
        "slot": "2",
        "type": "t_array(t_address)dyn_storage"
      },
      {
        "astId": 2503,
        "contract": "contracts/Treasury.sol:BashTreasury",
        "label": "isReserveToken",
        "offset": 0,
        "slot": "3",
        "type": "t_mapping(t_address,t_bool)"
      },
      {
        "astId": 2507,
        "contract": "contracts/Treasury.sol:BashTreasury",
        "label": "reserveTokenQueue",
        "offset": 0,
        "slot": "4",
        "type": "t_mapping(t_address,t_uint32)"
      },
      {
        "astId": 2510,
        "contract": "contracts/Treasury.sol:BashTreasury",
        "label": "reserveDepositors",
        "offset": 0,
        "slot": "5",
        "type": "t_array(t_address)dyn_storage"
      },
      {
        "astId": 2514,
        "contract": "contracts/Treasury.sol:BashTreasury",
        "label": "isReserveDepositor",
        "offset": 0,
        "slot": "6",
        "type": "t_mapping(t_address,t_bool)"
      },
      {
        "astId": 2518,
        "contract": "contracts/Treasury.sol:BashTreasury",
        "label": "reserveDepositorQueue",
        "offset": 0,
        "slot": "7",
        "type": "t_mapping(t_address,t_uint32)"
      },
      {
        "astId": 2521,
        "contract": "contracts/Treasury.sol:BashTreasury",
        "label": "reserveSpenders",
        "offset": 0,
        "slot": "8",
        "type": "t_array(t_address)dyn_storage"
      },
      {
        "astId": 2525,
        "contract": "contracts/Treasury.sol:BashTreasury",
        "label": "isReserveSpender",
        "offset": 0,
        "slot": "9",
        "type": "t_mapping(t_address,t_bool)"
      },
      {
        "astId": 2529,
        "contract": "contracts/Treasury.sol:BashTreasury",
        "label": "reserveSpenderQueue",
        "offset": 0,
        "slot": "10",
        "type": "t_mapping(t_address,t_uint32)"
      },
      {
        "astId": 2532,
        "contract": "contracts/Treasury.sol:BashTreasury",
        "label": "liquidityTokens",
        "offset": 0,
        "slot": "11",
        "type": "t_array(t_address)dyn_storage"
      },
      {
        "astId": 2536,
        "contract": "contracts/Treasury.sol:BashTreasury",
        "label": "isLiquidityToken",
        "offset": 0,
        "slot": "12",
        "type": "t_mapping(t_address,t_bool)"
      },
      {
        "astId": 2540,
        "contract": "contracts/Treasury.sol:BashTreasury",
        "label": "LiquidityTokenQueue",
        "offset": 0,
        "slot": "13",
        "type": "t_mapping(t_address,t_uint32)"
      },
      {
        "astId": 2543,
        "contract": "contracts/Treasury.sol:BashTreasury",
        "label": "liquidityDepositors",
        "offset": 0,
        "slot": "14",
        "type": "t_array(t_address)dyn_storage"
      },
      {
        "astId": 2547,
        "contract": "contracts/Treasury.sol:BashTreasury",
        "label": "isLiquidityDepositor",
        "offset": 0,
        "slot": "15",
        "type": "t_mapping(t_address,t_bool)"
      },
      {
        "astId": 2551,
        "contract": "contracts/Treasury.sol:BashTreasury",
        "label": "LiquidityDepositorQueue",
        "offset": 0,
        "slot": "16",
        "type": "t_mapping(t_address,t_uint32)"
      },
      {
        "astId": 2555,
        "contract": "contracts/Treasury.sol:BashTreasury",
        "label": "bondCalculator",
        "offset": 0,
        "slot": "17",
        "type": "t_mapping(t_address,t_address)"
      },
      {
        "astId": 2558,
        "contract": "contracts/Treasury.sol:BashTreasury",
        "label": "reserveManagers",
        "offset": 0,
        "slot": "18",
        "type": "t_array(t_address)dyn_storage"
      },
      {
        "astId": 2562,
        "contract": "contracts/Treasury.sol:BashTreasury",
        "label": "isReserveManager",
        "offset": 0,
        "slot": "19",
        "type": "t_mapping(t_address,t_bool)"
      },
      {
        "astId": 2566,
        "contract": "contracts/Treasury.sol:BashTreasury",
        "label": "ReserveManagerQueue",
        "offset": 0,
        "slot": "20",
        "type": "t_mapping(t_address,t_uint32)"
      },
      {
        "astId": 2569,
        "contract": "contracts/Treasury.sol:BashTreasury",
        "label": "liquidityManagers",
        "offset": 0,
        "slot": "21",
        "type": "t_array(t_address)dyn_storage"
      },
      {
        "astId": 2573,
        "contract": "contracts/Treasury.sol:BashTreasury",
        "label": "isLiquidityManager",
        "offset": 0,
        "slot": "22",
        "type": "t_mapping(t_address,t_bool)"
      },
      {
        "astId": 2577,
        "contract": "contracts/Treasury.sol:BashTreasury",
        "label": "LiquidityManagerQueue",
        "offset": 0,
        "slot": "23",
        "type": "t_mapping(t_address,t_uint32)"
      },
      {
        "astId": 2580,
        "contract": "contracts/Treasury.sol:BashTreasury",
        "label": "debtors",
        "offset": 0,
        "slot": "24",
        "type": "t_array(t_address)dyn_storage"
      },
      {
        "astId": 2584,
        "contract": "contracts/Treasury.sol:BashTreasury",
        "label": "isDebtor",
        "offset": 0,
        "slot": "25",
        "type": "t_mapping(t_address,t_bool)"
      },
      {
        "astId": 2588,
        "contract": "contracts/Treasury.sol:BashTreasury",
        "label": "debtorQueue",
        "offset": 0,
        "slot": "26",
        "type": "t_mapping(t_address,t_uint32)"
      },
      {
        "astId": 2592,
        "contract": "contracts/Treasury.sol:BashTreasury",
        "label": "debtorBalance",
        "offset": 0,
        "slot": "27",
        "type": "t_mapping(t_address,t_uint256)"
      },
      {
        "astId": 2595,
        "contract": "contracts/Treasury.sol:BashTreasury",
        "label": "rewardManagers",
        "offset": 0,
        "slot": "28",
        "type": "t_array(t_address)dyn_storage"
      },
      {
        "astId": 2599,
        "contract": "contracts/Treasury.sol:BashTreasury",
        "label": "isRewardManager",
        "offset": 0,
        "slot": "29",
        "type": "t_mapping(t_address,t_bool)"
      },
      {
        "astId": 2603,
        "contract": "contracts/Treasury.sol:BashTreasury",
        "label": "rewardManagerQueue",
        "offset": 0,
        "slot": "30",
        "type": "t_mapping(t_address,t_uint32)"
      },
      {
        "astId": 2605,
        "contract": "contracts/Treasury.sol:BashTreasury",
        "label": "MEMOries",
        "offset": 0,
        "slot": "31",
        "type": "t_address"
      },
      {
        "astId": 2607,
        "contract": "contracts/Treasury.sol:BashTreasury",
        "label": "sOHMQueue",
        "offset": 0,
        "slot": "32",
        "type": "t_uint256"
      },
      {
        "astId": 2609,
        "contract": "contracts/Treasury.sol:BashTreasury",
        "label": "totalReserves",
        "offset": 0,
        "slot": "33",
        "type": "t_uint256"
      },
      {
        "astId": 2611,
        "contract": "contracts/Treasury.sol:BashTreasury",
        "label": "totalDebt",
        "offset": 0,
        "slot": "34",
        "type": "t_uint256"
      }
    ],
    "types": {
      "t_address": {
        "encoding": "inplace",
        "label": "address",
        "numberOfBytes": "20"
      },
      "t_array(t_address)dyn_storage": {
        "base": "t_address",
        "encoding": "dynamic_array",
        "label": "address[]",
        "numberOfBytes": "32"
      },
      "t_bool": {
        "encoding": "inplace",
        "label": "bool",
        "numberOfBytes": "1"
      },
      "t_mapping(t_address,t_address)": {
        "encoding": "mapping",
        "key": "t_address",
        "label": "mapping(address => address)",
        "numberOfBytes": "32",
        "value": "t_address"
      },
      "t_mapping(t_address,t_bool)": {
        "encoding": "mapping",
        "key": "t_address",
        "label": "mapping(address => bool)",
        "numberOfBytes": "32",
        "value": "t_bool"
      },
      "t_mapping(t_address,t_uint256)": {
        "encoding": "mapping",
        "key": "t_address",
        "label": "mapping(address => uint256)",
        "numberOfBytes": "32",
        "value": "t_uint256"
      },
      "t_mapping(t_address,t_uint32)": {
        "encoding": "mapping",
        "key": "t_address",
        "label": "mapping(address => uint32)",
        "numberOfBytes": "32",
        "value": "t_uint32"
      },
      "t_uint256": {
        "encoding": "inplace",
        "label": "uint256",
        "numberOfBytes": "32"
      },
      "t_uint32": {
        "encoding": "inplace",
        "label": "uint32",
        "numberOfBytes": "4"
      }
    }
  }
}