{
  "address": "0x0B306BF915C4d645ff596e518fAf3F9669b97016",
  "abi": [
    {
      "inputs": [
        {
          "internalType": "address",
          "name": "_Bash",
          "type": "address"
        },
        {
          "internalType": "address",
          "name": "_DAI",
          "type": "address"
        },
        {
          "internalType": "uint32",
          "name": "_secondsNeededForQueue",
          "type": "uint32"
        }
      ],
      "stateMutability": "nonpayable",
      "type": "constructor"
    },
    {
      "anonymous": false,
      "inputs": [
        {
          "indexed": true,
          "internalType": "enum BashTreasury.MANAGING",
          "name": "managing",
          "type": "uint8"
        },
        {
          "indexed": false,
          "internalType": "address",
          "name": "activated",
          "type": "address"
        },
        {
          "indexed": false,
          "internalType": "bool",
          "name": "result",
          "type": "bool"
        }
      ],
      "name": "ChangeActivated",
      "type": "event"
    },
    {
      "anonymous": false,
      "inputs": [
        {
          "indexed": true,
          "internalType": "enum BashTreasury.MANAGING",
          "name": "managing",
          "type": "uint8"
        },
        {
          "indexed": false,
          "internalType": "address",
          "name": "queued",
          "type": "address"
        }
      ],
      "name": "ChangeQueued",
      "type": "event"
    },
    {
      "anonymous": false,
      "inputs": [
        {
          "indexed": true,
          "internalType": "address",
          "name": "debtor",
          "type": "address"
        },
        {
          "indexed": true,
          "internalType": "address",
          "name": "token",
          "type": "address"
        },
        {
          "indexed": false,
          "internalType": "uint256",
          "name": "amount",
          "type": "uint256"
        },
        {
          "indexed": false,
          "internalType": "uint256",
          "name": "value",
          "type": "uint256"
        }
      ],
      "name": "CreateDebt",
      "type": "event"
    },
    {
      "anonymous": false,
      "inputs": [
        {
          "indexed": true,
          "internalType": "address",
          "name": "token",
          "type": "address"
        },
        {
          "indexed": false,
          "internalType": "uint256",
          "name": "amount",
          "type": "uint256"
        },
        {
          "indexed": false,
          "internalType": "uint256",
          "name": "value",
          "type": "uint256"
        }
      ],
      "name": "Deposit",
      "type": "event"
    },
    {
      "anonymous": false,
      "inputs": [
        {
          "indexed": true,
          "internalType": "address",
          "name": "previousOwner",
          "type": "address"
        },
        {
          "indexed": true,
          "internalType": "address",
          "name": "newOwner",
          "type": "address"
        }
      ],
      "name": "OwnershipPulled",
      "type": "event"
    },
    {
      "anonymous": false,
      "inputs": [
        {
          "indexed": true,
          "internalType": "address",
          "name": "previousOwner",
          "type": "address"
        },
        {
          "indexed": true,
          "internalType": "address",
          "name": "newOwner",
          "type": "address"
        }
      ],
      "name": "OwnershipPushed",
      "type": "event"
    },
    {
      "anonymous": false,
      "inputs": [
        {
          "indexed": true,
          "internalType": "address",
          "name": "debtor",
          "type": "address"
        },
        {
          "indexed": true,
          "internalType": "address",
          "name": "token",
          "type": "address"
        },
        {
          "indexed": false,
          "internalType": "uint256",
          "name": "amount",
          "type": "uint256"
        },
        {
          "indexed": false,
          "internalType": "uint256",
          "name": "value",
          "type": "uint256"
        }
      ],
      "name": "RepayDebt",
      "type": "event"
    },
    {
      "anonymous": false,
      "inputs": [
        {
          "indexed": true,
          "internalType": "uint256",
          "name": "totalReserves",
          "type": "uint256"
        }
      ],
      "name": "ReservesAudited",
      "type": "event"
    },
    {
      "anonymous": false,
      "inputs": [
        {
          "indexed": true,
          "internalType": "address",
          "name": "token",
          "type": "address"
        },
        {
          "indexed": false,
          "internalType": "uint256",
          "name": "amount",
          "type": "uint256"
        }
      ],
      "name": "ReservesManaged",
      "type": "event"
    },
    {
      "anonymous": false,
      "inputs": [
        {
          "indexed": true,
          "internalType": "uint256",
          "name": "totalReserves",
          "type": "uint256"
        }
      ],
      "name": "ReservesUpdated",
      "type": "event"
    },
    {
      "anonymous": false,
      "inputs": [
        {
          "indexed": true,
          "internalType": "address",
          "name": "caller",
          "type": "address"
        },
        {
          "indexed": true,
          "internalType": "address",
          "name": "recipient",
          "type": "address"
        },
        {
          "indexed": false,
          "internalType": "uint256",
          "name": "amount",
          "type": "uint256"
        }
      ],
      "name": "RewardsMinted",
      "type": "event"
    },
    {
      "anonymous": false,
      "inputs": [
        {
          "indexed": true,
          "internalType": "address",
          "name": "token",
          "type": "address"
        },
        {
          "indexed": false,
          "internalType": "uint256",
          "name": "amount",
          "type": "uint256"
        },
        {
          "indexed": false,
          "internalType": "uint256",
          "name": "value",
          "type": "uint256"
        }
      ],
      "name": "Withdrawal",
      "type": "event"
    },
    {
      "inputs": [],
      "name": "Bash",
      "outputs": [
        {
          "internalType": "address",
          "name": "",
          "type": "address"
        }
      ],
      "stateMutability": "view",
      "type": "function"
    },
    {
      "inputs": [
        {
          "internalType": "address",
          "name": "",
          "type": "address"
        }
      ],
      "name": "LiquidityDepositorQueue",
      "outputs": [
        {
          "internalType": "uint32",
          "name": "",
          "type": "uint32"
        }
      ],
      "stateMutability": "view",
      "type": "function"
    },
    {
      "inputs": [
        {
          "internalType": "address",
          "name": "",
          "type": "address"
        }
      ],
      "name": "LiquidityManagerQueue",
      "outputs": [
        {
          "internalType": "uint32",
          "name": "",
          "type": "uint32"
        }
      ],
      "stateMutability": "view",
      "type": "function"
    },
    {
      "inputs": [
        {
          "internalType": "address",
          "name": "",
          "type": "address"
        }
      ],
      "name": "LiquidityTokenQueue",
      "outputs": [
        {
          "internalType": "uint32",
          "name": "",
          "type": "uint32"
        }
      ],
      "stateMutability": "view",
      "type": "function"
    },
    {
      "inputs": [],
      "name": "MEMOries",
      "outputs": [
        {
          "internalType": "address",
          "name": "",
          "type": "address"
        }
      ],
      "stateMutability": "view",
      "type": "function"
    },
    {
      "inputs": [
        {
          "internalType": "address",
          "name": "",
          "type": "address"
        }
      ],
      "name": "ReserveManagerQueue",
      "outputs": [
        {
          "internalType": "uint32",
          "name": "",
          "type": "uint32"
        }
      ],
      "stateMutability": "view",
      "type": "function"
    },
    {
      "inputs": [],
      "name": "auditReserves",
      "outputs": [],
      "stateMutability": "nonpayable",
      "type": "function"
    },
    {
      "inputs": [
        {
          "internalType": "address",
          "name": "",
          "type": "address"
        }
      ],
      "name": "bondCalculator",
      "outputs": [
        {
          "internalType": "address",
          "name": "",
          "type": "address"
        }
      ],
      "stateMutability": "view",
      "type": "function"
    },
    {
      "inputs": [
        {
          "internalType": "address",
          "name": "",
          "type": "address"
        }
      ],
      "name": "debtorBalance",
      "outputs": [
        {
          "internalType": "uint256",
          "name": "",
          "type": "uint256"
        }
      ],
      "stateMutability": "view",
      "type": "function"
    },
    {
      "inputs": [
        {
          "internalType": "address",
          "name": "",
          "type": "address"
        }
      ],
      "name": "debtorQueue",
      "outputs": [
        {
          "internalType": "uint32",
          "name": "",
          "type": "uint32"
        }
      ],
      "stateMutability": "view",
      "type": "function"
    },
    {
      "inputs": [
        {
          "internalType": "uint256",
          "name": "",
          "type": "uint256"
        }
      ],
      "name": "debtors",
      "outputs": [
        {
          "internalType": "address",
          "name": "",
          "type": "address"
        }
      ],
      "stateMutability": "view",
      "type": "function"
    },
    {
      "inputs": [
        {
          "internalType": "uint256",
          "name": "_amount",
          "type": "uint256"
        },
        {
          "internalType": "address",
          "name": "_token",
          "type": "address"
        },
        {
          "internalType": "uint256",
          "name": "_profit",
          "type": "uint256"
        }
      ],
      "name": "deposit",
      "outputs": [
        {
          "internalType": "uint256",
          "name": "send_",
          "type": "uint256"
        }
      ],
      "stateMutability": "nonpayable",
      "type": "function"
    },
    {
      "inputs": [],
      "name": "excessReserves",
      "outputs": [
        {
          "internalType": "uint256",
          "name": "",
          "type": "uint256"
        }
      ],
      "stateMutability": "view",
      "type": "function"
    },
    {
      "inputs": [
        {
          "internalType": "uint256",
          "name": "_amount",
          "type": "uint256"
        },
        {
          "internalType": "address",
          "name": "_token",
          "type": "address"
        }
      ],
      "name": "incurDebt",
      "outputs": [],
      "stateMutability": "nonpayable",
      "type": "function"
    },
    {
      "inputs": [
        {
          "internalType": "address",
          "name": "",
          "type": "address"
        }
      ],
      "name": "isDebtor",
      "outputs": [
        {
          "internalType": "bool",
          "name": "",
          "type": "bool"
        }
      ],
      "stateMutability": "view",
      "type": "function"
    },
    {
      "inputs": [
        {
          "internalType": "address",
          "name": "",
          "type": "address"
        }
      ],
      "name": "isLiquidityDepositor",
      "outputs": [
        {
          "internalType": "bool",
          "name": "",
          "type": "bool"
        }
      ],
      "stateMutability": "view",
      "type": "function"
    },
    {
      "inputs": [
        {
          "internalType": "address",
          "name": "",
          "type": "address"
        }
      ],
      "name": "isLiquidityManager",
      "outputs": [
        {
          "internalType": "bool",
          "name": "",
          "type": "bool"
        }
      ],
      "stateMutability": "view",
      "type": "function"
    },
    {
      "inputs": [
        {
          "internalType": "address",
          "name": "",
          "type": "address"
        }
      ],
      "name": "isLiquidityToken",
      "outputs": [
        {
          "internalType": "bool",
          "name": "",
          "type": "bool"
        }
      ],
      "stateMutability": "view",
      "type": "function"
    },
    {
      "inputs": [
        {
          "internalType": "address",
          "name": "",
          "type": "address"
        }
      ],
      "name": "isReserveDepositor",
      "outputs": [
        {
          "internalType": "bool",
          "name": "",
          "type": "bool"
        }
      ],
      "stateMutability": "view",
      "type": "function"
    },
    {
      "inputs": [
        {
          "internalType": "address",
          "name": "",
          "type": "address"
        }
      ],
      "name": "isReserveManager",
      "outputs": [
        {
          "internalType": "bool",
          "name": "",
          "type": "bool"
        }
      ],
      "stateMutability": "view",
      "type": "function"
    },
    {
      "inputs": [
        {
          "internalType": "address",
          "name": "",
          "type": "address"
        }
      ],
      "name": "isReserveSpender",
      "outputs": [
        {
          "internalType": "bool",
          "name": "",
          "type": "bool"
        }
      ],
      "stateMutability": "view",
      "type": "function"
    },
    {
      "inputs": [
        {
          "internalType": "address",
          "name": "",
          "type": "address"
        }
      ],
      "name": "isReserveToken",
      "outputs": [
        {
          "internalType": "bool",
          "name": "",
          "type": "bool"
        }
      ],
      "stateMutability": "view",
      "type": "function"
    },
    {
      "inputs": [
        {
          "internalType": "address",
          "name": "",
          "type": "address"
        }
      ],
      "name": "isRewardManager",
      "outputs": [
        {
          "internalType": "bool",
          "name": "",
          "type": "bool"
        }
      ],
      "stateMutability": "view",
      "type": "function"
    },
    {
      "inputs": [
        {
          "internalType": "uint256",
          "name": "",
          "type": "uint256"
        }
      ],
      "name": "liquidityDepositors",
      "outputs": [
        {
          "internalType": "address",
          "name": "",
          "type": "address"
        }
      ],
      "stateMutability": "view",
      "type": "function"
    },
    {
      "inputs": [
        {
          "internalType": "uint256",
          "name": "",
          "type": "uint256"
        }
      ],
      "name": "liquidityManagers",
      "outputs": [
        {
          "internalType": "address",
          "name": "",
          "type": "address"
        }
      ],
      "stateMutability": "view",
      "type": "function"
    },
    {
      "inputs": [
        {
          "internalType": "uint256",
          "name": "",
          "type": "uint256"
        }
      ],
      "name": "liquidityTokens",
      "outputs": [
        {
          "internalType": "address",
          "name": "",
          "type": "address"
        }
      ],
      "stateMutability": "view",
      "type": "function"
    },
    {
      "inputs": [
        {
          "internalType": "address",
          "name": "_token",
          "type": "address"
        },
        {
          "internalType": "uint256",
          "name": "_amount",
          "type": "uint256"
        }
      ],
      "name": "manage",
      "outputs": [],
      "stateMutability": "nonpayable",
      "type": "function"
    },
    {
      "inputs": [],
      "name": "manager",
      "outputs": [
        {
          "internalType": "address",
          "name": "",
          "type": "address"
        }
      ],
      "stateMutability": "view",
      "type": "function"
    },
    {
      "inputs": [
        {
          "internalType": "address",
          "name": "_recipient",
          "type": "address"
        },
        {
          "internalType": "uint256",
          "name": "_amount",
          "type": "uint256"
        }
      ],
      "name": "mintRewards",
      "outputs": [],
      "stateMutability": "nonpayable",
      "type": "function"
    },
    {
      "inputs": [],
      "name": "pullManagement",
      "outputs": [],
      "stateMutability": "nonpayable",
      "type": "function"
    },
    {
      "inputs": [
        {
          "internalType": "address",
          "name": "newOwner_",
          "type": "address"
        }
      ],
      "name": "pushManagement",
      "outputs": [],
      "stateMutability": "nonpayable",
      "type": "function"
    },
    {
      "inputs": [
        {
          "internalType": "enum BashTreasury.MANAGING",
          "name": "_managing",
          "type": "uint8"
        },
        {
          "internalType": "address",
          "name": "_address",
          "type": "address"
        }
      ],
      "name": "queue",
      "outputs": [
        {
          "internalType": "bool",
          "name": "",
          "type": "bool"
        }
      ],
      "stateMutability": "nonpayable",
      "type": "function"
    },
    {
      "inputs": [],
      "name": "renounceManagement",
      "outputs": [],
      "stateMutability": "nonpayable",
      "type": "function"
    },
    {
      "inputs": [
        {
          "internalType": "uint256",
          "name": "_amount",
          "type": "uint256"
        }
      ],
      "name": "repayDebtWithOHM",
      "outputs": [],
      "stateMutability": "nonpayable",
      "type": "function"
    },
    {
      "inputs": [
        {
          "internalType": "uint256",
          "name": "_amount",
          "type": "uint256"
        },
        {
          "internalType": "address",
          "name": "_token",
          "type": "address"
        }
      ],
      "name": "repayDebtWithReserve",
      "outputs": [],
      "stateMutability": "nonpayable",
      "type": "function"
    },
    {
      "inputs": [
        {
          "internalType": "address",
          "name": "",
          "type": "address"
        }
      ],
      "name": "reserveDepositorQueue",
      "outputs": [
        {
          "internalType": "uint32",
          "name": "",
          "type": "uint32"
        }
      ],
      "stateMutability": "view",
      "type": "function"
    },
    {
      "inputs": [
        {
          "internalType": "uint256",
          "name": "",
          "type": "uint256"
        }
      ],
      "name": "reserveDepositors",
      "outputs": [
        {
          "internalType": "address",
          "name": "",
          "type": "address"
        }
      ],
      "stateMutability": "view",
      "type": "function"
    },
    {
      "inputs": [
        {
          "internalType": "uint256",
          "name": "",
          "type": "uint256"
        }
      ],
      "name": "reserveManagers",
      "outputs": [
        {
          "internalType": "address",
          "name": "",
          "type": "address"
        }
      ],
      "stateMutability": "view",
      "type": "function"
    },
    {
      "inputs": [
        {
          "internalType": "address",
          "name": "",
          "type": "address"
        }
      ],
      "name": "reserveSpenderQueue",
      "outputs": [
        {
          "internalType": "uint32",
          "name": "",
          "type": "uint32"
        }
      ],
      "stateMutability": "view",
      "type": "function"
    },
    {
      "inputs": [
        {
          "internalType": "uint256",
          "name": "",
          "type": "uint256"
        }
      ],
      "name": "reserveSpenders",
      "outputs": [
        {
          "internalType": "address",
          "name": "",
          "type": "address"
        }
      ],
      "stateMutability": "view",
      "type": "function"
    },
    {
      "inputs": [
        {
          "internalType": "address",
          "name": "",
          "type": "address"
        }
      ],
      "name": "reserveTokenQueue",
      "outputs": [
        {
          "internalType": "uint32",
          "name": "",
          "type": "uint32"
        }
      ],
      "stateMutability": "view",
      "type": "function"
    },
    {
      "inputs": [
        {
          "internalType": "uint256",
          "name": "",
          "type": "uint256"
        }
      ],
      "name": "reserveTokens",
      "outputs": [
        {
          "internalType": "address",
          "name": "",
          "type": "address"
        }
      ],
      "stateMutability": "view",
      "type": "function"
    },
    {
      "inputs": [
        {
          "internalType": "address",
          "name": "",
          "type": "address"
        }
      ],
      "name": "rewardManagerQueue",
      "outputs": [
        {
          "internalType": "uint32",
          "name": "",
          "type": "uint32"
        }
      ],
      "stateMutability": "view",
      "type": "function"
    },
    {
      "inputs": [
        {
          "internalType": "uint256",
          "name": "",
          "type": "uint256"
        }
      ],
      "name": "rewardManagers",
      "outputs": [
        {
          "internalType": "address",
          "name": "",
          "type": "address"
        }
      ],
      "stateMutability": "view",
      "type": "function"
    },
    {
      "inputs": [],
      "name": "sOHMQueue",
      "outputs": [
        {
          "internalType": "uint256",
          "name": "",
          "type": "uint256"
        }
      ],
      "stateMutability": "view",
      "type": "function"
    },
    {
      "inputs": [],
      "name": "secondsNeededForQueue",
      "outputs": [
        {
          "internalType": "uint32",
          "name": "",
          "type": "uint32"
        }
      ],
      "stateMutability": "view",
      "type": "function"
    },
    {
      "inputs": [
        {
          "internalType": "enum BashTreasury.MANAGING",
          "name": "_managing",
          "type": "uint8"
        },
        {
          "internalType": "address",
          "name": "_address",
          "type": "address"
        },
        {
          "internalType": "address",
          "name": "_calculator",
          "type": "address"
        }
      ],
      "name": "toggle",
      "outputs": [
        {
          "internalType": "bool",
          "name": "",
          "type": "bool"
        }
      ],
      "stateMutability": "nonpayable",
      "type": "function"
    },
    {
      "inputs": [
        {
          "internalType": "address",
          "name": "_token",
          "type": "address"
        },
        {
          "internalType": "uint256",
          "name": "_amount",
          "type": "uint256"
        }
      ],
      "name": "tokenValue",
      "outputs": [
        {
          "internalType": "uint256",
          "name": "value_",
          "type": "uint256"
        }
      ],
      "stateMutability": "view",
      "type": "function"
    },
    {
      "inputs": [],
      "name": "totalDebt",
      "outputs": [
        {
          "internalType": "uint256",
          "name": "",
          "type": "uint256"
        }
      ],
      "stateMutability": "view",
      "type": "function"
    },
    {
      "inputs": [],
      "name": "totalReserves",
      "outputs": [
        {
          "internalType": "uint256",
          "name": "",
          "type": "uint256"
        }
      ],
      "stateMutability": "view",
      "type": "function"
    },
    {
      "inputs": [
        {
          "internalType": "uint256",
          "name": "_amount",
          "type": "uint256"
        },
        {
          "internalType": "address",
          "name": "_token",
          "type": "address"
        }
      ],
      "name": "withdraw",
      "outputs": [],
      "stateMutability": "nonpayable",
      "type": "function"
    }
  ],
  "transactionHash": "0x65faa99b3c8112e0e30462589a2a95b269b29224dfe148096225649c9c8ad343",
  "args": [
    "0xe7f1725E7734CE288F8367e1Bb143E90bb3F0512",
    "0xDc64a140Aa3E981100a9becA4E685f962f0cF6C9",
    0
  ],
  "numDeployments": 1,
  "solcInputHash": "8a8304175682ed9b5fd448dad42113dc",
  "bytecode": "0x60c060405234801561001057600080fd5b50604051620038dd380380620038dd8339818101604052606081101561003557600080fd5b5080516020820151604092830151600080546001600160a01b031916331780825594519394929391926001600160a01b0316917fea8258f2d9ddb679928cf34b78cf645b7feda9acc828e4dd82d014eaae270eba908290a36001600160a01b0383166100a057600080fd5b6001600160601b0319606084901b166080526001600160a01b039182166000818152600360205260408120805460ff1916600190811790915560028054918201815582527f405787fa12a823e0f2b7631cc41b3ba8828b3321ca811111fa75cd3aa3bb5ace0180546001600160a01b0319169092179091556001600160e01b031960e083901b1660a052919092169163ffffffff169061373490620001a99039806118965280611e665280611ee35280611f605280611fdc528061206e52806120eb528061216752806121e9528061226652806122e3525080610a4e5280610df05280610f015280610fb552806114d1528061178b5280611b09528061244b52506137346000f3fe608060405234801561001057600080fd5b50600436106102f05760003560e01c8063869871bf1161019d578063cd85641a116100e9578063ee4e19a1116100a2578063fbfd393b1161007c578063fbfd393b14610908578063fc7b9c181461093f578063fd1ec01014610947578063fff9ee8714610964576102f0565b8063ee4e19a114610890578063f1821783146108b6578063fb939588146108e2576102f0565b8063cd85641a146107a6578063d031370b146107cc578063d796ffb8146107e9578063df89b34414610815578063e83afee31461083b578063ebd83cd81461086a576102f0565b8063a1210a2d11610156578063b1bd38b011610130578063b1bd38b01461070b578063b5b1d56014610731578063bc157ac11461074e578063c24ad43e14610780576102f0565b8063a1210a2d14610699578063a569e571146106bf578063ab319c9a146106e5576102f0565b8063869871bf146105e557806387d67dff146106025780638f59c727146106285780638f6a7b571461064e5780638f840ddd1461066b578063932cc8c314610673576102f0565b80633c4e6da71161025c5780635a96ac0a116102155780636b5e40a7116101ef5780636b5e40a71461056457806370a0502a14610581578063788c6c011461059e5780637a8960d8146105dd576102f0565b80635a96ac0a1461050a57806368c31dd5146105125780636a20de9214610538576102f0565b80633c4e6da714610489578063437f79121461049157806346f68ee9146104ae578063481c6a75146104d457806349880e52146104dc5780634e83423c146104e4576102f0565b80630f70431f116102ae5780630f70431f146103d0578063124154ca146103ed57806312422d23146104275780631af4da70146104535780632789de37146104795780632b7ce50014610481576102f0565b8062f714ce146102f55780630619aff114610323578063089208d81461035c578063094a8651146103645780630b0eee301461039c5780630c3513a8146103c8575b600080fd5b6103216004803603604081101561030b57600080fd5b50803590602001356001600160a01b031661098a565b005b6103406004803603602081101561033957600080fd5b5035610b61565b604080516001600160a01b039092168252519081900360200190f35b610321610b8b565b61038a6004803603602081101561037a57600080fd5b50356001600160a01b0316610c22565b60408051918252519081900360200190f35b610321600480360360408110156103b257600080fd5b506001600160a01b038135169060200135610c34565b61038a610de3565b610321600480360360208110156103e657600080fd5b5035610e87565b6104136004803603602081101561040357600080fd5b50356001600160a01b0316611006565b604080519115158252519081900360200190f35b6103216004803603604081101561043d57600080fd5b50803590602001356001600160a01b031661101b565b6103406004803603602081101561046957600080fd5b50356001600160a01b03166112eb565b61038a611306565b61032161130c565b6103406114cf565b610340600480360360208110156104a757600080fd5b50356114f3565b610321600480360360208110156104c457600080fd5b50356001600160a01b0316611503565b6103406115f0565b6103406115ff565b610413600480360360208110156104fa57600080fd5b50356001600160a01b031661160e565b610321611623565b6104136004803603602081101561052857600080fd5b50356001600160a01b03166116cd565b6103216004803603604081101561054e57600080fd5b506001600160a01b0381351690602001356116e2565b6103406004803603602081101561057a57600080fd5b503561185c565b6103406004803603602081101561059757600080fd5b503561186c565b6105c4600480360360208110156105b457600080fd5b50356001600160a01b031661187c565b6040805163ffffffff9092168252519081900360200190f35b6105c4611894565b610340600480360360208110156105fb57600080fd5b50356118b8565b6104136004803603602081101561061857600080fd5b50356001600160a01b03166118c8565b6105c46004803603602081101561063e57600080fd5b50356001600160a01b03166118dd565b6103406004803603602081101561066457600080fd5b50356118f5565b61038a611905565b6105c46004803603602081101561068957600080fd5b50356001600160a01b031661190b565b610413600480360360208110156106af57600080fd5b50356001600160a01b0316611923565b610413600480360360208110156106d557600080fd5b50356001600160a01b0316611938565b6105c4600480360360208110156106fb57600080fd5b50356001600160a01b031661194d565b6105c46004803603602081101561072157600080fd5b50356001600160a01b0316611965565b6103406004803603602081101561074757600080fd5b503561197d565b61038a6004803603606081101561076457600080fd5b508035906001600160a01b03602082013516906040013561198d565b6105c46004803603602081101561079657600080fd5b50356001600160a01b0316611c0b565b6105c4600480360360208110156107bc57600080fd5b50356001600160a01b0316611c23565b610340600480360360208110156107e257600080fd5b5035611c3b565b610321600480360360408110156107ff57600080fd5b50803590602001356001600160a01b0316611c4b565b6104136004803603602081101561082b57600080fd5b50356001600160a01b0316611dce565b6104136004803603604081101561085157600080fd5b50803560ff1690602001356001600160a01b0316611de3565b6104136004803603602081101561088057600080fd5b50356001600160a01b0316612371565b610413600480360360208110156108a657600080fd5b50356001600160a01b0316612386565b61038a600480360360408110156108cc57600080fd5b506001600160a01b03813516906020013561239b565b6105c4600480360360208110156108f857600080fd5b50356001600160a01b031661258d565b6104136004803603606081101561091e57600080fd5b5060ff813516906001600160a01b03602082013581169160400135166125a5565b61038a612ebb565b6103406004803603602081101561095d57600080fd5b5035612ec1565b6105c46004803603602081101561097a57600080fd5b50356001600160a01b0316612ed1565b6001600160a01b03811660009081526003602052604090205460ff166109e6576040805162461bcd60e51b815260206004820152600c60248201526b139bdd081858d8d95c1d195960a21b604482015290519081900360640190fd5b3360009081526009602052604090205460ff161515600114610a3e576040805162461bcd60e51b815260206004820152600c60248201526b139bdd08185c1c1c9bdd995960a21b604482015290519081900360640190fd5b6000610a4a828461239b565b90507f00000000000000000000000000000000000000000000000000000000000000006001600160a01b03166379cc679033836040518363ffffffff1660e01b815260040180836001600160a01b0316815260200182815260200192505050600060405180830381600087803b158015610ac357600080fd5b505af1158015610ad7573d6000803e3d6000fd5b5050602154610ae99250905082612ee9565b60218190556040516000805160206136b583398151915290600090a2610b196001600160a01b0383163385612f2b565b604080518481526020810183905281516001600160a01b038516927fdf273cb619d95419a9cd0ec88123a0538c85064229baa6363788f743fff90deb928290030190a2505050565b60128181548110610b7157600080fd5b6000918252602090912001546001600160a01b0316905081565b6000546001600160a01b03163314610bd8576040805162461bcd60e51b81526020600482018190526024820152600080516020613695833981519152604482015290519081900360640190fd5b600080546040516001600160a01b03909116907fea8258f2d9ddb679928cf34b78cf645b7feda9acc828e4dd82d014eaae270eba908390a3600080546001600160a01b0319169055565b601b6020526000908152604090205481565b6001600160a01b0382166000908152600c602052604090205460ff1615610cad573360009081526016602052604090205460ff16610ca8576040805162461bcd60e51b815260206004820152600c60248201526b139bdd08185c1c1c9bdd995960a21b604482015290519081900360640190fd5b610d00565b3360009081526013602052604090205460ff16610d00576040805162461bcd60e51b815260206004820152600c60248201526b139bdd08185c1c1c9bdd995960a21b604482015290519081900360640190fd5b6000610d0c838361239b565b9050610d16610de3565b811115610d62576040805162461bcd60e51b8152602060048201526015602482015274496e73756666696369656e7420726573657276657360581b604482015290519081900360640190fd5b602154610d6f9082612ee9565b60218190556040516000805160206136b583398151915290600090a2610d9f6001600160a01b0384163384612f2b565b6040805183815290516001600160a01b038516917f2bb2640731848fe9820ba48dbc978c1fc9bbd5f11b948bfab05b7dee3378fd80919081900360200190a2505050565b6000610e82610e796022547f00000000000000000000000000000000000000000000000000000000000000006001600160a01b03166318160ddd6040518163ffffffff1660e01b815260040160206040518083038186803b158015610e4757600080fd5b505afa158015610e5b573d6000803e3d6000fd5b505050506040513d6020811015610e7157600080fd5b505190612ee9565b60215490612ee9565b905090565b3360009081526019602052604090205460ff16610eda576040805162461bcd60e51b815260206004820152600c60248201526b139bdd08185c1c1c9bdd995960a21b604482015290519081900360640190fd5b6040805163079cc67960e41b81523360048201526024810183905290516001600160a01b037f000000000000000000000000000000000000000000000000000000000000000016916379cc679091604480830192600092919082900301818387803b158015610f4857600080fd5b505af1158015610f5c573d6000803e3d6000fd5b5050336000908152601b6020526040902054610f7b9250905082612ee9565b336000908152601b6020526040902055602254610f989082612ee9565b602255604080518281526020810183905281516001600160a01b037f0000000000000000000000000000000000000000000000000000000000000000169233927fc6d98eecfc9c78ab62c89a82950079b54874749f1f6f24090f7acc758bc2f309929081900390910190a350565b60066020526000908152604090205460ff1681565b3360009081526019602052604090205460ff1661106e576040805162461bcd60e51b815260206004820152600c60248201526b139bdd08185c1c1c9bdd995960a21b604482015290519081900360640190fd5b6001600160a01b03811660009081526003602052604090205460ff166110ca576040805162461bcd60e51b815260206004820152600c60248201526b139bdd081858d8d95c1d195960a21b604482015290519081900360640190fd5b60006110d6828461239b565b601f54604080516370a0823160e01b815233600482015290519293506000926001600160a01b03909216916370a0823191602480820192602092909190829003018186803b15801561112757600080fd5b505afa15801561113b573d6000803e3d6000fd5b505050506040513d602081101561115157600080fd5b5051336000908152601b602052604081205491925090611172908390612ee9565b9050808311156111be576040805162461bcd60e51b8152602060048201526012602482015271115e18d959591cc81919589d081b1a5b5a5d60721b604482015290519081900360640190fd5b336000908152601b60205260409020546111d89084612f82565b336000908152601b60205260409020556022546111f59084612f82565b6022556021546112059084612ee9565b60218190556040516000805160206136b583398151915290600090a26040805163a9059cbb60e01b81523360048201526024810187905290516001600160a01b0386169163a9059cbb9160448083019260209291908290030181600087803b15801561127057600080fd5b505af1158015611284573d6000803e3d6000fd5b505050506040513d602081101561129a57600080fd5b5050604080518681526020810185905281516001600160a01b0387169233927f7e1a939bed137a819b5d2979822c67f877689f7a863d5e4cb57cdca97b2977d6929081900390910190a35050505050565b6011602052600090815260409020546001600160a01b031681565b60205481565b6000546001600160a01b03163314611359576040805162461bcd60e51b81526020600482018190526024820152600080516020613695833981519152604482015290519081900360640190fd5b6000805b600254811015611431576114276114206002838154811061137a57fe5b600091825260209091200154600280546001600160a01b0390921691859081106113a057fe5b60009182526020918290200154604080516370a0823160e01b815230600482015290516001600160a01b03909216926370a0823192602480840193829003018186803b1580156113ef57600080fd5b505afa158015611403573d6000803e3d6000fd5b505050506040513d602081101561141957600080fd5b505161239b565b8390612f82565b915060010161135d565b5060005b600b5481101561148257611478611420600b838154811061145257fe5b600091825260209091200154600b80546001600160a01b0390921691859081106113a057fe5b9150600101611435565b50602181905560405181906000805160206136b583398151915290600090a260405181907fec691f09f6924b27932253f85caf99bacc30360cc0e50a1cc4d2acc24601446690600090a250565b7f000000000000000000000000000000000000000000000000000000000000000081565b60088181548110610b7157600080fd5b6000546001600160a01b03163314611550576040805162461bcd60e51b81526020600482018190526024820152600080516020613695833981519152604482015290519081900360640190fd5b6001600160a01b0381166115955760405162461bcd60e51b815260040180806020018281038252602681526020018061362c6026913960400191505060405180910390fd5b600080546040516001600160a01b03808516939216917fea8258f2d9ddb679928cf34b78cf645b7feda9acc828e4dd82d014eaae270eba91a3600180546001600160a01b0319166001600160a01b0392909216919091179055565b6000546001600160a01b031690565b601f546001600160a01b031681565b601d6020526000908152604090205460ff1681565b6001546001600160a01b0316331461166c5760405162461bcd60e51b81526004018080602001828103825260228152602001806136526022913960400191505060405180910390fd5b600154600080546040516001600160a01b0393841693909116917faa151555690c956fc3ea32f106bb9f119b5237a061eaa8557cff3e51e3792c8d91a3600154600080546001600160a01b0319166001600160a01b03909216919091179055565b60036020526000908152604090205460ff1681565b336000908152601d602052604090205460ff16611735576040805162461bcd60e51b815260206004820152600c60248201526b139bdd08185c1c1c9bdd995960a21b604482015290519081900360640190fd5b61173d610de3565b811115611789576040805162461bcd60e51b8152602060048201526015602482015274496e73756666696369656e7420726573657276657360581b604482015290519081900360640190fd5b7f00000000000000000000000000000000000000000000000000000000000000006001600160a01b03166340c10f1983836040518363ffffffff1660e01b815260040180836001600160a01b0316815260200182815260200192505050600060405180830381600087803b15801561180057600080fd5b505af1158015611814573d6000803e3d6000fd5b50506040805184815290516001600160a01b03861693503392507ffa8ccab40e7da8146c2304cd0950334fd30a6ba093abe86261aa13911fed849c9181900360200190a35050565b60058181548110610b7157600080fd5b60158181548110610b7157600080fd5b60046020526000908152604090205463ffffffff1681565b7f000000000000000000000000000000000000000000000000000000000000000081565b60188181548110610b7157600080fd5b60096020526000908152604090205460ff1681565b600d6020526000908152604090205463ffffffff1681565b600e8181548110610b7157600080fd5b60215481565b60076020526000908152604090205463ffffffff1681565b600f6020526000908152604090205460ff1681565b600c6020526000908152604090205460ff1681565b60176020526000908152604090205463ffffffff1681565b60146020526000908152604090205463ffffffff1681565b601c8181548110610b7157600080fd5b6001600160a01b03821660009081526003602052604081205460ff16806119cc57506001600160a01b0383166000908152600c602052604090205460ff165b611a0c576040805162461bcd60e51b815260206004820152600c60248201526b139bdd081858d8d95c1d195960a21b604482015290519081900360640190fd5b611a216001600160a01b038416333087612fdc565b6001600160a01b03831660009081526003602052604090205460ff1615611a9a573360009081526006602052604090205460ff16611a95576040805162461bcd60e51b815260206004820152600c60248201526b139bdd08185c1c1c9bdd995960a21b604482015290519081900360640190fd5b611aed565b336000908152600f602052604090205460ff16611aed576040805162461bcd60e51b815260206004820152600c60248201526b139bdd08185c1c1c9bdd995960a21b604482015290519081900360640190fd5b6000611af9848661239b565b9050611b058184612ee9565b91507f00000000000000000000000000000000000000000000000000000000000000006001600160a01b03166340c10f1933846040518363ffffffff1660e01b815260040180836001600160a01b0316815260200182815260200192505050600060405180830381600087803b158015611b7e57600080fd5b505af1158015611b92573d6000803e3d6000fd5b5050602154611ba49250905082612f82565b60218190556040516000805160206136b583398151915290600090a2604080518681526020810183905281516001600160a01b038716927f90890809c654f11d6e72a28fa60149770a0d11ec6c92319d6ceb2bb0a4ea1a15928290030190a2509392505050565b600a6020526000908152604090205463ffffffff1681565b601a6020526000908152604090205463ffffffff1681565b60028181548110610b7157600080fd5b3360009081526019602052604090205460ff16611c9e576040805162461bcd60e51b815260206004820152600c60248201526b139bdd08185c1c1c9bdd995960a21b604482015290519081900360640190fd5b6001600160a01b03811660009081526003602052604090205460ff16611cfa576040805162461bcd60e51b815260206004820152600c60248201526b139bdd081858d8d95c1d195960a21b604482015290519081900360640190fd5b611d0f6001600160a01b038216333085612fdc565b6000611d1b828461239b565b336000908152601b6020526040902054909150611d389082612ee9565b336000908152601b6020526040902055602254611d559082612ee9565b602255602154611d659082612f82565b60218190556040516000805160206136b583398151915290600090a2604080518481526020810183905281516001600160a01b0385169233927fc6d98eecfc9c78ab62c89a82950079b54874749f1f6f24090f7acc758bc2f309929081900390910190a3505050565b60166020526000908152604090205460ff1681565b600080546001600160a01b03163314611e31576040805162461bcd60e51b81526020600482018190526024820152600080516020613695833981519152604482015290519081900360640190fd5b6001600160a01b038216611e4457600080fd5b6000836009811115611e5257fe5b1415611ec157611e8c63ffffffff428116907f00000000000000000000000000000000000000000000000000000000000000009061303c16565b6001600160a01b0383166000908152600760205260409020805463ffffffff191663ffffffff9290921691909117905561231f565b6001836009811115611ecf57fe5b1415611f3e57611f0963ffffffff428116907f00000000000000000000000000000000000000000000000000000000000000009061303c16565b6001600160a01b0383166000908152600a60205260409020805463ffffffff191663ffffffff9290921691909117905561231f565b6002836009811115611f4c57fe5b1415611fbb57611f8663ffffffff428116907f00000000000000000000000000000000000000000000000000000000000000009061303c16565b6001600160a01b0383166000908152600460205260409020805463ffffffff191663ffffffff9290921691909117905561231f565b6003836009811115611fc957fe5b141561204c5761201761200763ffffffff7f000000000000000000000000000000000000000000000000000000000000000081169060029061309f16565b63ffffffff428116919061303c16565b6001600160a01b0383166000908152601460205260409020805463ffffffff191663ffffffff9290921691909117905561231f565b600483600981111561205a57fe5b14156120c95761209463ffffffff428116907f00000000000000000000000000000000000000000000000000000000000000009061303c16565b6001600160a01b0383166000908152601060205260409020805463ffffffff191663ffffffff9290921691909117905561231f565b60058360098111156120d757fe5b14156121465761211163ffffffff428116907f00000000000000000000000000000000000000000000000000000000000000009061303c16565b6001600160a01b0383166000908152600d60205260409020805463ffffffff191663ffffffff9290921691909117905561231f565b600683600981111561215457fe5b14156121c75761219261200763ffffffff7f000000000000000000000000000000000000000000000000000000000000000081169060029061309f16565b6001600160a01b0383166000908152601760205260409020805463ffffffff191663ffffffff9290921691909117905561231f565b60078360098111156121d557fe5b14156122445761220f63ffffffff428116907f00000000000000000000000000000000000000000000000000000000000000009061303c16565b6001600160a01b0383166000908152601a60205260409020805463ffffffff191663ffffffff9290921691909117905561231f565b600883600981111561225257fe5b14156122c15761228c63ffffffff428116907f00000000000000000000000000000000000000000000000000000000000000009061303c16565b6001600160a01b0383166000908152601e60205260409020805463ffffffff191663ffffffff9290921691909117905561231f565b60098360098111156122cf57fe5b14156123175761230963ffffffff428116907f00000000000000000000000000000000000000000000000000000000000000009061303c16565b63ffffffff1660205561231f565b50600061236b565b82600981111561232b57fe5b604080516001600160a01b038516815290517f0e4f2c4b5bc209d509bc3d49348c787fefadc66a79351b470599ac0f5be52eaf9181900360200190a25060015b92915050565b60136020526000908152604090205460ff1681565b60196020526000908152604090205460ff1681565b6001600160a01b03821660009081526003602052604081205460ff16156124d8576124d1836001600160a01b031663313ce5676040518163ffffffff1660e01b815260040160206040518083038186803b1580156123f857600080fd5b505afa15801561240c573d6000803e3d6000fd5b505050506040513d602081101561242257600080fd5b50516040805163313ce56760e01b8152905160ff909216600a0a916124cb916001600160a01b037f0000000000000000000000000000000000000000000000000000000000000000169163313ce56791600480820192602092909190829003018186803b15801561249257600080fd5b505afa1580156124a6573d6000803e3d6000fd5b505050506040513d60208110156124bc57600080fd5b5051859060ff16600a0a613110565b90613169565b905061236b565b6001600160a01b0383166000908152600c602052604090205460ff161561236b576001600160a01b03808416600081815260116020908152604091829020548251634249719f60e01b815260048101949094526024840187905291519190931692634249719f9260448082019391829003018186803b15801561255a57600080fd5b505afa15801561256e573d6000803e3d6000fd5b505050506040513d602081101561258457600080fd5b50519392505050565b601e6020526000908152604090205463ffffffff1681565b600080546001600160a01b031633146125f3576040805162461bcd60e51b81526020600482018190526024820152600080516020613695833981519152604482015290519081900360640190fd5b6001600160a01b03831661260657600080fd5b60008085600981111561261557fe5b14156126db5761262860076006866131ab565b156126ab576001600160a01b0384166000908152600760205260409020805463ffffffff1916905561265b6005856132a4565b6126ab57600580546001810182556000919091527f036b6384b5eca791c62761152d0c79bb0604c104a5fb6f4eb0703f3154bb3db00180546001600160a01b0319166001600160a01b0386161790555b506001600160a01b0383166000908152600660205260409020805460ff81161560ff199091168117909155612e5d565b60018560098111156126e957fe5b14156127af576126fc600a6009866131ab565b1561277f576001600160a01b0384166000908152600a60205260409020805463ffffffff1916905561272f6008856132a4565b61277f57600880546001810182556000919091527ff3f7a9fe364faab93b216da50a3214154f22a0a2b415b23a84c8169e8b636ee30180546001600160a01b0319166001600160a01b0386161790555b506001600160a01b0383166000908152600960205260409020805460ff81161560ff199091168117909155612e5d565b60028560098111156127bd57fe5b1415612883576127d060046003866131ab565b15612853576001600160a01b0384166000908152600460205260409020805463ffffffff191690556128036002856132a4565b61285357600280546001810182556000919091527f405787fa12a823e0f2b7631cc41b3ba8828b3321ca811111fa75cd3aa3bb5ace0180546001600160a01b0319166001600160a01b0386161790555b506001600160a01b0383166000908152600360205260409020805460ff81161560ff199091168117909155612e5d565b600385600981111561289157fe5b1415612994576128a460146013866131ab565b1561296457601280546001810182557fbb8a6a4669ba250d26cd7a459eca9d215f8307e33aebe50379bc5a3617ec34440180546001600160a01b0319166001600160a01b0387169081179091556000908152601460205260409020805463ffffffff1916905561291490856132a4565b61296457601280546001810182556000919091527fbb8a6a4669ba250d26cd7a459eca9d215f8307e33aebe50379bc5a3617ec34440180546001600160a01b0319166001600160a01b0386161790555b506001600160a01b0383166000908152601360205260409020805460ff81161560ff199091168117909155612e5d565b60048560098111156129a257fe5b1415612aa5576129b56010600f866131ab565b15612a7557600e80546001810182557fbb7b4a454dc3493923482f07822329ed19e8244eff582cc204f8554c3620c3fd0180546001600160a01b0319166001600160a01b0387169081179091556000908152601060205260409020805463ffffffff19169055612a2590856132a4565b612a7557600e80546001810182556000919091527fbb7b4a454dc3493923482f07822329ed19e8244eff582cc204f8554c3620c3fd0180546001600160a01b0319166001600160a01b0386161790555b506001600160a01b0383166000908152600f60205260409020805460ff81161560ff199091168117909155612e5d565b6005856009811115612ab357fe5b1415612b9b57612ac6600d600c866131ab565b15612b49576001600160a01b0384166000908152600d60205260409020805463ffffffff19169055612af9600b856132a4565b612b4957600b80546001810182556000919091527f0175b7a638427703f0dbe7bb9bbf987a2551717b34e79f33b5b1008d1fa01db90180546001600160a01b0319166001600160a01b0386161790555b506001600160a01b038381166000908152600c60209081526040808320805460ff81161560ff199091168117909155601190925290912080546001600160a01b03191692851692909217909155612e5d565b6006856009811115612ba957fe5b1415612c6f57612bbc60176016866131ab565b15612c3f576001600160a01b0384166000908152601760205260409020805463ffffffff19169055612bef6015856132a4565b612c3f57601580546001810182556000919091527f55f448fdea98c4d29eb340757ef0a66cd03dbb9538908a6a81d96026b71ec4750180546001600160a01b0319166001600160a01b0386161790555b506001600160a01b0383166000908152601660205260409020805460ff81161560ff199091168117909155612e5d565b6007856009811115612c7d57fe5b1415612d4357612c90601a6019866131ab565b15612d13576001600160a01b0384166000908152601a60205260409020805463ffffffff19169055612cc36018856132a4565b612d1357601880546001810182556000919091527fb13d2d76d1f4b7be834882e410b3e3a8afaf69f83600ae24db354391d2378d2e0180546001600160a01b0319166001600160a01b0386161790555b506001600160a01b0383166000908152601960205260409020805460ff81161560ff199091168117909155612e5d565b6008856009811115612d5157fe5b1415612e1757612d64601e601d866131ab565b15612de7576001600160a01b0384166000908152601e60205260409020805463ffffffff19169055612d97601c856132a4565b612de757601c80546001810182556000919091527f0e4562a10381dec21b205ed72637e6b1b523bdd0e4d4d50af5cd23dd4500a2110180546001600160a01b0319166001600160a01b0386161790555b506001600160a01b0383166000908152601d60205260409020805460ff81161560ff199091168117909155612e5d565b6009856009811115612e2557fe5b1415612e5357506000602055601f80546001600160a01b0319166001600160a01b0385161790556001612e5d565b6000915050612eb4565b846009811115612e6957fe5b604080516001600160a01b0387168152831515602082015281517f0dcacb7e392f3d6a216ed2660e3dcfd40b7793d33591db2ba185a6b8e44fc477929181900390910190a260019150505b9392505050565b60225481565b600b8181548110610b7157600080fd5b60106020526000908152604090205463ffffffff1681565b6000612eb483836040518060400160405280601e81526020017f536166654d6174683a207375627472616374696f6e206f766572666c6f7700008152506132f4565b604080516001600160a01b038416602482015260448082018490528251808303909101815260649091019091526020810180516001600160e01b031663a9059cbb60e01b179052612f7d90849061338b565b505050565b600082820183811015612eb4576040805162461bcd60e51b815260206004820152601b60248201527f536166654d6174683a206164646974696f6e206f766572666c6f770000000000604482015290519081900360640190fd5b604080516001600160a01b0380861660248301528416604482015260648082018490528251808303909101815260849091019091526020810180516001600160e01b03166323b872dd60e01b17905261303690859061338b565b50505050565b600082820163ffffffff8085169082161015612eb4576040805162461bcd60e51b815260206004820152601b60248201527f536166654d6174683a206164646974696f6e206f766572666c6f770000000000604482015290519081900360640190fd5b600063ffffffff83166130b45750600061236b565b82820263ffffffff80841690808616908316816130cd57fe5b0463ffffffff1614612eb45760405162461bcd60e51b81526004018080602001828103825260218152602001806136746021913960400191505060405180910390fd5b60008261311f5750600061236b565b8282028284828161312c57fe5b0414612eb45760405162461bcd60e51b81526004018080602001828103825260218152602001806136746021913960400191505060405180910390fd5b6000612eb483836040518060400160405280601a81526020017f536166654d6174683a206469766973696f6e206279207a65726f00000000000081525061343c565b6001600160a01b03811660009081526020839052604081205460ff1661329a576001600160a01b03821660009081526020859052604090205463ffffffff16613228576040805162461bcd60e51b815260206004820152600a6024820152694d75737420717565756560b01b604482015290519081900360640190fd5b6001600160a01b03821660009081526020859052604090205463ffffffff42811691161115613292576040805162461bcd60e51b8152602060048201526011602482015270145d595d59481b9bdd08195e1c1a5c9959607a1b604482015290519081900360640190fd5b506001612eb4565b5060009392505050565b6000805b835481101561329a57826001600160a01b03168482815481106132c757fe5b6000918252602090912001546001600160a01b031614156132ec57600191505061236b565b6001016132a8565b600081848411156133835760405162461bcd60e51b81526004018080602001828103825283818151815260200191508051906020019080838360005b83811015613348578181015183820152602001613330565b50505050905090810190601f1680156133755780820380516001836020036101000a031916815260200191505b509250505060405180910390fd5b505050900390565b60606133e0826040518060400160405280602081526020017f5361666545524332303a206c6f772d6c6576656c2063616c6c206661696c6564815250856001600160a01b03166134a19092919063ffffffff16565b805190915015612f7d578080602001905160208110156133ff57600080fd5b5051612f7d5760405162461bcd60e51b815260040180806020018281038252602a8152602001806136d5602a913960400191505060405180910390fd5b6000818361348b5760405162461bcd60e51b8152602060048201818152835160248401528351909283926044909101919085019080838360008315613348578181015183820152602001613330565b50600083858161349757fe5b0495945050505050565b60606134b084846000856134b8565b949350505050565b60606134c385613625565b613514576040805162461bcd60e51b815260206004820152601d60248201527f416464726573733a2063616c6c20746f206e6f6e2d636f6e7472616374000000604482015290519081900360640190fd5b60006060866001600160a01b031685876040518082805190602001908083835b602083106135535780518252601f199092019160209182019101613534565b6001836020036101000a03801982511681845116808217855250505050505090500191505060006040518083038185875af1925050503d80600081146135b5576040519150601f19603f3d011682016040523d82523d6000602084013e6135ba565b606091505b509150915081156135ce5791506134b09050565b8051156135de5780518082602001fd5b60405162461bcd60e51b8152602060048201818152865160248401528651879391928392604401919085019080838360008315613348578181015183820152602001613330565b3b15159056fe4f776e61626c653a206e6577206f776e657220697320746865207a65726f20616464726573734f776e61626c653a206d757374206265206e6577206f776e657220746f2070756c6c536166654d6174683a206d756c7469706c69636174696f6e206f766572666c6f774f776e61626c653a2063616c6c6572206973206e6f7420746865206f776e657293bb8edd35984706eee1b92541281f7f62d33c01c5b2ec0929a113603bd21d665361666545524332303a204552433230206f7065726174696f6e20646964206e6f742073756363656564a26469706673582212204d350957b3cd041bdb9f4f3605ce7eb2620ceb1ea87f523b6d820ef300231b7364736f6c63430007050033",
  "devdoc": {
    "kind": "dev",
    "methods": {
      "deposit(uint256,address,uint256)": {
        "params": {
          "_amount": "uint",
          "_profit": "uint",
          "_token": "address"
        },
        "returns": {
          "send_": "uint"
        }
      },
      "excessReserves()": {
        "returns": {
          "_0": "uint"
        }
      },
      "incurDebt(uint256,address)": {
        "params": {
          "_amount": "uint",
          "_token": "address"
        }
      },
      "manage(address,uint256)": {
        "params": {
          "_amount": "uint",
          "_token": "address"
        }
      },
      "queue(uint8,address)": {
        "params": {
          "_address": "address",
          "_managing": "MANAGING"
        },
        "returns": {
          "_0": "bool"
        }
      },
      "repayDebtWithOHM(uint256)": {
        "params": {
          "_amount": "uint"
        }
      },
      "repayDebtWithReserve(uint256,address)": {
        "params": {
          "_amount": "uint",
          "_token": "address"
        }
      },
      "toggle(uint8,address,address)": {
        "params": {
          "_address": "address",
          "_calculator": "address",
          "_managing": "MANAGING"
        },
        "returns": {
          "_0": "bool"
        }
      },
      "tokenValue(address,uint256)": {
        "params": {
          "_amount": "uint",
          "_token": "address"
        },
        "returns": {
          "value_": "uint"
        }
      },
      "withdraw(uint256,address)": {
        "params": {
          "_amount": "uint",
          "_token": "address"
        }
      }
    },
    "version": 1
  },
  "userdoc": {
    "kind": "user",
    "methods": {
      "auditReserves()": {
        "notice": "takes inventory of all tracked assetsalways consolidate to recognized reserves before audit"
      },
      "deposit(uint256,address,uint256)": {
        "notice": "allow approved address to deposit an asset for OHM"
      },
      "excessReserves()": {
        "notice": "returns excess reserves not backing tokens"
      },
      "incurDebt(uint256,address)": {
        "notice": "allow approved address to borrow reserves"
      },
      "manage(address,uint256)": {
        "notice": "allow approved address to withdraw assets"
      },
      "mintRewards(address,uint256)": {
        "notice": "send epoch reward to staking contract"
      },
      "queue(uint8,address)": {
        "notice": "queue address to change boolean in mapping"
      },
      "repayDebtWithOHM(uint256)": {
        "notice": "allow approved address to repay borrowed reserves with OHM"
      },
      "repayDebtWithReserve(uint256,address)": {
        "notice": "allow approved address to repay borrowed reserves with reserves"
      },
      "toggle(uint8,address,address)": {
        "notice": "verify queue then set boolean in mapping"
      },
      "tokenValue(address,uint256)": {
        "notice": "returns BASH valuation of asset"
      },
      "withdraw(uint256,address)": {
        "notice": "allow approved address to burn OHM for reserves"
      }
    },
    "version": 1
  },
  "storageLayout": {
    "storage": [
      {
        "astId": 13022,
        "contract": "contracts/Treasury.sol:BashTreasury",
        "label": "_owner",
        "offset": 0,
        "slot": "0",
        "type": "t_address"
      },
      {
        "astId": 13024,
        "contract": "contracts/Treasury.sol:BashTreasury",
        "label": "_newOwner",
        "offset": 0,
        "slot": "1",
        "type": "t_address"
      },
      {
        "astId": 13371,
        "contract": "contracts/Treasury.sol:BashTreasury",
        "label": "reserveTokens",
        "offset": 0,
        "slot": "2",
        "type": "t_array(t_address)dyn_storage"
      },
      {
        "astId": 13375,
        "contract": "contracts/Treasury.sol:BashTreasury",
        "label": "isReserveToken",
        "offset": 0,
        "slot": "3",
        "type": "t_mapping(t_address,t_bool)"
      },
      {
        "astId": 13379,
        "contract": "contracts/Treasury.sol:BashTreasury",
        "label": "reserveTokenQueue",
        "offset": 0,
        "slot": "4",
        "type": "t_mapping(t_address,t_uint32)"
      },
      {
        "astId": 13382,
        "contract": "contracts/Treasury.sol:BashTreasury",
        "label": "reserveDepositors",
        "offset": 0,
        "slot": "5",
        "type": "t_array(t_address)dyn_storage"
      },
      {
        "astId": 13386,
        "contract": "contracts/Treasury.sol:BashTreasury",
        "label": "isReserveDepositor",
        "offset": 0,
        "slot": "6",
        "type": "t_mapping(t_address,t_bool)"
      },
      {
        "astId": 13390,
        "contract": "contracts/Treasury.sol:BashTreasury",
        "label": "reserveDepositorQueue",
        "offset": 0,
        "slot": "7",
        "type": "t_mapping(t_address,t_uint32)"
      },
      {
        "astId": 13393,
        "contract": "contracts/Treasury.sol:BashTreasury",
        "label": "reserveSpenders",
        "offset": 0,
        "slot": "8",
        "type": "t_array(t_address)dyn_storage"
      },
      {
        "astId": 13397,
        "contract": "contracts/Treasury.sol:BashTreasury",
        "label": "isReserveSpender",
        "offset": 0,
        "slot": "9",
        "type": "t_mapping(t_address,t_bool)"
      },
      {
        "astId": 13401,
        "contract": "contracts/Treasury.sol:BashTreasury",
        "label": "reserveSpenderQueue",
        "offset": 0,
        "slot": "10",
        "type": "t_mapping(t_address,t_uint32)"
      },
      {
        "astId": 13404,
        "contract": "contracts/Treasury.sol:BashTreasury",
        "label": "liquidityTokens",
        "offset": 0,
        "slot": "11",
        "type": "t_array(t_address)dyn_storage"
      },
      {
        "astId": 13408,
        "contract": "contracts/Treasury.sol:BashTreasury",
        "label": "isLiquidityToken",
        "offset": 0,
        "slot": "12",
        "type": "t_mapping(t_address,t_bool)"
      },
      {
        "astId": 13412,
        "contract": "contracts/Treasury.sol:BashTreasury",
        "label": "LiquidityTokenQueue",
        "offset": 0,
        "slot": "13",
        "type": "t_mapping(t_address,t_uint32)"
      },
      {
        "astId": 13415,
        "contract": "contracts/Treasury.sol:BashTreasury",
        "label": "liquidityDepositors",
        "offset": 0,
        "slot": "14",
        "type": "t_array(t_address)dyn_storage"
      },
      {
        "astId": 13419,
        "contract": "contracts/Treasury.sol:BashTreasury",
        "label": "isLiquidityDepositor",
        "offset": 0,
        "slot": "15",
        "type": "t_mapping(t_address,t_bool)"
      },
      {
        "astId": 13423,
        "contract": "contracts/Treasury.sol:BashTreasury",
        "label": "LiquidityDepositorQueue",
        "offset": 0,
        "slot": "16",
        "type": "t_mapping(t_address,t_uint32)"
      },
      {
        "astId": 13427,
        "contract": "contracts/Treasury.sol:BashTreasury",
        "label": "bondCalculator",
        "offset": 0,
        "slot": "17",
        "type": "t_mapping(t_address,t_address)"
      },
      {
        "astId": 13430,
        "contract": "contracts/Treasury.sol:BashTreasury",
        "label": "reserveManagers",
        "offset": 0,
        "slot": "18",
        "type": "t_array(t_address)dyn_storage"
      },
      {
        "astId": 13434,
        "contract": "contracts/Treasury.sol:BashTreasury",
        "label": "isReserveManager",
        "offset": 0,
        "slot": "19",
        "type": "t_mapping(t_address,t_bool)"
      },
      {
        "astId": 13438,
        "contract": "contracts/Treasury.sol:BashTreasury",
        "label": "ReserveManagerQueue",
        "offset": 0,
        "slot": "20",
        "type": "t_mapping(t_address,t_uint32)"
      },
      {
        "astId": 13441,
        "contract": "contracts/Treasury.sol:BashTreasury",
        "label": "liquidityManagers",
        "offset": 0,
        "slot": "21",
        "type": "t_array(t_address)dyn_storage"
      },
      {
        "astId": 13445,
        "contract": "contracts/Treasury.sol:BashTreasury",
        "label": "isLiquidityManager",
        "offset": 0,
        "slot": "22",
        "type": "t_mapping(t_address,t_bool)"
      },
      {
        "astId": 13449,
        "contract": "contracts/Treasury.sol:BashTreasury",
        "label": "LiquidityManagerQueue",
        "offset": 0,
        "slot": "23",
        "type": "t_mapping(t_address,t_uint32)"
      },
      {
        "astId": 13452,
        "contract": "contracts/Treasury.sol:BashTreasury",
        "label": "debtors",
        "offset": 0,
        "slot": "24",
        "type": "t_array(t_address)dyn_storage"
      },
      {
        "astId": 13456,
        "contract": "contracts/Treasury.sol:BashTreasury",
        "label": "isDebtor",
        "offset": 0,
        "slot": "25",
        "type": "t_mapping(t_address,t_bool)"
      },
      {
        "astId": 13460,
        "contract": "contracts/Treasury.sol:BashTreasury",
        "label": "debtorQueue",
        "offset": 0,
        "slot": "26",
        "type": "t_mapping(t_address,t_uint32)"
      },
      {
        "astId": 13464,
        "contract": "contracts/Treasury.sol:BashTreasury",
        "label": "debtorBalance",
        "offset": 0,
        "slot": "27",
        "type": "t_mapping(t_address,t_uint256)"
      },
      {
        "astId": 13467,
        "contract": "contracts/Treasury.sol:BashTreasury",
        "label": "rewardManagers",
        "offset": 0,
        "slot": "28",
        "type": "t_array(t_address)dyn_storage"
      },
      {
        "astId": 13471,
        "contract": "contracts/Treasury.sol:BashTreasury",
        "label": "isRewardManager",
        "offset": 0,
        "slot": "29",
        "type": "t_mapping(t_address,t_bool)"
      },
      {
        "astId": 13475,
        "contract": "contracts/Treasury.sol:BashTreasury",
        "label": "rewardManagerQueue",
        "offset": 0,
        "slot": "30",
        "type": "t_mapping(t_address,t_uint32)"
      },
      {
        "astId": 13477,
        "contract": "contracts/Treasury.sol:BashTreasury",
        "label": "MEMOries",
        "offset": 0,
        "slot": "31",
        "type": "t_address"
      },
      {
        "astId": 13479,
        "contract": "contracts/Treasury.sol:BashTreasury",
        "label": "sOHMQueue",
        "offset": 0,
        "slot": "32",
        "type": "t_uint256"
      },
      {
        "astId": 13481,
        "contract": "contracts/Treasury.sol:BashTreasury",
        "label": "totalReserves",
        "offset": 0,
        "slot": "33",
        "type": "t_uint256"
      },
      {
        "astId": 13483,
        "contract": "contracts/Treasury.sol:BashTreasury",
        "label": "totalDebt",
        "offset": 0,
        "slot": "34",
        "type": "t_uint256"
      }
    ],
    "types": {
      "t_address": {
        "encoding": "inplace",
        "label": "address",
        "numberOfBytes": "20"
      },
      "t_array(t_address)dyn_storage": {
        "base": "t_address",
        "encoding": "dynamic_array",
        "label": "address[]",
        "numberOfBytes": "32"
      },
      "t_bool": {
        "encoding": "inplace",
        "label": "bool",
        "numberOfBytes": "1"
      },
      "t_mapping(t_address,t_address)": {
        "encoding": "mapping",
        "key": "t_address",
        "label": "mapping(address => address)",
        "numberOfBytes": "32",
        "value": "t_address"
      },
      "t_mapping(t_address,t_bool)": {
        "encoding": "mapping",
        "key": "t_address",
        "label": "mapping(address => bool)",
        "numberOfBytes": "32",
        "value": "t_bool"
      },
      "t_mapping(t_address,t_uint256)": {
        "encoding": "mapping",
        "key": "t_address",
        "label": "mapping(address => uint256)",
        "numberOfBytes": "32",
        "value": "t_uint256"
      },
      "t_mapping(t_address,t_uint32)": {
        "encoding": "mapping",
        "key": "t_address",
        "label": "mapping(address => uint32)",
        "numberOfBytes": "32",
        "value": "t_uint32"
      },
      "t_uint256": {
        "encoding": "inplace",
        "label": "uint256",
        "numberOfBytes": "32"
      },
      "t_uint32": {
        "encoding": "inplace",
        "label": "uint32",
        "numberOfBytes": "4"
      }
    }
  }
}