{
  "address": "0x959922bE3CAee4b8Cd9a407cc3ac1C251C2007B1",
  "abi": [
    {
      "inputs": [
        {
          "internalType": "address",
          "name": "abashAddress",
          "type": "address"
        },
        {
          "internalType": "address",
          "name": "bashAddress",
          "type": "address"
        },
        {
          "internalType": "address",
          "name": "presaleContractAddress",
          "type": "address"
        }
      ],
      "stateMutability": "nonpayable",
      "type": "constructor"
    },
    {
      "anonymous": false,
      "inputs": [
        {
          "indexed": true,
          "internalType": "address",
          "name": "previousOwner",
          "type": "address"
        },
        {
          "indexed": true,
          "internalType": "address",
          "name": "newOwner",
          "type": "address"
        }
      ],
      "name": "OwnershipTransferred",
      "type": "event"
    },
    {
      "anonymous": false,
      "inputs": [
        {
          "indexed": false,
          "internalType": "address",
          "name": "redeemer",
          "type": "address"
        },
        {
          "indexed": false,
          "internalType": "uint256",
          "name": "bashAmount",
          "type": "uint256"
        },
        {
          "indexed": false,
          "internalType": "uint256",
          "name": "totalBashLeftToRedeem",
          "type": "uint256"
        }
      ],
      "name": "Redeemed",
      "type": "event"
    },
    {
      "inputs": [],
      "name": "abash",
      "outputs": [
        {
          "internalType": "contract IERC20WithMetadata",
          "name": "",
          "type": "address"
        }
      ],
      "stateMutability": "view",
      "type": "function"
    },
    {
      "inputs": [],
      "name": "bash",
      "outputs": [
        {
          "internalType": "contract IERC20WithMetadata",
          "name": "",
          "type": "address"
        }
      ],
      "stateMutability": "view",
      "type": "function"
    },
    {
      "inputs": [],
      "name": "owner",
      "outputs": [
        {
          "internalType": "address",
          "name": "",
          "type": "address"
        }
      ],
      "stateMutability": "view",
      "type": "function"
    },
    {
      "inputs": [],
      "name": "presale",
      "outputs": [
        {
          "internalType": "address",
          "name": "",
          "type": "address"
        }
      ],
      "stateMutability": "view",
      "type": "function"
    },
    {
      "inputs": [
        {
          "internalType": "uint256",
          "name": "amount",
          "type": "uint256"
        }
      ],
      "name": "redeem",
      "outputs": [],
      "stateMutability": "nonpayable",
      "type": "function"
    },
    {
      "inputs": [],
      "name": "remaining",
      "outputs": [
        {
          "internalType": "uint256",
          "name": "amount",
          "type": "uint256"
        }
      ],
      "stateMutability": "view",
      "type": "function"
    },
    {
      "inputs": [
        {
          "internalType": "address",
          "name": "tokenAddress",
          "type": "address"
        }
      ],
      "name": "removeERC20",
      "outputs": [],
      "stateMutability": "nonpayable",
      "type": "function"
    },
    {
      "inputs": [],
      "name": "renounceOwnership",
      "outputs": [],
      "stateMutability": "nonpayable",
      "type": "function"
    },
    {
      "inputs": [
        {
          "internalType": "address",
          "name": "newOwner",
          "type": "address"
        }
      ],
      "name": "transferOwnership",
      "outputs": [],
      "stateMutability": "nonpayable",
      "type": "function"
    }
  ],
  "transactionHash": "0x7ee9ac2d2672b3f7e2a1e2854430fe4da8ce547757ca00dc4beecb9031883b20",
  "args": [
    "0x5FbDB2315678afecb367f032d93F642f64180aa3",
    "0xe7f1725E7734CE288F8367e1Bb143E90bb3F0512",
    "0xA51c1fc2f0D1a1b8494Ed1FE312d7C3a78Ed91C0"
  ],
  "numDeployments": 1,
  "solcInputHash": "22d58ea908f37f379428bd60cffdf580",
  "bytecode": "0x608060405234801561001057600080fd5b5060405162000e8138038062000e81833981016040819052610031916101ce565b61003a33610162565b6001600160a01b0383166100855760405162461bcd60e51b815260206004820152600d60248201526c4142415348206164647265737360981b60448201526064015b60405180910390fd5b6001600160a01b0382166100ca5760405162461bcd60e51b815260206004820152600c60248201526b42415348206164647265737360a01b604482015260640161007c565b6001600160a01b0381166101205760405162461bcd60e51b815260206004820152601660248201527f4174626173682050726573616c65206164647265737300000000000000000000604482015260640161007c565b600280546001600160a01b039485166001600160a01b031991821617909155600180549385169382169390931790925560038054919093169116179055610211565b600080546001600160a01b038381166001600160a01b0319831681178455604051919092169283917f8be0079c531659141344cd1fd0a4f28419497f9722a3daafe3b4186f6b6457e09190a35050565b80516001600160a01b03811681146101c957600080fd5b919050565b6000806000606084860312156101e357600080fd5b6101ec846101b2565b92506101fa602085016101b2565b9150610208604085016101b2565b90509250925092565b610c6080620002216000396000f3fe608060405234801561001057600080fd5b50600436106100a35760003560e01c8063a67755c211610076578063f2fde38b1161005b578063f2fde38b1461012f578063f54d1bed14610142578063fdea8e0b1461015557600080fd5b8063a67755c214610109578063db006a751461011c57600080fd5b8063474bc79f146100a857806355234ec0146100d8578063715018a6146100ee5780638da5cb5b146100f8575b600080fd5b6001546100bb906001600160a01b031681565b6040516001600160a01b0390911681526020015b60405180910390f35b6100e0610168565b6040519081526020016100cf565b6100f66102d3565b005b6000546001600160a01b03166100bb565b6100f6610117366004610a22565b61033e565b6100f661012a366004610a52565b6104e0565b6100f661013d366004610a22565b6108ae565b6002546100bb906001600160a01b031681565b6003546100bb906001600160a01b031681565b6002546040516370a0823160e01b81523060048201526000916102ce916001600160a01b03909116906370a0823190602401602060405180830381865afa1580156101b7573d6000803e3d6000fd5b505050506040513d601f19601f820116820180604052508101906101db9190610a6b565b6002546003546040516370a0823160e01b81526001600160a01b0391821660048201526102c89291909116906370a0823190602401602060405180830381865afa15801561022d573d6000803e3d6000fd5b505050506040513d601f19601f820116820180604052508101906102519190610a6b565b600260009054906101000a90046001600160a01b03166001600160a01b03166318160ddd6040518163ffffffff1660e01b8152600401602060405180830381865afa1580156102a4573d6000803e3d6000fd5b505050506040513d601f19601f820116820180604052508101906102c89190610a6b565b9061098d565b905090565b6000546001600160a01b031633146103325760405162461bcd60e51b815260206004820181905260248201527f4f776e61626c653a2063616c6c6572206973206e6f7420746865206f776e657260448201526064015b60405180910390fd5b61033c60006109a2565b565b6000546001600160a01b031633146103985760405162461bcd60e51b815260206004820181905260248201527f4f776e61626c653a2063616c6c6572206973206e6f7420746865206f776e65726044820152606401610329565b6040516370a0823160e01b81523060048201526001600160a01b0382169063a9059cbb90339083906370a0823190602401602060405180830381865afa1580156103e6573d6000803e3d6000fd5b505050506040513d601f19601f8201168201806040525081019061040a9190610a6b565b6040517fffffffff0000000000000000000000000000000000000000000000000000000060e085901b1681526001600160a01b03909216600483015260248201526044016020604051808303816000875af115801561046d573d6000803e3d6000fd5b505050506040513d601f19601f820116820180604052508101906104919190610a84565b6104dd5760405162461bcd60e51b815260206004820152601660248201527f4661696c656420746f2072656d6f7665204552433230000000000000000000006044820152606401610329565b50565b600081116105305760405162461bcd60e51b815260206004820152600e60248201527f496e76616c696420616d6f756e740000000000000000000000000000000000006044820152606401610329565b600061063e600260009054906101000a90046001600160a01b03166001600160a01b031663313ce5676040518163ffffffff1660e01b8152600401602060405180830381865afa158015610588573d6000803e3d6000fd5b505050506040513d601f19601f820116820180604052508101906105ac9190610aa6565b6105b790600a610bc3565b6001546040805163313ce56760e01b81529051610638926001600160a01b03169163313ce5679160048083019260209291908290030181865afa158015610602573d6000803e3d6000fd5b505050506040513d601f19601f820116820180604052508101906106269190610aa6565b61063190600a610bc3565b8590610a0a565b90610a16565b6001546040516370a0823160e01b81523060048201529192506001600160a01b0316906370a0823190602401602060405180830381865afa158015610687573d6000803e3d6000fd5b505050506040513d601f19601f820116820180604052508101906106ab9190610a6b565b8111156107065760405162461bcd60e51b8152602060048201526024808201527f4e6f7420656e6f7567682066756e647320746f20636f76657220726564656d706044820152633a34b7b760e11b6064820152608401610329565b6002546040516323b872dd60e01b8152336004820152306024820152604481018490526001600160a01b03909116906323b872dd906064016020604051808303816000875af115801561075d573d6000803e3d6000fd5b505050506040513d601f19601f820116820180604052508101906107819190610a84565b5060015460405163a9059cbb60e01b8152336004820152602481018390526001600160a01b039091169063a9059cbb906044016020604051808303816000875af11580156107d3573d6000803e3d6000fd5b505050506040513d601f19601f820116820180604052508101906107f79190610a84565b506001546040516370a0823160e01b81523060048201526000916001600160a01b0316906370a0823190602401602060405180830381865afa158015610841573d6000803e3d6000fd5b505050506040513d601f19601f820116820180604052508101906108659190610a6b565b60408051338152602081018590529081018290529091507ff3a670cd3af7d64b488926880889d08a8585a138ff455227af6737339a1ec2629060600160405180910390a1505050565b6000546001600160a01b031633146109085760405162461bcd60e51b815260206004820181905260248201527f4f776e61626c653a2063616c6c6572206973206e6f7420746865206f776e65726044820152606401610329565b6001600160a01b0381166109845760405162461bcd60e51b815260206004820152602660248201527f4f776e61626c653a206e6577206f776e657220697320746865207a65726f206160448201527f64647265737300000000000000000000000000000000000000000000000000006064820152608401610329565b6104dd816109a2565b60006109998284610bd2565b90505b92915050565b600080546001600160a01b038381167fffffffffffffffffffffffff0000000000000000000000000000000000000000831681178455604051919092169283917f8be0079c531659141344cd1fd0a4f28419497f9722a3daafe3b4186f6b6457e09190a35050565b60006109998284610be9565b60006109998284610c08565b600060208284031215610a3457600080fd5b81356001600160a01b0381168114610a4b57600080fd5b9392505050565b600060208284031215610a6457600080fd5b5035919050565b600060208284031215610a7d57600080fd5b5051919050565b600060208284031215610a9657600080fd5b81518015158114610a4b57600080fd5b600060208284031215610ab857600080fd5b815160ff81168114610a4b57600080fd5b634e487b7160e01b600052601160045260246000fd5b600181815b80851115610b1a578160001904821115610b0057610b00610ac9565b80851615610b0d57918102915b93841c9390800290610ae4565b509250929050565b600082610b315750600161099c565b81610b3e5750600061099c565b8160018114610b545760028114610b5e57610b7a565b600191505061099c565b60ff841115610b6f57610b6f610ac9565b50506001821b61099c565b5060208310610133831016604e8410600b8410161715610b9d575081810a61099c565b610ba78383610adf565b8060001904821115610bbb57610bbb610ac9565b029392505050565b600061099960ff841683610b22565b600082821015610be457610be4610ac9565b500390565b6000816000190483118215151615610c0357610c03610ac9565b500290565b600082610c2557634e487b7160e01b600052601260045260246000fd5b50049056fea264697066735822122047fe0f9dff7f5822beacb080113205ba9afa4160afbe7f73e8d076a846643db564736f6c634300080a0033",
  "devdoc": {
    "kind": "dev",
    "methods": {
      "owner()": {
        "details": "Returns the address of the current owner."
      },
      "renounceOwnership()": {
        "details": "Leaves the contract without owner. It will not be possible to call `onlyOwner` functions anymore. Can only be called by the current owner. NOTE: Renouncing ownership will leave the contract without an owner, thereby removing any functionality that is only available to the owner."
      },
      "transferOwnership(address)": {
        "details": "Transfers ownership of the contract to a new account (`newOwner`). Can only be called by the current owner."
      }
    },
    "version": 1
  },
  "userdoc": {
    "kind": "user",
    "methods": {},
    "version": 1
  },
  "storageLayout": {
    "storage": [
      {
        "astId": 7,
        "contract": "contracts/Presale/PresaleRedemption.sol:PresaleRedemption",
        "label": "_owner",
        "offset": 0,
        "slot": "0",
        "type": "t_address"
      },
      {
        "astId": 2712,
        "contract": "contracts/Presale/PresaleRedemption.sol:PresaleRedemption",
        "label": "bash",
        "offset": 0,
        "slot": "1",
        "type": "t_contract(IERC20WithMetadata)2704"
      },
      {
        "astId": 2715,
        "contract": "contracts/Presale/PresaleRedemption.sol:PresaleRedemption",
        "label": "abash",
        "offset": 0,
        "slot": "2",
        "type": "t_contract(IERC20WithMetadata)2704"
      },
      {
        "astId": 2717,
        "contract": "contracts/Presale/PresaleRedemption.sol:PresaleRedemption",
        "label": "presale",
        "offset": 0,
        "slot": "3",
        "type": "t_address"
      }
    ],
    "types": {
      "t_address": {
        "encoding": "inplace",
        "label": "address",
        "numberOfBytes": "20"
      },
      "t_contract(IERC20WithMetadata)2704": {
        "encoding": "inplace",
        "label": "contract IERC20WithMetadata",
        "numberOfBytes": "20"
      }
    }
  }
}