{
  "address": "0x959922bE3CAee4b8Cd9a407cc3ac1C251C2007B1",
  "abi": [
    {
      "inputs": [
        {
          "internalType": "address",
          "name": "abashAddress",
          "type": "address"
        },
        {
          "internalType": "address",
          "name": "bashAddress",
          "type": "address"
        },
        {
          "internalType": "address",
          "name": "presaleContractAddress",
          "type": "address"
        }
      ],
      "stateMutability": "nonpayable",
      "type": "constructor"
    },
    {
      "inputs": [],
      "name": "abash",
      "outputs": [
        {
          "internalType": "contract IERC20WithMetadata",
          "name": "",
          "type": "address"
        }
      ],
      "stateMutability": "view",
      "type": "function"
    },
    {
      "inputs": [],
      "name": "bash",
      "outputs": [
        {
          "internalType": "contract IERC20WithMetadata",
          "name": "",
          "type": "address"
        }
      ],
      "stateMutability": "view",
      "type": "function"
    },
    {
      "inputs": [],
      "name": "presale",
      "outputs": [
        {
          "internalType": "address",
          "name": "",
          "type": "address"
        }
      ],
      "stateMutability": "view",
      "type": "function"
    },
    {
      "inputs": [
        {
          "internalType": "uint256",
          "name": "amount",
          "type": "uint256"
        }
      ],
      "name": "redeem",
      "outputs": [],
      "stateMutability": "nonpayable",
      "type": "function"
    },
    {
      "inputs": [],
      "name": "remaining",
      "outputs": [
        {
          "internalType": "uint256",
          "name": "amount",
          "type": "uint256"
        }
      ],
      "stateMutability": "view",
      "type": "function"
    }
  ],
  "transactionHash": "0xe8f93f6843e67e2742cb19ee81f53e3ece85485a25332e649e7a4ebcc388e36e",
  "args": [
    "0x5FbDB2315678afecb367f032d93F642f64180aa3",
    "0xe7f1725E7734CE288F8367e1Bb143E90bb3F0512",
    "0xA51c1fc2f0D1a1b8494Ed1FE312d7C3a78Ed91C0"
  ],
  "numDeployments": 1,
  "solcInputHash": "80799054d2f979efa3e1f9cd9b96ba95",
  "bytecode": "0x60806040523480156200001157600080fd5b50604051620012c7380380620012c78339818101604052810190620000379190620002c5565b600073ffffffffffffffffffffffffffffffffffffffff168373ffffffffffffffffffffffffffffffffffffffff161415620000aa576040517f08c379a0000000000000000000000000000000000000000000000000000000008152600401620000a19062000382565b60405180910390fd5b600073ffffffffffffffffffffffffffffffffffffffff168273ffffffffffffffffffffffffffffffffffffffff1614156200011d576040517f08c379a00000000000000000000000000000000000000000000000000000000081526004016200011490620003f4565b60405180910390fd5b600073ffffffffffffffffffffffffffffffffffffffff168173ffffffffffffffffffffffffffffffffffffffff16141562000190576040517f08c379a0000000000000000000000000000000000000000000000000000000008152600401620001879062000466565b60405180910390fd5b82600160006101000a81548173ffffffffffffffffffffffffffffffffffffffff021916908373ffffffffffffffffffffffffffffffffffffffff160217905550816000806101000a81548173ffffffffffffffffffffffffffffffffffffffff021916908373ffffffffffffffffffffffffffffffffffffffff16021790555080600260006101000a81548173ffffffffffffffffffffffffffffffffffffffff021916908373ffffffffffffffffffffffffffffffffffffffff16021790555050505062000488565b600080fd5b600073ffffffffffffffffffffffffffffffffffffffff82169050919050565b60006200028d8262000260565b9050919050565b6200029f8162000280565b8114620002ab57600080fd5b50565b600081519050620002bf8162000294565b92915050565b600080600060608486031215620002e157620002e06200025b565b5b6000620002f186828701620002ae565b93505060206200030486828701620002ae565b92505060406200031786828701620002ae565b9150509250925092565b600082825260208201905092915050565b7f4142415348206164647265737300000000000000000000000000000000000000600082015250565b60006200036a600d8362000321565b9150620003778262000332565b602082019050919050565b600060208201905081810360008301526200039d816200035b565b9050919050565b7f4241534820616464726573730000000000000000000000000000000000000000600082015250565b6000620003dc600c8362000321565b9150620003e982620003a4565b602082019050919050565b600060208201905081810360008301526200040f81620003cd565b9050919050565b7f4174626173682050726573616c65206164647265737300000000000000000000600082015250565b60006200044e60168362000321565b91506200045b8262000416565b602082019050919050565b6000602082019050818103600083015262000481816200043f565b9050919050565b610e2f80620004986000396000f3fe608060405234801561001057600080fd5b50600436106100575760003560e01c8063474bc79f1461005c57806355234ec01461007a578063db006a7514610098578063f54d1bed146100b4578063fdea8e0b146100d2575b600080fd5b6100646100f0565b60405161007191906107f9565b60405180910390f35b610082610114565b60405161008f919061082d565b60405180910390f35b6100b260048036038101906100ad9190610879565b610328565b005b6100bc6106ec565b6040516100c991906107f9565b60405180910390f35b6100da610712565b6040516100e791906108c7565b60405180910390f35b60008054906101000a900473ffffffffffffffffffffffffffffffffffffffff1681565b6000610323600160009054906101000a900473ffffffffffffffffffffffffffffffffffffffff1673ffffffffffffffffffffffffffffffffffffffff166370a08231306040518263ffffffff1660e01b815260040161017491906108c7565b602060405180830381865afa158015610191573d6000803e3d6000fd5b505050506040513d601f19601f820116820180604052508101906101b591906108f7565b610315600160009054906101000a900473ffffffffffffffffffffffffffffffffffffffff1673ffffffffffffffffffffffffffffffffffffffff166370a08231600260009054906101000a900473ffffffffffffffffffffffffffffffffffffffff166040518263ffffffff1660e01b815260040161023591906108c7565b602060405180830381865afa158015610252573d6000803e3d6000fd5b505050506040513d601f19601f8201168201806040525081019061027691906108f7565b600160009054906101000a900473ffffffffffffffffffffffffffffffffffffffff1673ffffffffffffffffffffffffffffffffffffffff166318160ddd6040518163ffffffff1660e01b8152600401602060405180830381865afa1580156102e3573d6000803e3d6000fd5b505050506040513d601f19601f8201168201806040525081019061030791906108f7565b61073890919063ffffffff16565b61073890919063ffffffff16565b905090565b6000811161036b576040517f08c379a000000000000000000000000000000000000000000000000000000000815260040161036290610981565b60405180910390fd5b60006104c8600160009054906101000a900473ffffffffffffffffffffffffffffffffffffffff1673ffffffffffffffffffffffffffffffffffffffff1663313ce5676040518163ffffffff1660e01b8152600401602060405180830381865afa1580156103dd573d6000803e3d6000fd5b505050506040513d601f19601f8201168201806040525081019061040191906109da565b600a61040d9190610b69565b6104ba60008054906101000a900473ffffffffffffffffffffffffffffffffffffffff1673ffffffffffffffffffffffffffffffffffffffff1663313ce5676040518163ffffffff1660e01b8152600401602060405180830381865afa15801561047b573d6000803e3d6000fd5b505050506040513d601f19601f8201168201806040525081019061049f91906109da565b600a6104ab9190610b69565b8561074e90919063ffffffff16565b61076490919063ffffffff16565b905060008054906101000a900473ffffffffffffffffffffffffffffffffffffffff1673ffffffffffffffffffffffffffffffffffffffff166370a08231306040518263ffffffff1660e01b815260040161052391906108c7565b602060405180830381865afa158015610540573d6000803e3d6000fd5b505050506040513d601f19601f8201168201806040525081019061056491906108f7565b8111156105a6576040517f08c379a000000000000000000000000000000000000000000000000000000000815260040161059d90610c26565b60405180910390fd5b600160009054906101000a900473ffffffffffffffffffffffffffffffffffffffff1673ffffffffffffffffffffffffffffffffffffffff166323b872dd3330856040518463ffffffff1660e01b815260040161060593929190610c46565b6020604051808303816000875af1158015610624573d6000803e3d6000fd5b505050506040513d601f19601f820116820180604052508101906106489190610cb5565b5060008054906101000a900473ffffffffffffffffffffffffffffffffffffffff1673ffffffffffffffffffffffffffffffffffffffff1663a9059cbb33836040518363ffffffff1660e01b81526004016106a4929190610ce2565b6020604051808303816000875af11580156106c3573d6000803e3d6000fd5b505050506040513d601f19601f820116820180604052508101906106e79190610cb5565b505050565b600160009054906101000a900473ffffffffffffffffffffffffffffffffffffffff1681565b600260009054906101000a900473ffffffffffffffffffffffffffffffffffffffff1681565b600081836107469190610d0b565b905092915050565b6000818361075c9190610d3f565b905092915050565b600081836107729190610dc8565b905092915050565b600073ffffffffffffffffffffffffffffffffffffffff82169050919050565b6000819050919050565b60006107bf6107ba6107b58461077a565b61079a565b61077a565b9050919050565b60006107d1826107a4565b9050919050565b60006107e3826107c6565b9050919050565b6107f3816107d8565b82525050565b600060208201905061080e60008301846107ea565b92915050565b6000819050919050565b61082781610814565b82525050565b6000602082019050610842600083018461081e565b92915050565b600080fd5b61085681610814565b811461086157600080fd5b50565b6000813590506108738161084d565b92915050565b60006020828403121561088f5761088e610848565b5b600061089d84828501610864565b91505092915050565b60006108b18261077a565b9050919050565b6108c1816108a6565b82525050565b60006020820190506108dc60008301846108b8565b92915050565b6000815190506108f18161084d565b92915050565b60006020828403121561090d5761090c610848565b5b600061091b848285016108e2565b91505092915050565b600082825260208201905092915050565b7f496e76616c696420616d6f756e74000000000000000000000000000000000000600082015250565b600061096b600e83610924565b915061097682610935565b602082019050919050565b6000602082019050818103600083015261099a8161095e565b9050919050565b600060ff82169050919050565b6109b7816109a1565b81146109c257600080fd5b50565b6000815190506109d4816109ae565b92915050565b6000602082840312156109f0576109ef610848565b5b60006109fe848285016109c5565b91505092915050565b7f4e487b7100000000000000000000000000000000000000000000000000000000600052601160045260246000fd5b60008160011c9050919050565b6000808291508390505b6001851115610a8d57808604811115610a6957610a68610a07565b5b6001851615610a785780820291505b8081029050610a8685610a36565b9450610a4d565b94509492505050565b600082610aa65760019050610b62565b81610ab45760009050610b62565b8160018114610aca5760028114610ad457610b03565b6001915050610b62565b60ff841115610ae657610ae5610a07565b5b8360020a915084821115610afd57610afc610a07565b5b50610b62565b5060208310610133831016604e8410600b8410161715610b385782820a905083811115610b3357610b32610a07565b5b610b62565b610b458484846001610a43565b92509050818404811115610b5c57610b5b610a07565b5b81810290505b9392505050565b6000610b7482610814565b9150610b7f836109a1565b9250610bac7fffffffffffffffffffffffffffffffffffffffffffffffffffffffffffffffff8484610a96565b905092915050565b7f4e6f7420656e6f7567682066756e647320746f20636f76657220726564656d7060008201527f74696f6e00000000000000000000000000000000000000000000000000000000602082015250565b6000610c10602483610924565b9150610c1b82610bb4565b604082019050919050565b60006020820190508181036000830152610c3f81610c03565b9050919050565b6000606082019050610c5b60008301866108b8565b610c6860208301856108b8565b610c75604083018461081e565b949350505050565b60008115159050919050565b610c9281610c7d565b8114610c9d57600080fd5b50565b600081519050610caf81610c89565b92915050565b600060208284031215610ccb57610cca610848565b5b6000610cd984828501610ca0565b91505092915050565b6000604082019050610cf760008301856108b8565b610d04602083018461081e565b9392505050565b6000610d1682610814565b9150610d2183610814565b925082821015610d3457610d33610a07565b5b828203905092915050565b6000610d4a82610814565b9150610d5583610814565b9250817fffffffffffffffffffffffffffffffffffffffffffffffffffffffffffffffff0483118215151615610d8e57610d8d610a07565b5b828202905092915050565b7f4e487b7100000000000000000000000000000000000000000000000000000000600052601260045260246000fd5b6000610dd382610814565b9150610dde83610814565b925082610dee57610ded610d99565b5b82820490509291505056fea2646970667358221220a0b9b96b38a94fa0d884cf9a84211fba3ca28f22797c74615c155a5ce536294364736f6c634300080a0033",
  "devdoc": {
    "kind": "dev",
    "methods": {},
    "version": 1
  },
  "userdoc": {
    "kind": "user",
    "methods": {},
    "version": 1
  },
  "storageLayout": {
    "storage": [
      {
        "astId": 435,
        "contract": "contracts/Presale/PresaleRedemption.sol:PresaleRedemption",
        "label": "bash",
        "offset": 0,
        "slot": "0",
        "type": "t_contract(IERC20WithMetadata)429"
      },
      {
        "astId": 438,
        "contract": "contracts/Presale/PresaleRedemption.sol:PresaleRedemption",
        "label": "abash",
        "offset": 0,
        "slot": "1",
        "type": "t_contract(IERC20WithMetadata)429"
      },
      {
        "astId": 440,
        "contract": "contracts/Presale/PresaleRedemption.sol:PresaleRedemption",
        "label": "presale",
        "offset": 0,
        "slot": "2",
        "type": "t_address"
      }
    ],
    "types": {
      "t_address": {
        "encoding": "inplace",
        "label": "address",
        "numberOfBytes": "20"
      },
      "t_contract(IERC20WithMetadata)429": {
        "encoding": "inplace",
        "label": "contract IERC20WithMetadata",
        "numberOfBytes": "20"
      }
    }
  }
}