{
  "address": "0x2279B7A0a67DB372996a5FaB50D91eAA73d2eBe6",
  "abi": [
    {
      "inputs": [],
      "stateMutability": "nonpayable",
      "type": "constructor"
    },
    {
      "anonymous": false,
      "inputs": [
        {
          "indexed": true,
          "internalType": "address",
          "name": "owner",
          "type": "address"
        },
        {
          "indexed": true,
          "internalType": "address",
          "name": "spender",
          "type": "address"
        },
        {
          "indexed": false,
          "internalType": "uint256",
          "name": "value",
          "type": "uint256"
        }
      ],
      "name": "Approval",
      "type": "event"
    },
    {
      "anonymous": false,
      "inputs": [
        {
          "indexed": true,
          "internalType": "uint256",
          "name": "epoch",
          "type": "uint256"
        },
        {
          "indexed": false,
          "internalType": "uint256",
          "name": "rebase",
          "type": "uint256"
        },
        {
          "indexed": false,
          "internalType": "uint256",
          "name": "index",
          "type": "uint256"
        }
      ],
      "name": "LogRebase",
      "type": "event"
    },
    {
      "anonymous": false,
      "inputs": [
        {
          "indexed": false,
          "internalType": "address",
          "name": "stakingContract",
          "type": "address"
        }
      ],
      "name": "LogStakingContractUpdated",
      "type": "event"
    },
    {
      "anonymous": false,
      "inputs": [
        {
          "indexed": true,
          "internalType": "uint256",
          "name": "epoch",
          "type": "uint256"
        },
        {
          "indexed": false,
          "internalType": "uint256",
          "name": "timestamp",
          "type": "uint256"
        },
        {
          "indexed": false,
          "internalType": "uint256",
          "name": "totalSupply",
          "type": "uint256"
        }
      ],
      "name": "LogSupply",
      "type": "event"
    },
    {
      "anonymous": false,
      "inputs": [
        {
          "indexed": true,
          "internalType": "address",
          "name": "previousOwner",
          "type": "address"
        },
        {
          "indexed": true,
          "internalType": "address",
          "name": "newOwner",
          "type": "address"
        }
      ],
      "name": "OwnershipPulled",
      "type": "event"
    },
    {
      "anonymous": false,
      "inputs": [
        {
          "indexed": true,
          "internalType": "address",
          "name": "previousOwner",
          "type": "address"
        },
        {
          "indexed": true,
          "internalType": "address",
          "name": "newOwner",
          "type": "address"
        }
      ],
      "name": "OwnershipPushed",
      "type": "event"
    },
    {
      "anonymous": false,
      "inputs": [
        {
          "indexed": true,
          "internalType": "address",
          "name": "from",
          "type": "address"
        },
        {
          "indexed": true,
          "internalType": "address",
          "name": "to",
          "type": "address"
        },
        {
          "indexed": false,
          "internalType": "uint256",
          "name": "value",
          "type": "uint256"
        }
      ],
      "name": "Transfer",
      "type": "event"
    },
    {
      "inputs": [],
      "name": "DOMAIN_SEPARATOR",
      "outputs": [
        {
          "internalType": "bytes32",
          "name": "",
          "type": "bytes32"
        }
      ],
      "stateMutability": "view",
      "type": "function"
    },
    {
      "inputs": [],
      "name": "INDEX",
      "outputs": [
        {
          "internalType": "uint256",
          "name": "",
          "type": "uint256"
        }
      ],
      "stateMutability": "view",
      "type": "function"
    },
    {
      "inputs": [],
      "name": "PERMIT_TYPEHASH",
      "outputs": [
        {
          "internalType": "bytes32",
          "name": "",
          "type": "bytes32"
        }
      ],
      "stateMutability": "view",
      "type": "function"
    },
    {
      "inputs": [
        {
          "internalType": "address",
          "name": "owner_",
          "type": "address"
        },
        {
          "internalType": "address",
          "name": "spender",
          "type": "address"
        }
      ],
      "name": "allowance",
      "outputs": [
        {
          "internalType": "uint256",
          "name": "",
          "type": "uint256"
        }
      ],
      "stateMutability": "view",
      "type": "function"
    },
    {
      "inputs": [
        {
          "internalType": "address",
          "name": "spender",
          "type": "address"
        },
        {
          "internalType": "uint256",
          "name": "value",
          "type": "uint256"
        }
      ],
      "name": "approve",
      "outputs": [
        {
          "internalType": "bool",
          "name": "",
          "type": "bool"
        }
      ],
      "stateMutability": "nonpayable",
      "type": "function"
    },
    {
      "inputs": [
        {
          "internalType": "uint256",
          "name": "gons",
          "type": "uint256"
        }
      ],
      "name": "balanceForGons",
      "outputs": [
        {
          "internalType": "uint256",
          "name": "",
          "type": "uint256"
        }
      ],
      "stateMutability": "view",
      "type": "function"
    },
    {
      "inputs": [
        {
          "internalType": "address",
          "name": "who",
          "type": "address"
        }
      ],
      "name": "balanceOf",
      "outputs": [
        {
          "internalType": "uint256",
          "name": "",
          "type": "uint256"
        }
      ],
      "stateMutability": "view",
      "type": "function"
    },
    {
      "inputs": [],
      "name": "circulatingSupply",
      "outputs": [
        {
          "internalType": "uint256",
          "name": "",
          "type": "uint256"
        }
      ],
      "stateMutability": "view",
      "type": "function"
    },
    {
      "inputs": [],
      "name": "decimals",
      "outputs": [
        {
          "internalType": "uint8",
          "name": "",
          "type": "uint8"
        }
      ],
      "stateMutability": "view",
      "type": "function"
    },
    {
      "inputs": [
        {
          "internalType": "address",
          "name": "spender",
          "type": "address"
        },
        {
          "internalType": "uint256",
          "name": "subtractedValue",
          "type": "uint256"
        }
      ],
      "name": "decreaseAllowance",
      "outputs": [
        {
          "internalType": "bool",
          "name": "",
          "type": "bool"
        }
      ],
      "stateMutability": "nonpayable",
      "type": "function"
    },
    {
      "inputs": [
        {
          "internalType": "uint256",
          "name": "amount",
          "type": "uint256"
        }
      ],
      "name": "gonsForBalance",
      "outputs": [
        {
          "internalType": "uint256",
          "name": "",
          "type": "uint256"
        }
      ],
      "stateMutability": "view",
      "type": "function"
    },
    {
      "inputs": [
        {
          "internalType": "address",
          "name": "spender",
          "type": "address"
        },
        {
          "internalType": "uint256",
          "name": "addedValue",
          "type": "uint256"
        }
      ],
      "name": "increaseAllowance",
      "outputs": [
        {
          "internalType": "bool",
          "name": "",
          "type": "bool"
        }
      ],
      "stateMutability": "nonpayable",
      "type": "function"
    },
    {
      "inputs": [],
      "name": "index",
      "outputs": [
        {
          "internalType": "uint256",
          "name": "",
          "type": "uint256"
        }
      ],
      "stateMutability": "view",
      "type": "function"
    },
    {
      "inputs": [
        {
          "internalType": "address",
          "name": "stakingContract_",
          "type": "address"
        }
      ],
      "name": "initialize",
      "outputs": [
        {
          "internalType": "bool",
          "name": "",
          "type": "bool"
        }
      ],
      "stateMutability": "nonpayable",
      "type": "function"
    },
    {
      "inputs": [],
      "name": "initializer",
      "outputs": [
        {
          "internalType": "address",
          "name": "",
          "type": "address"
        }
      ],
      "stateMutability": "view",
      "type": "function"
    },
    {
      "inputs": [],
      "name": "manager",
      "outputs": [
        {
          "internalType": "address",
          "name": "",
          "type": "address"
        }
      ],
      "stateMutability": "view",
      "type": "function"
    },
    {
      "inputs": [],
      "name": "name",
      "outputs": [
        {
          "internalType": "string",
          "name": "",
          "type": "string"
        }
      ],
      "stateMutability": "view",
      "type": "function"
    },
    {
      "inputs": [
        {
          "internalType": "address",
          "name": "owner",
          "type": "address"
        }
      ],
      "name": "nonces",
      "outputs": [
        {
          "internalType": "uint256",
          "name": "",
          "type": "uint256"
        }
      ],
      "stateMutability": "view",
      "type": "function"
    },
    {
      "inputs": [
        {
          "internalType": "address",
          "name": "owner",
          "type": "address"
        },
        {
          "internalType": "address",
          "name": "spender",
          "type": "address"
        },
        {
          "internalType": "uint256",
          "name": "amount",
          "type": "uint256"
        },
        {
          "internalType": "uint256",
          "name": "deadline",
          "type": "uint256"
        },
        {
          "internalType": "uint8",
          "name": "v",
          "type": "uint8"
        },
        {
          "internalType": "bytes32",
          "name": "r",
          "type": "bytes32"
        },
        {
          "internalType": "bytes32",
          "name": "s",
          "type": "bytes32"
        }
      ],
      "name": "permit",
      "outputs": [],
      "stateMutability": "nonpayable",
      "type": "function"
    },
    {
      "inputs": [],
      "name": "pullManagement",
      "outputs": [],
      "stateMutability": "nonpayable",
      "type": "function"
    },
    {
      "inputs": [
        {
          "internalType": "address",
          "name": "newOwner_",
          "type": "address"
        }
      ],
      "name": "pushManagement",
      "outputs": [],
      "stateMutability": "nonpayable",
      "type": "function"
    },
    {
      "inputs": [
        {
          "internalType": "uint256",
          "name": "profit_",
          "type": "uint256"
        },
        {
          "internalType": "uint256",
          "name": "epoch_",
          "type": "uint256"
        }
      ],
      "name": "rebase",
      "outputs": [
        {
          "internalType": "uint256",
          "name": "",
          "type": "uint256"
        }
      ],
      "stateMutability": "nonpayable",
      "type": "function"
    },
    {
      "inputs": [
        {
          "internalType": "uint256",
          "name": "",
          "type": "uint256"
        }
      ],
      "name": "rebases",
      "outputs": [
        {
          "internalType": "uint256",
          "name": "epoch",
          "type": "uint256"
        },
        {
          "internalType": "uint256",
          "name": "rebase",
          "type": "uint256"
        },
        {
          "internalType": "uint256",
          "name": "totalStakedBefore",
          "type": "uint256"
        },
        {
          "internalType": "uint256",
          "name": "totalStakedAfter",
          "type": "uint256"
        },
        {
          "internalType": "uint256",
          "name": "amountRebased",
          "type": "uint256"
        },
        {
          "internalType": "uint256",
          "name": "index",
          "type": "uint256"
        },
        {
          "internalType": "uint32",
          "name": "timeOccured",
          "type": "uint32"
        }
      ],
      "stateMutability": "view",
      "type": "function"
    },
    {
      "inputs": [],
      "name": "renounceManagement",
      "outputs": [],
      "stateMutability": "nonpayable",
      "type": "function"
    },
    {
      "inputs": [
        {
          "internalType": "uint256",
          "name": "_INDEX",
          "type": "uint256"
        }
      ],
      "name": "setIndex",
      "outputs": [
        {
          "internalType": "bool",
          "name": "",
          "type": "bool"
        }
      ],
      "stateMutability": "nonpayable",
      "type": "function"
    },
    {
      "inputs": [],
      "name": "stakingContract",
      "outputs": [
        {
          "internalType": "address",
          "name": "",
          "type": "address"
        }
      ],
      "stateMutability": "view",
      "type": "function"
    },
    {
      "inputs": [],
      "name": "symbol",
      "outputs": [
        {
          "internalType": "string",
          "name": "",
          "type": "string"
        }
      ],
      "stateMutability": "view",
      "type": "function"
    },
    {
      "inputs": [],
      "name": "totalSupply",
      "outputs": [
        {
          "internalType": "uint256",
          "name": "",
          "type": "uint256"
        }
      ],
      "stateMutability": "view",
      "type": "function"
    },
    {
      "inputs": [
        {
          "internalType": "address",
          "name": "to",
          "type": "address"
        },
        {
          "internalType": "uint256",
          "name": "value",
          "type": "uint256"
        }
      ],
      "name": "transfer",
      "outputs": [
        {
          "internalType": "bool",
          "name": "",
          "type": "bool"
        }
      ],
      "stateMutability": "nonpayable",
      "type": "function"
    },
    {
      "inputs": [
        {
          "internalType": "address",
          "name": "from",
          "type": "address"
        },
        {
          "internalType": "address",
          "name": "to",
          "type": "address"
        },
        {
          "internalType": "uint256",
          "name": "value",
          "type": "uint256"
        }
      ],
      "name": "transferFrom",
      "outputs": [
        {
          "internalType": "bool",
          "name": "",
          "type": "bool"
        }
      ],
      "stateMutability": "nonpayable",
      "type": "function"
    }
  ],
  "transactionHash": "0xaa47dcb68d0c0e036147eab91f1620a9134607fd81d792760f952675a49eb7fe",
  "args": [],
  "numDeployments": 1,
  "solcInputHash": "7ceb5ae9fd3327713c93b73790d65187",
  "bytecode": "0x60806040523480156200001157600080fd5b50604080518082018252600d81526c0a6e8c2d6cac84082a88482a69609b1b6020808301918252835180850190945260058452640e68482a6960db1b90840152815191929160099162000068916003919062000365565b5081516200007e90600490602085019062000365565b506005805460ff191660ff92909216919091179055504690507f8b73c3c69bb8fe3d512ecc4cf759cc79239f7b179b0ffacaa9a75d522b39400f620000c2620001d3565b805160209182012060408051808201825260018152603160f81b90840152805180840194909452838101919091527fc89efdaa54c0f20c7adf612882df0950f5a951637e0307cdcb4c672f298b8bc6606084015260808301939093523060a0808401919091528351808403909101815260c0909201928390528151910120600755600880546001600160a01b0319163317908190556001600160a01b0316906000907fea8258f2d9ddb679928cf34b78cf645b7feda9acc828e4dd82d014eaae270eba908290a3600b80546001600160a01b031916331790556611c37937e080006002819055620001ca908060001906600019036200026d60201b6200136f1790919060201c565b600e5562000411565b60038054604080516020601f6002600019610100600188161502019095169490940493840181900481028201810190925282815260609390929091830182828015620002635780601f10620002375761010080835404028352916020019162000263565b820191906000526020600020905b8154815290600101906020018083116200024557829003601f168201915b5050505050905090565b6000620002b783836040518060400160405280601a81526020017f536166654d6174683a206469766973696f6e206279207a65726f000000000000815250620002be60201b60201c565b9392505050565b600081836200034e5760405162461bcd60e51b81526004018080602001828103825283818151815260200191508051906020019080838360005b8381101562000312578181015183820152602001620002f8565b50505050905090810190601f168015620003405780820380516001836020036101000a031916815260200191505b509250505060405180910390fd5b5060008385816200035b57fe5b0495945050505050565b828054600181600116156101000203166002900490600052602060002090601f0160209004810192826200039d5760008555620003e8565b82601f10620003b857805160ff1916838001178555620003e8565b82800160010185558215620003e8579182015b82811115620003e8578251825591602001919060010190620003cb565b50620003f6929150620003fa565b5090565b5b80821115620003f65760008155600101620003fb565b61184480620004216000396000f3fe608060405234801561001057600080fd5b50600436106101da5760003560e01c8063481c6a751161010457806395d89b41116100a2578063c4d66de811610071578063c4d66de814610543578063d505accf14610569578063dd62ed3e146105ba578063ee99205c146105e8576101da565b806395d89b41146104db5780639ce110d7146104e3578063a457c2d7146104eb578063a9059cbb14610517576101da565b806373c69eb7116100de57806373c69eb7146104355780637965d56d146104905780637ecebe00146104ad5780639358928b146104d3576101da565b8063481c6a75146103e35780635a96ac0a1461040757806370a082311461040f576101da565b80632986c0e51161017c5780633644e5151161014b5780633644e5151461036c578063395093511461037457806340a5737f146103a057806346f68ee9146103bd576101da565b80632986c0e5146103365780632df75cb11461033e57806330adf81f14610346578063313ce5671461034e576101da565b8063095ea7b3116101b8578063095ea7b31461029b57806318160ddd146102db5780631bd39674146102e357806323b872dd14610300576101da565b8063058ecdb4146101df57806306fdde0314610214578063089208d814610291575b600080fd5b610202600480360360408110156101f557600080fd5b50803590602001356105f0565b60408051918252519081900360200190f35b61021c61073a565b6040805160208082528351818301528351919283929083019185019080838360005b8381101561025657818101518382015260200161023e565b50505050905090810190601f1680156102835780820380516001836020036101000a031916815260200191505b509250505060405180910390f35b6102996107d0565b005b6102c7600480360360408110156102b157600080fd5b506001600160a01b038135169060200135610879565b604080519115158252519081900360200190f35b6102026108cd565b610202600480360360208110156102f957600080fd5b50356108d3565b6102c76004803603606081101561031657600080fd5b506001600160a01b038135811691602081013590911690604001356108ea565b610202610a24565b610202610a36565b610202610a3c565b610356610a60565b6040805160ff9092168252519081900360200190f35b610202610a69565b6102c76004803603604081101561038a57600080fd5b506001600160a01b038135169060200135610a6f565b6102c7600480360360208110156103b657600080fd5b5035610af0565b610299600480360360208110156103d357600080fd5b50356001600160a01b0316610b73565b6103eb610c73565b604080516001600160a01b039092168252519081900360200190f35b610299610c82565b6102026004803603602081101561042557600080fd5b50356001600160a01b0316610d2e565b6104526004803603602081101561044b57600080fd5b5035610d56565b604080519788526020880196909652868601949094526060860192909252608085015260a084015263ffffffff1660c0830152519081900360e00190f35b610202600480360360208110156104a657600080fd5b5035610dab565b610202600480360360208110156104c357600080fd5b50356001600160a01b0316610dc2565b610202610de3565b61021c610e08565b6103eb610e69565b6102c76004803603604081101561050157600080fd5b506001600160a01b038135169060200135610e78565b6102c76004803603604081101561052d57600080fd5b506001600160a01b038135169060200135610f4f565b6102c76004803603602081101561055957600080fd5b50356001600160a01b031661100f565b610299600480360360e081101561057f57600080fd5b506001600160a01b03813581169160208101359091169060408101359060608101359060ff6080820135169060a08101359060c00135611108565b610202600480360360408110156105d057600080fd5b506001600160a01b0381358116916020013516611335565b6103eb611360565b600a546000906001600160a01b0316331461060a57600080fd5b600080610615610de3565b9050846106ab57600254604080514281526020810192909252805186927f917acfbe39be6509ccf7fecb66a7e42ce2be1083c2d7dd3b9b7491dabddb8da492908290030190a2837f6012dbce857565c4a40974aa5de8373a761fc429077ef0c8c8611d1e20d63fb26000610687610a24565b6040805192835260208301919091528051918290030190a260025492505050610734565b80156106d7576106d0816106ca600254886113b890919063ffffffff16565b9061136f565b91506106db565b8491505b6002546106e89083611411565b60028190556001600160801b031015610707576001600160801b036002555b60025461071d90660e3d2cfe61ffff199061136f565b600e5561072b81868661146b565b50600254925050505b92915050565b60038054604080516020601f60026000196101006001881615020190951694909404938401819004810282018101909252828152606093909290918301828280156107c65780601f1061079b576101008083540402835291602001916107c6565b820191906000526020600020905b8154815290600101906020018083116107a957829003601f168201915b5050505050905090565b6008546001600160a01b0316331461082f576040805162461bcd60e51b815260206004820181905260248201527f4f776e61626c653a2063616c6c6572206973206e6f7420746865206f776e6572604482015290519081900360640190fd5b6008546040516000916001600160a01b0316907fea8258f2d9ddb679928cf34b78cf645b7feda9acc828e4dd82d014eaae270eba908390a3600880546001600160a01b0319169055565b3360008181526010602090815260408083206001600160a01b038716808552908352818420869055815186815291519394909390926000805160206117ef833981519152928290030190a350600192915050565b60025490565b6000610734600e54836113b890919063ffffffff16565b6001600160a01b038316600090815260106020908152604080832033845290915281205461091890836115c9565b6001600160a01b0385166000818152601060209081526040808320338085529083529281902085905580519485525191936000805160206117ef833981519152929081900390910190a3600061096d836108d3565b6001600160a01b0386166000908152600f602052604090205490915061099390826115c9565b6001600160a01b038087166000908152600f602052604080822093909355908616815220546109c29082611411565b6001600160a01b038086166000818152600f602090815260409182902094909455805187815290519193928916927fddf252ad1be2c89b69c2b068fc378daa952ba7f163c4a11628f55a4df523b3ef92918290030190a3506001949350505050565b6000610a31600d54610dab565b905090565b600d5481565b7f6e71edae12b1b97f4d1f60370fef10105fa2faae0126114a169c64845d6126c981565b60055460ff1690565b60075481565b3360009081526010602090815260408083206001600160a01b0386168452909152812054610a9d9083611411565b3360008181526010602090815260408083206001600160a01b0389168085529083529281902085905580519485525191936000805160206117ef833981519152929081900390910190a350600192915050565b6008546000906001600160a01b03163314610b52576040805162461bcd60e51b815260206004820181905260248201527f4f776e61626c653a2063616c6c6572206973206e6f7420746865206f776e6572604482015290519081900360640190fd5b600d5415610b5f57600080fd5b610b68826108d3565b600d55506001919050565b6008546001600160a01b03163314610bd2576040805162461bcd60e51b815260206004820181905260248201527f4f776e61626c653a2063616c6c6572206973206e6f7420746865206f776e6572604482015290519081900360640190fd5b6001600160a01b038116610c175760405162461bcd60e51b81526004018080602001828103825260268152602001806117656026913960400191505060405180910390fd5b6008546040516001600160a01b038084169216907fea8258f2d9ddb679928cf34b78cf645b7feda9acc828e4dd82d014eaae270eba90600090a3600980546001600160a01b0319166001600160a01b0392909216919091179055565b6008546001600160a01b031690565b6009546001600160a01b03163314610ccb5760405162461bcd60e51b815260040180806020018281038252602281526020018061178b6022913960400191505060405180910390fd5b6009546008546040516001600160a01b0392831692909116907faa151555690c956fc3ea32f106bb9f119b5237a061eaa8557cff3e51e3792c8d90600090a3600954600880546001600160a01b0319166001600160a01b03909216919091179055565b600e546001600160a01b0382166000908152600f60205260408120549091610734919061136f565b600c8181548110610d6657600080fd5b60009182526020909120600790910201805460018201546002830154600384015460048501546005860154600690960154949650929491939092919063ffffffff1687565b6000610734600e548361136f90919063ffffffff16565b6001600160a01b03811660009081526006602052604081206107349061160b565b600a54600090610a3190610dff906001600160a01b0316610d2e565b600254906115c9565b60048054604080516020601f60026000196101006001881615020190951694909404938401819004810282018101909252828152606093909290918301828280156107c65780601f1061079b576101008083540402835291602001916107c6565b600b546001600160a01b031681565b3360009081526010602090815260408083206001600160a01b0386168452909152812054808310610ecc573360009081526010602090815260408083206001600160a01b0388168452909152812055610efb565b610ed681846115c9565b3360009081526010602090815260408083206001600160a01b03891684529091529020555b3360008181526010602090815260408083206001600160a01b0389168085529083529281902054815190815290519293926000805160206117ef833981519152929181900390910190a35060019392505050565b600080610f67600e54846113b890919063ffffffff16565b336000908152600f6020526040902054909150610f8490826115c9565b336000908152600f6020526040808220929092556001600160a01b03861681522054610fb09082611411565b6001600160a01b0385166000818152600f60209081526040918290209390935580518681529051919233927fddf252ad1be2c89b69c2b068fc378daa952ba7f163c4a11628f55a4df523b3ef9281900390910190a35060019392505050565b600b546000906001600160a01b0316331461102957600080fd5b6001600160a01b03821661103c57600080fd5b600a80546001600160a01b0319166001600160a01b038481169190911780835581166000908152600f60209081526040808320660e3d2cfe61ffff19905593546002548551908152945193169391927fddf252ad1be2c89b69c2b068fc378daa952ba7f163c4a11628f55a4df523b3ef9281900390910190a3604080516001600160a01b038416815290517f817c653428858ed536dc085c5d8273734c517b55de44b55f5c5877a75e3373a19181900360200190a15050600b80546001600160a01b0319169055600190565b8342111561115d576040805162461bcd60e51b815260206004820152601860248201527f5065726d69743a206578706972656420646561646c696e650000000000000000604482015290519081900360640190fd5b6001600160a01b03871660009081526006602052604081207f6e71edae12b1b97f4d1f60370fef10105fa2faae0126114a169c64845d6126c9908990899089906111a69061160b565b604080516020808201979097526001600160a01b0395861681830152939094166060840152608083019190915260a082015260c08082018990528251808303909101815260e08201835280519084012060075461190160f01b610100840152610102830152610122808301829052835180840390910181526101428301808552815191860191909120600091829052610162840180865281905260ff8a166101828501526101a284018990526101c28401889052935191955092936001926101e280820193601f1981019281900390910190855afa15801561128c573d6000803e3d6000fd5b5050604051601f1901519150506001600160a01b038116158015906112c25750896001600160a01b0316816001600160a01b0316145b6112fd5760405162461bcd60e51b81526004018080602001828103825260218152602001806117ad6021913960400191505060405180910390fd5b6001600160a01b038a16600090815260066020526040902061131e9061160f565b6113298a8a8a611618565b50505050505050505050565b6001600160a01b03918216600090815260106020908152604080832093909416825291909152205490565b600a546001600160a01b031681565b60006113b183836040518060400160405280601a81526020017f536166654d6174683a206469766973696f6e206279207a65726f000000000000815250611668565b9392505050565b6000826113c757506000610734565b828202828482816113d457fe5b04146113b15760405162461bcd60e51b81526004018080602001828103825260218152602001806117ce6021913960400191505060405180910390fd5b6000828201838110156113b1576040805162461bcd60e51b815260206004820152601b60248201527f536166654d6174683a206164646974696f6e206f766572666c6f770000000000604482015290519081900360640190fd5b600080611484856106ca86670de0b6b3a76400006113b8565b9050600c6040518060e001604052808581526020018381526020018781526020016114ad610de3565b81526020018681526020016114c0610a24565b81524263ffffffff81811660209384015284546001808201875560009687529584902085516007909202019081558484015195810195909555604080850151600280880191909155606086015160038801556080860151600488015560a0860151600588015560c0909501516006909601805463ffffffff1916969092169590951790559154835192835290820152815185927f917acfbe39be6509ccf7fecb66a7e42ce2be1083c2d7dd3b9b7491dabddb8da4928290030190a2827f6012dbce857565c4a40974aa5de8373a761fc429077ef0c8c8611d1e20d63fb2826115a6610a24565b6040805192835260208301919091528051918290030190a2506001949350505050565b60006113b183836040518060400160405280601e81526020017f536166654d6174683a207375627472616374696f6e206f766572666c6f77000081525061170a565b5490565b80546001019055565b6001600160a01b03808416600081815260106020908152604080832094871680845294825291829020859055815185815291516000805160206117ef8339815191529281900390910190a3505050565b600081836116f45760405162461bcd60e51b81526004018080602001828103825283818151815260200191508051906020019080838360005b838110156116b95781810151838201526020016116a1565b50505050905090810190601f1680156116e65780820380516001836020036101000a031916815260200191505b509250505060405180910390fd5b50600083858161170057fe5b0495945050505050565b6000818484111561175c5760405162461bcd60e51b81526020600482018181528351602484015283519092839260449091019190850190808383600083156116b95781810151838201526020016116a1565b50505090039056fe4f776e61626c653a206e6577206f776e657220697320746865207a65726f20616464726573734f776e61626c653a206d757374206265206e6577206f776e657220746f2070756c6c5a65726f537761705065726d69743a20496e76616c6964207369676e6174757265536166654d6174683a206d756c7469706c69636174696f6e206f766572666c6f778c5be1e5ebec7d5bd14f71427d1e84f3dd0314c0f7b2291e5b200ac8c7c3b925a2646970667358221220c3dd8375b53ff4c5c70855debc9af71bccb574bba2351d3a9ec6b880447b329564736f6c63430007050033",
  "devdoc": {
    "kind": "dev",
    "methods": {
      "decimals()": {
        "details": "Returns the number of decimals used to get its user representation. For example, if `decimals` equals `2`, a balance of `505` tokens should be displayed to a user as `5,05` (`505 / 10 ** 2`). Tokens usually opt for a value of 18, imitating the relationship between Ether and Wei. This is the value {ERC20} uses, unless {_setupDecimals} is called. NOTE: This information is only used for _display_ purposes: it in no way affects any of the arithmetic of the contract, including {IERC20-balanceOf} and {IERC20-transfer}."
      },
      "decreaseAllowance(address,uint256)": {
        "details": "Atomically decreases the allowance granted to `spender` by the caller. This is an alternative to {approve} that can be used as a mitigation for problems described in {IERC20-approve}. Emits an {Approval} event indicating the updated allowance. Requirements: - `spender` cannot be the zero address. - `spender` must have allowance for the caller of at least `subtractedValue`."
      },
      "increaseAllowance(address,uint256)": {
        "details": "Atomically increases the allowance granted to `spender` by the caller. This is an alternative to {approve} that can be used as a mitigation for problems described in {IERC20-approve}. Emits an {Approval} event indicating the updated allowance. Requirements: - `spender` cannot be the zero address."
      },
      "name()": {
        "details": "Returns the name of the token."
      },
      "nonces(address)": {
        "details": "See {IERC2612Permit-nonces}."
      },
      "permit(address,address,uint256,uint256,uint8,bytes32,bytes32)": {
        "details": "See {IERC2612Permit-permit}."
      },
      "rebase(uint256,uint256)": {
        "params": {
          "profit_": "uint256"
        },
        "returns": {
          "_0": "uint256"
        }
      },
      "symbol()": {
        "details": "Returns the symbol of the token, usually a shorter version of the name."
      },
      "totalSupply()": {
        "details": "See {IERC20-totalSupply}."
      }
    },
    "version": 1
  },
  "userdoc": {
    "kind": "user",
    "methods": {
      "rebase(uint256,uint256)": {
        "notice": "increases MEMOries supply to increase staking balances relative to profit_"
      }
    },
    "version": 1
  },
  "storageLayout": {
    "storage": [
      {
        "astId": 2141,
        "contract": "contracts/sBASHERC20.sol:sBASH",
        "label": "_balances",
        "offset": 0,
        "slot": "0",
        "type": "t_mapping(t_address,t_uint256)"
      },
      {
        "astId": 2147,
        "contract": "contracts/sBASHERC20.sol:sBASH",
        "label": "_allowances",
        "offset": 0,
        "slot": "1",
        "type": "t_mapping(t_address,t_mapping(t_address,t_uint256))"
      },
      {
        "astId": 2149,
        "contract": "contracts/sBASHERC20.sol:sBASH",
        "label": "_totalSupply",
        "offset": 0,
        "slot": "2",
        "type": "t_uint256"
      },
      {
        "astId": 2151,
        "contract": "contracts/sBASHERC20.sol:sBASH",
        "label": "_name",
        "offset": 0,
        "slot": "3",
        "type": "t_string_storage"
      },
      {
        "astId": 2153,
        "contract": "contracts/sBASHERC20.sol:sBASH",
        "label": "_symbol",
        "offset": 0,
        "slot": "4",
        "type": "t_string_storage"
      },
      {
        "astId": 2155,
        "contract": "contracts/sBASHERC20.sol:sBASH",
        "label": "_decimals",
        "offset": 0,
        "slot": "5",
        "type": "t_uint8"
      },
      {
        "astId": 2702,
        "contract": "contracts/sBASHERC20.sol:sBASH",
        "label": "_nonces",
        "offset": 0,
        "slot": "6",
        "type": "t_mapping(t_address,t_struct(Counter)2624_storage)"
      },
      {
        "astId": 2707,
        "contract": "contracts/sBASHERC20.sol:sBASH",
        "label": "DOMAIN_SEPARATOR",
        "offset": 0,
        "slot": "7",
        "type": "t_bytes32"
      },
      {
        "astId": 2877,
        "contract": "contracts/sBASHERC20.sol:sBASH",
        "label": "_owner",
        "offset": 0,
        "slot": "8",
        "type": "t_address"
      },
      {
        "astId": 2879,
        "contract": "contracts/sBASHERC20.sol:sBASH",
        "label": "_newOwner",
        "offset": 0,
        "slot": "9",
        "type": "t_address"
      },
      {
        "astId": 3022,
        "contract": "contracts/sBASHERC20.sol:sBASH",
        "label": "stakingContract",
        "offset": 0,
        "slot": "10",
        "type": "t_address"
      },
      {
        "astId": 3024,
        "contract": "contracts/sBASHERC20.sol:sBASH",
        "label": "initializer",
        "offset": 0,
        "slot": "11",
        "type": "t_address"
      },
      {
        "astId": 3062,
        "contract": "contracts/sBASHERC20.sol:sBASH",
        "label": "rebases",
        "offset": 0,
        "slot": "12",
        "type": "t_array(t_struct(Rebase)3059_storage)dyn_storage"
      },
      {
        "astId": 3064,
        "contract": "contracts/sBASHERC20.sol:sBASH",
        "label": "INDEX",
        "offset": 0,
        "slot": "13",
        "type": "t_uint256"
      },
      {
        "astId": 3095,
        "contract": "contracts/sBASHERC20.sol:sBASH",
        "label": "_gonsPerFragment",
        "offset": 0,
        "slot": "14",
        "type": "t_uint256"
      },
      {
        "astId": 3099,
        "contract": "contracts/sBASHERC20.sol:sBASH",
        "label": "_gonBalances",
        "offset": 0,
        "slot": "15",
        "type": "t_mapping(t_address,t_uint256)"
      },
      {
        "astId": 3105,
        "contract": "contracts/sBASHERC20.sol:sBASH",
        "label": "_allowedValue",
        "offset": 0,
        "slot": "16",
        "type": "t_mapping(t_address,t_mapping(t_address,t_uint256))"
      }
    ],
    "types": {
      "t_address": {
        "encoding": "inplace",
        "label": "address",
        "numberOfBytes": "20"
      },
      "t_array(t_struct(Rebase)3059_storage)dyn_storage": {
        "base": "t_struct(Rebase)3059_storage",
        "encoding": "dynamic_array",
        "label": "struct sBASH.Rebase[]",
        "numberOfBytes": "32"
      },
      "t_bytes32": {
        "encoding": "inplace",
        "label": "bytes32",
        "numberOfBytes": "32"
      },
      "t_mapping(t_address,t_mapping(t_address,t_uint256))": {
        "encoding": "mapping",
        "key": "t_address",
        "label": "mapping(address => mapping(address => uint256))",
        "numberOfBytes": "32",
        "value": "t_mapping(t_address,t_uint256)"
      },
      "t_mapping(t_address,t_struct(Counter)2624_storage)": {
        "encoding": "mapping",
        "key": "t_address",
        "label": "mapping(address => struct Counters.Counter)",
        "numberOfBytes": "32",
        "value": "t_struct(Counter)2624_storage"
      },
      "t_mapping(t_address,t_uint256)": {
        "encoding": "mapping",
        "key": "t_address",
        "label": "mapping(address => uint256)",
        "numberOfBytes": "32",
        "value": "t_uint256"
      },
      "t_string_storage": {
        "encoding": "bytes",
        "label": "string",
        "numberOfBytes": "32"
      },
      "t_struct(Counter)2624_storage": {
        "encoding": "inplace",
        "label": "struct Counters.Counter",
        "members": [
          {
            "astId": 2623,
            "contract": "contracts/sBASHERC20.sol:sBASH",
            "label": "_value",
            "offset": 0,
            "slot": "0",
            "type": "t_uint256"
          }
        ],
        "numberOfBytes": "32"
      },
      "t_struct(Rebase)3059_storage": {
        "encoding": "inplace",
        "label": "struct sBASH.Rebase",
        "members": [
          {
            "astId": 3046,
            "contract": "contracts/sBASHERC20.sol:sBASH",
            "label": "epoch",
            "offset": 0,
            "slot": "0",
            "type": "t_uint256"
          },
          {
            "astId": 3048,
            "contract": "contracts/sBASHERC20.sol:sBASH",
            "label": "rebase",
            "offset": 0,
            "slot": "1",
            "type": "t_uint256"
          },
          {
            "astId": 3050,
            "contract": "contracts/sBASHERC20.sol:sBASH",
            "label": "totalStakedBefore",
            "offset": 0,
            "slot": "2",
            "type": "t_uint256"
          },
          {
            "astId": 3052,
            "contract": "contracts/sBASHERC20.sol:sBASH",
            "label": "totalStakedAfter",
            "offset": 0,
            "slot": "3",
            "type": "t_uint256"
          },
          {
            "astId": 3054,
            "contract": "contracts/sBASHERC20.sol:sBASH",
            "label": "amountRebased",
            "offset": 0,
            "slot": "4",
            "type": "t_uint256"
          },
          {
            "astId": 3056,
            "contract": "contracts/sBASHERC20.sol:sBASH",
            "label": "index",
            "offset": 0,
            "slot": "5",
            "type": "t_uint256"
          },
          {
            "astId": 3058,
            "contract": "contracts/sBASHERC20.sol:sBASH",
            "label": "timeOccured",
            "offset": 0,
            "slot": "6",
            "type": "t_uint32"
          }
        ],
        "numberOfBytes": "224"
      },
      "t_uint256": {
        "encoding": "inplace",
        "label": "uint256",
        "numberOfBytes": "32"
      },
      "t_uint32": {
        "encoding": "inplace",
        "label": "uint32",
        "numberOfBytes": "4"
      },
      "t_uint8": {
        "encoding": "inplace",
        "label": "uint8",
        "numberOfBytes": "1"
      }
    }
  }
}