{
  "address": "0x59b670e9fA9D0A427751Af201D676719a970857b",
  "abi": [
    {
      "inputs": [
        {
          "internalType": "address",
          "name": "_staking",
          "type": "address"
        },
        {
          "internalType": "address",
          "name": "_sBash",
          "type": "address"
        }
      ],
      "stateMutability": "nonpayable",
      "type": "constructor"
    },
    {
      "inputs": [
        {
          "internalType": "address",
          "name": "_staker",
          "type": "address"
        },
        {
          "internalType": "uint256",
          "name": "_amount",
          "type": "uint256"
        }
      ],
      "name": "retrieve",
      "outputs": [],
      "stateMutability": "nonpayable",
      "type": "function"
    },
    {
      "inputs": [],
      "name": "sBash",
      "outputs": [
        {
          "internalType": "address",
          "name": "",
          "type": "address"
        }
      ],
      "stateMutability": "view",
      "type": "function"
    },
    {
      "inputs": [],
      "name": "staking",
      "outputs": [
        {
          "internalType": "address",
          "name": "",
          "type": "address"
        }
      ],
      "stateMutability": "view",
      "type": "function"
    }
  ],
  "transactionHash": "0x6b5b69caf1a51df1a34c86cc3d6049fe348426b216aedb6c90fc77725f723a8a",
  "args": [
    "0x3Aa5ebB10DC797CAC828524e59A333d0A371443c",
    "0x9fE46736679d2D9a65F0992F2272dE9f3c7fa6e0"
  ],
  "numDeployments": 1,
  "solcInputHash": "78a5afa448ac8ea3d413be6578ee5623",
  "bytecode": "0x60c060405234801561001057600080fd5b506040516102b43803806102b48339818101604052604081101561003357600080fd5b5080516020909101516001600160a01b03821661004f57600080fd5b6001600160601b0319606083901b166080526001600160a01b03811661007457600080fd5b606081811b6001600160601b03191660a052608051901c91506001600160a01b03166101fa6100ba6000398060fb52806101a252508060a2528060cf52506101fa6000f3fe608060405234801561001057600080fd5b50600436106100415760003560e01c80634cf088d914610046578063c3a2a6651461006a578063f13e7b0114610098575b600080fd5b61004e6100a0565b604080516001600160a01b039092168252519081900360200190f35b6100966004803603604081101561008057600080fd5b506001600160a01b0381351690602001356100c4565b005b61004e6101a0565b7f000000000000000000000000000000000000000000000000000000000000000081565b336001600160a01b037f000000000000000000000000000000000000000000000000000000000000000016146100f957600080fd5b7f00000000000000000000000000000000000000000000000000000000000000006001600160a01b031663a9059cbb83836040518363ffffffff1660e01b815260040180836001600160a01b0316815260200182815260200192505050602060405180830381600087803b15801561017057600080fd5b505af1158015610184573d6000803e3d6000fd5b505050506040513d602081101561019a57600080fd5b50505050565b7f00000000000000000000000000000000000000000000000000000000000000008156fea2646970667358221220f15ea2045793a52b570d52cd332185f7e2a5d1aa9b34a418325e59db1bedaf6564736f6c63430007050033",
  "devdoc": {
    "kind": "dev",
    "methods": {},
    "version": 1
  },
  "userdoc": {
    "kind": "user",
    "methods": {},
    "version": 1
  },
  "storageLayout": {
    "storage": [],
    "types": null
  }
}