{
  "address": "0x9A676e781A523b5d0C0e43731313A708CB607508",
  "abi": [
    {
      "inputs": [
        {
          "internalType": "address",
          "name": "_staking",
          "type": "address"
        },
        {
          "internalType": "address",
          "name": "_MEMOries",
          "type": "address"
        }
      ],
      "stateMutability": "nonpayable",
      "type": "constructor"
    },
    {
      "inputs": [],
      "name": "MEMOries",
      "outputs": [
        {
          "internalType": "address",
          "name": "",
          "type": "address"
        }
      ],
      "stateMutability": "view",
      "type": "function"
    },
    {
      "inputs": [
        {
          "internalType": "address",
          "name": "_staker",
          "type": "address"
        },
        {
          "internalType": "uint256",
          "name": "_amount",
          "type": "uint256"
        }
      ],
      "name": "retrieve",
      "outputs": [],
      "stateMutability": "nonpayable",
      "type": "function"
    },
    {
      "inputs": [],
      "name": "staking",
      "outputs": [
        {
          "internalType": "address",
          "name": "",
          "type": "address"
        }
      ],
      "stateMutability": "view",
      "type": "function"
    }
  ],
  "transactionHash": "0x204d91eb6417115b61b0dd928ce2585c5bddef36ba9ae53d3ec420460691709c",
  "args": [
    "0xA51c1fc2f0D1a1b8494Ed1FE312d7C3a78Ed91C0",
    "0x2279B7A0a67DB372996a5FaB50D91eAA73d2eBe6"
  ],
  "numDeployments": 1,
  "solcInputHash": "48b98fb114587c19124d32bcfa2f93bd",
  "bytecode": "0x60c060405234801561001057600080fd5b506040516102b43803806102b48339818101604052604081101561003357600080fd5b5080516020909101516001600160a01b03821661004f57600080fd5b6001600160601b0319606083901b166080526001600160a01b03811661007457600080fd5b606081811b6001600160601b03191660a052608051901c91506001600160a01b03166101fa6100ba6000398060a2528061011f52508060c6528060f352506101fa6000f3fe608060405234801561001057600080fd5b50600436106100415760003560e01c806349880e52146100465780634cf088d91461006a578063c3a2a66514610072575b600080fd5b61004e6100a0565b604080516001600160a01b039092168252519081900360200190f35b61004e6100c4565b61009e6004803603604081101561008857600080fd5b506001600160a01b0381351690602001356100e8565b005b7f000000000000000000000000000000000000000000000000000000000000000081565b7f000000000000000000000000000000000000000000000000000000000000000081565b336001600160a01b037f0000000000000000000000000000000000000000000000000000000000000000161461011d57600080fd5b7f00000000000000000000000000000000000000000000000000000000000000006001600160a01b031663a9059cbb83836040518363ffffffff1660e01b815260040180836001600160a01b0316815260200182815260200192505050602060405180830381600087803b15801561019457600080fd5b505af11580156101a8573d6000803e3d6000fd5b505050506040513d60208110156101be57600080fd5b5050505056fea2646970667358221220da7103a66d6d1667b9263fcc5bcde233e89f98e63c5d6ef5c4045338c4013c3564736f6c63430007050033",
  "devdoc": {
    "kind": "dev",
    "methods": {},
    "version": 1
  },
  "userdoc": {
    "kind": "user",
    "methods": {},
    "version": 1
  },
  "storageLayout": {
    "storage": [],
    "types": null
  }
}