{
  "address": "0x884a9432d54EE89319Ba07a0771151b8874FcC96",
  "abi": [
    {
      "inputs": [
        {
          "internalType": "address",
          "name": "_Time",
          "type": "address"
        }
      ],
      "stateMutability": "nonpayable",
      "type": "constructor"
    },
    {
      "inputs": [],
      "name": "Time",
      "outputs": [
        {
          "internalType": "address",
          "name": "",
          "type": "address"
        }
      ],
      "stateMutability": "view",
      "type": "function"
    },
    {
      "inputs": [
        {
          "internalType": "address",
          "name": "_pair",
          "type": "address"
        }
      ],
      "name": "getKValue",
      "outputs": [
        {
          "internalType": "uint256",
          "name": "k_",
          "type": "uint256"
        }
      ],
      "stateMutability": "view",
      "type": "function"
    },
    {
      "inputs": [
        {
          "internalType": "address",
          "name": "_pair",
          "type": "address"
        }
      ],
      "name": "getTotalValue",
      "outputs": [
        {
          "internalType": "uint256",
          "name": "_value",
          "type": "uint256"
        }
      ],
      "stateMutability": "view",
      "type": "function"
    },
    {
      "inputs": [
        {
          "internalType": "address",
          "name": "_pair",
          "type": "address"
        }
      ],
      "name": "markdown",
      "outputs": [
        {
          "internalType": "uint256",
          "name": "",
          "type": "uint256"
        }
      ],
      "stateMutability": "view",
      "type": "function"
    },
    {
      "inputs": [
        {
          "internalType": "address",
          "name": "_pair",
          "type": "address"
        },
        {
          "internalType": "uint256",
          "name": "amount_",
          "type": "uint256"
        }
      ],
      "name": "valuation",
      "outputs": [
        {
          "internalType": "uint256",
          "name": "_value",
          "type": "uint256"
        }
      ],
      "stateMutability": "view",
      "type": "function"
    }
  ],
  "transactionHash": "0x4fa4af796de0bd006a656a8a0bbb6b1036fdb221859bcbbbe3d991add387bbfc",
  "args": [
    "0x26DF06b47412dA76061ddA1fD9fe688A497FB88b"
  ],
  "numDeployments": 1,
  "solcInputHash": "fdf36d8d3e2c2ef071e9dfccc8685910",
  "bytecode": "0x60a060405234801561001057600080fd5b50604051610d61380380610d618339818101604052602081101561003357600080fd5b50516001600160a01b03811661004857600080fd5b606081901b6001600160601b0319166080526001600160a01b0316610cdd610084600039806101d1528061026f52806106c75250610cdd6000f3fe608060405234801561001057600080fd5b50600436106100575760003560e01c806332da80a31461005c5780634249719f14610094578063490084ef146100c057806368637549146100e6578063f8e157ea1461010c575b600080fd5b6100826004803603602081101561007257600080fd5b50356001600160a01b0316610130565b60408051918252519081900360200190f35b610082600480360360408110156100aa57600080fd5b506001600160a01b038135169060200135610313565b610082600480360360208110156100d657600080fd5b50356001600160a01b03166103bb565b610082600480360360208110156100fc57600080fd5b50356001600160a01b03166106a1565b6101146106c5565b604080516001600160a01b039092168252519081900360200190f35b6000806000836001600160a01b0316630902f1ac6040518163ffffffff1660e01b815260040160606040518083038186803b15801561016e57600080fd5b505afa158015610182573d6000803e3d6000fd5b505050506040513d606081101561019857600080fd5b50805160209182015160408051630dfe168160e01b815290516001600160701b0393841696509290911693506000926001600160a01b037f000000000000000000000000000000000000000000000000000000000000000081169390891692630dfe1681926004808301939192829003018186803b15801561021957600080fd5b505afa15801561022d573d6000803e3d6000fd5b505050506040513d602081101561024357600080fd5b50516001600160a01b0316141561025b57508061025e565b50815b61030861026a866106a1565b6103027f00000000000000000000000000000000000000000000000000000000000000006001600160a01b031663313ce5676040518163ffffffff1660e01b815260040160206040518083038186803b1580156102c657600080fd5b505afa1580156102da573d6000803e3d6000fd5b505050506040513d60208110156102f057600080fd5b5051849060ff16600a0a6002026106e9565b90610749565b93505050505b919050565b60008061031f846106a1565b90506000846001600160a01b03166318160ddd6040518163ffffffff1660e01b815260040160206040518083038186803b15801561035c57600080fd5b505afa158015610370573d6000803e3d6000fd5b505050506040513d602081101561038657600080fd5b505190506103b2670de0b6b3a76400006103026103ab6103a6888661078b565b610902565b85906106e9565b95945050505050565b600080826001600160a01b0316630dfe16816040518163ffffffff1660e01b815260040160206040518083038186803b1580156103f757600080fd5b505afa15801561040b573d6000803e3d6000fd5b505050506040513d602081101561042157600080fd5b50516040805163313ce56760e01b815290516001600160a01b039092169163313ce56791600480820192602092909190829003018186803b15801561046557600080fd5b505afa158015610479573d6000803e3d6000fd5b505050506040513d602081101561048f57600080fd5b50516040805163d21220a760e01b8152905160ff90921692506000916001600160a01b0386169163d21220a7916004808301926020929190829003018186803b1580156104db57600080fd5b505afa1580156104ef573d6000803e3d6000fd5b505050506040513d602081101561050557600080fd5b50516040805163313ce56760e01b815290516001600160a01b039092169163313ce56791600480820192602092909190829003018186803b15801561054957600080fd5b505afa15801561055d573d6000803e3d6000fd5b505050506040513d602081101561057357600080fd5b50516040805163313ce56760e01b8152905160ff9092169250600091610603916001600160a01b0388169163313ce56791600480820192602092909190829003018186803b1580156105c457600080fd5b505afa1580156105d8573d6000803e3d6000fd5b505050506040513d60208110156105ee57600080fd5b505160ff166105fd858561091a565b90610974565b9050600080866001600160a01b0316630902f1ac6040518163ffffffff1660e01b815260040160606040518083038186803b15801561064157600080fd5b505afa158015610655573d6000803e3d6000fd5b505050506040513d606081101561066b57600080fd5b5080516020909101516001600160701b039182169350169050610696600a84900a61030284846106e9565b979650505050505050565b60006106bf60026106b96106b4856103bb565b6109b6565b906106e9565b92915050565b7f000000000000000000000000000000000000000000000000000000000000000081565b6000826106f8575060006106bf565b8282028284828161070557fe5b04146107425760405162461bcd60e51b8152600401808060200182810382526021815260200180610c876021913960400191505060405180910390fd5b9392505050565b600061074283836040518060400160405280601a81526020017f536166654d6174683a206469766973696f6e206279207a65726f000000000000815250610a20565b610793610c4e565b600082116107d25760405162461bcd60e51b8152600401808060200182810382526026815260200180610c616026913960400191505060405180910390fd5b826107ec57506040805160208101909152600081526106bf565b71ffffffffffffffffffffffffffffffffffff831161089357600082607085901b8161081457fe5b0490506001600160e01b03811115610873576040805162461bcd60e51b815260206004820152601e60248201527f4669786564506f696e743a3a6672616374696f6e3a206f766572666c6f770000604482015290519081900360640190fd5b6040518060200160405280826001600160e01b03168152509150506106bf565b60006108a484600160701b85610ac2565b90506001600160e01b03811115610873576040805162461bcd60e51b815260206004820152601e60248201527f4669786564506f696e743a3a6672616374696f6e3a206f766572666c6f770000604482015290519081900360640190fd5b516612725dd1d243ab6001600160e01b039091160490565b600082820183811015610742576040805162461bcd60e51b815260206004820152601b60248201527f536166654d6174683a206164646974696f6e206f766572666c6f770000000000604482015290519081900360640190fd5b600061074283836040518060400160405280601e81526020017f536166654d6174683a207375627472616374696f6e206f766572666c6f770000815250610b57565b60006003821115610a1257508060006109da6109d3836002610749565b600161091a565b90505b81811015610a0c57809150610a056109fe6109f88584610749565b8361091a565b6002610749565b90506109dd565b5061030e565b811561030e57506001919050565b60008183610aac5760405162461bcd60e51b81526004018080602001828103825283818151815260200191508051906020019080838360005b83811015610a71578181015183820152602001610a59565b50505050905090810190601f168015610a9e5780820380516001836020036101000a031916815260200191505b509250505060405180910390fd5b506000838581610ab857fe5b0495945050505050565b6000806000610ad18686610bb1565b9150915060008480610adf57fe5b868809905082811115610af3576001820391505b8083039250848210610b4c576040805162461bcd60e51b815260206004820152601a60248201527f46756c6c4d6174683a3a6d756c4469763a206f766572666c6f77000000000000604482015290519081900360640190fd5b610696838387610bde565b60008184841115610ba95760405162461bcd60e51b8152602060048201818152835160248401528351909283926044909101919085019080838360008315610a71578181015183820152602001610a59565b505050900390565b6000808060001984860990508385029250828103915082811015610bd6576001820391505b509250929050565b60008181038216808381610bee57fe5b049250808581610bfa57fe5b049450808160000381610c0957fe5b60028581038087028203028087028203028087028203028087028203028087028203028087028203029586029003909402930460010193909302939093010292915050565b6040805160208101909152600081529056fe4669786564506f696e743a3a6672616374696f6e3a206469766973696f6e206279207a65726f536166654d6174683a206d756c7469706c69636174696f6e206f766572666c6f77a264697066735822122097de45ac82713dc05abab283a1ed4c4d921e1e5e217f4cce6d54f8c17901e75064736f6c63430007050033",
  "devdoc": {
    "kind": "dev",
    "methods": {},
    "version": 1
  },
  "userdoc": {
    "kind": "user",
    "methods": {},
    "version": 1
  },
  "storageLayout": {
    "storage": [],
    "types": null
  }
}