{
  "address": "0xe5946Db5a02Fe8Eadc24aeD0fe322FEaCd2C7924",
  "abi": [
    {
      "inputs": [
        {
          "internalType": "address",
          "name": "beneficiary_",
          "type": "address"
        }
      ],
      "stateMutability": "nonpayable",
      "type": "constructor"
    },
    {
      "anonymous": false,
      "inputs": [
        {
          "indexed": true,
          "internalType": "address",
          "name": "previousOwner",
          "type": "address"
        },
        {
          "indexed": true,
          "internalType": "address",
          "name": "newOwner",
          "type": "address"
        }
      ],
      "name": "OwnershipTransferred",
      "type": "event"
    },
    {
      "inputs": [
        {
          "internalType": "uint256",
          "name": "payableAmount",
          "type": "uint256"
        },
        {
          "internalType": "address",
          "name": "buyer",
          "type": "address"
        }
      ],
      "name": "buyTokens",
      "outputs": [],
      "stateMutability": "nonpayable",
      "type": "function"
    },
    {
      "inputs": [],
      "name": "getPresaleStatus",
      "outputs": [
        {
          "internalType": "bool",
          "name": "",
          "type": "bool"
        }
      ],
      "stateMutability": "view",
      "type": "function"
    },
    {
      "inputs": [],
      "name": "getTokenDecimals",
      "outputs": [
        {
          "internalType": "uint8",
          "name": "",
          "type": "uint8"
        }
      ],
      "stateMutability": "view",
      "type": "function"
    },
    {
      "inputs": [],
      "name": "owner",
      "outputs": [
        {
          "internalType": "address",
          "name": "",
          "type": "address"
        }
      ],
      "stateMutability": "view",
      "type": "function"
    },
    {
      "inputs": [],
      "name": "presaleToken",
      "outputs": [
        {
          "internalType": "address",
          "name": "",
          "type": "address"
        }
      ],
      "stateMutability": "view",
      "type": "function"
    },
    {
      "inputs": [],
      "name": "rate",
      "outputs": [
        {
          "internalType": "uint256",
          "name": "",
          "type": "uint256"
        }
      ],
      "stateMutability": "view",
      "type": "function"
    },
    {
      "inputs": [
        {
          "internalType": "address",
          "name": "tokenAddress",
          "type": "address"
        }
      ],
      "name": "removeERC20",
      "outputs": [],
      "stateMutability": "nonpayable",
      "type": "function"
    },
    {
      "inputs": [],
      "name": "removeETH",
      "outputs": [],
      "stateMutability": "payable",
      "type": "function"
    },
    {
      "inputs": [],
      "name": "renounceOwnership",
      "outputs": [],
      "stateMutability": "nonpayable",
      "type": "function"
    },
    {
      "inputs": [],
      "name": "setPresaleActive",
      "outputs": [],
      "stateMutability": "nonpayable",
      "type": "function"
    },
    {
      "inputs": [
        {
          "internalType": "address",
          "name": "token_",
          "type": "address"
        }
      ],
      "name": "setPresaleToken",
      "outputs": [],
      "stateMutability": "nonpayable",
      "type": "function"
    },
    {
      "inputs": [
        {
          "internalType": "uint256",
          "name": "rate_",
          "type": "uint256"
        }
      ],
      "name": "setRate",
      "outputs": [],
      "stateMutability": "nonpayable",
      "type": "function"
    },
    {
      "inputs": [
        {
          "internalType": "uint8",
          "name": "newDecimals",
          "type": "uint8"
        }
      ],
      "name": "setTokenDecimals",
      "outputs": [],
      "stateMutability": "nonpayable",
      "type": "function"
    },
    {
      "inputs": [],
      "name": "tokensLeft",
      "outputs": [
        {
          "internalType": "uint256",
          "name": "",
          "type": "uint256"
        }
      ],
      "stateMutability": "view",
      "type": "function"
    },
    {
      "inputs": [
        {
          "internalType": "address",
          "name": "newOwner",
          "type": "address"
        }
      ],
      "name": "transferOwnership",
      "outputs": [],
      "stateMutability": "nonpayable",
      "type": "function"
    },
    {
      "stateMutability": "payable",
      "type": "receive"
    }
  ],
  "transactionHash": "0x6980c084734e1c2067a87087901ee87a8eeffa0954d8d63d5ccdb3ce2988148c",
  "args": [
    "0x02c368c0787BB33ACAc698049CcA2454B5cC96c5"
  ],
  "numDeployments": 1,
  "solcInputHash": "22d58ea908f37f379428bd60cffdf580",
  "bytecode": "0x608060405260018054600960a11b6001600160a81b031990911617905560006002556003805460ff60a01b1916600160a01b1790553480156200004157600080fd5b50604051620014cb380380620014cb83398101604081905262000064916200018d565b6200006f33620000ce565b600380546001600160a01b0319166001600160a01b03831617905560408051808201909152600d81526c31b7b73a3930b1ba1031ba37b960991b602080830191909152620000c791906200011e811b62000f9e17901c565b5062000217565b600080546001600160a01b038381166001600160a01b0319831681178455604051919092169283917f8be0079c531659141344cd1fd0a4f28419497f9722a3daafe3b4186f6b6457e09190a35050565b6200016981604051602401620001359190620001bf565b60408051601f198184030181529190526020810180516001600160e01b0390811663104c13eb60e21b179091526200016c16565b50565b80516a636f6e736f6c652e6c6f67602083016000808483855afa5050505050565b600060208284031215620001a057600080fd5b81516001600160a01b0381168114620001b857600080fd5b9392505050565b600060208083528351808285015260005b81811015620001ee57858101830151858201604001528201620001d0565b8181111562000201576000604083870101525b50601f01601f1916929092016040019392505050565b6112a480620002276000396000f3fe6080604052600436106100ec5760003560e01c8063715018a61161008a578063c625e9b111610059578063c625e9b11461039b578063d7517caa146103bb578063f2cf47be146103e0578063f2fde38b1461040057600080fd5b8063715018a6146103335780638da5cb5b14610348578063a67755c214610366578063b31f8f931461038657600080fd5b806329514d00116100c657806329514d00146102bb5780632c4e722e146102d057806334fcf437146102f35780634df3cce41461031357600080fd5b8063217b6da61461025a57806324f65ee71461026257806324ffea1a1461028e57600080fd5b3661025557600034116101465760405162461bcd60e51b815260206004820152600e60248201527f596f752073656e7420302045544800000000000000000000000000000000000060448201526064015b60405180910390fd5b600354600160a01b900460ff1661019f5760405162461bcd60e51b815260206004820152601260248201527f50726573616c652069732073746f707065640000000000000000000000000000604482015260640161013d565b6001546001600160a01b03166101f75760405162461bcd60e51b815260206004820152600d60248201527f546f6b656e206e6f742073657400000000000000000000000000000000000000604482015260640161013d565b6000600254116102495760405162461bcd60e51b815260206004820152601360248201527f5261746520636f756c64206e6f74206265203000000000000000000000000000604482015260640161013d565b6102533433610420565b005b600080fd5b610253610702565b34801561026e57600080fd5b506102776107ec565b60405160ff90911681526020015b60405180910390f35b34801561029a57600080fd5b506102a361083d565b6040516001600160a01b039091168152602001610285565b3480156102c757600080fd5b5061025361088d565b3480156102dc57600080fd5b506102e5610946565b604051908152602001610285565b3480156102ff57600080fd5b5061025361030e3660046110e5565b610974565b34801561031f57600080fd5b5061025361032e36600461111a565b610a11565b34801561033f57600080fd5b50610253610ad8565b34801561035457600080fd5b506000546001600160a01b03166102a3565b34801561037257600080fd5b5061025361038136600461111a565b610b3c565b34801561039257600080fd5b506102e5610d05565b3480156103a757600080fd5b506102536103b6366004611135565b610420565b3480156103c757600080fd5b506103d0610db6565b6040519015158152602001610285565b3480156103ec57600080fd5b506102536103fb366004611161565b610e07565b34801561040c57600080fd5b5061025361041b36600461111a565b610ebf565b61045e6040518060400160405280600981526020017f627579546f6b656e730000000000000000000000000000000000000000000000815250610f9e565b6001546002546001600160a01b039091169060009061047e908590610ff6565b604080518082018252600e81527f746f6b656e73546f53616c653a20000000000000000000000000000000000000602082015290516370a0823160e01b8152306004820152919250610524916001600160a01b038516906370a0823190602401602060405180830381865afa1580156104fb573d6000803e3d6000fd5b505050506040513d601f19601f8201168201806040525081019061051f9190611184565b611009565b6040516370a0823160e01b815230600482015281906001600160a01b038416906370a0823190602401602060405180830381865afa15801561056a573d6000803e3d6000fd5b505050506040513d601f19601f8201168201806040525081019061058e9190611184565b10156105dc5760405162461bcd60e51b815260206004820152601960248201527f4e6f7420656e6f75676820746f6b656e7320746f2073616c6500000000000000604482015260640161013d565b60405163a9059cbb60e01b81526001600160a01b0384811660048301526024820183905283169063a9059cbb906044016020604051808303816000875af115801561062b573d6000803e3d6000fd5b505050506040513d601f19601f8201168201806040525081019061064f919061119d565b61069b5760405162461bcd60e51b815260206004820152601960248201527f4661696c656420746f207472616e7366657220746f6b656e7300000000000000604482015260640161013d565b6003546040516000916001600160a01b03169086908381818185875af1925050503d80600081146106e8576040519150601f19603f3d011682016040523d82523d6000602084013e6106ed565b606091505b50509050806106fb57600080fd5b5050505050565b6000546001600160a01b0316331461075c5760405162461bcd60e51b815260206004820181905260248201527f4f776e61626c653a2063616c6c6572206973206e6f7420746865206f776e6572604482015260640161013d565b61079a6040518060400160405280600981526020017f72656d6f76654554480000000000000000000000000000000000000000000000815250610f9e565b60405133904780156108fc02916000818181858888f193505050506107ea5760405162461bcd60e51b815260040161013d906020808252600490820152631190525360e21b604082015260600190565b565b600061082c6040518060400160405280601081526020017f676574546f6b656e446563696d616c7300000000000000000000000000000000815250610f9e565b50600154600160a01b900460ff1690565b600061087d6040518060400160405280600c81526020017f70726573616c65546f6b656e0000000000000000000000000000000000000000815250610f9e565b506001546001600160a01b031690565b6000546001600160a01b031633146108e75760405162461bcd60e51b815260206004820181905260248201527f4f776e61626c653a2063616c6c6572206973206e6f7420746865206f776e6572604482015260640161013d565b6109256040518060400160405280601081526020017f73657450726573616c6541637469766500000000000000000000000000000000815250610f9e565b6003805460ff60a01b198116600160a01b9182900460ff1615909102179055565b600061096d604051806040016040528060048152602001637261746560e01b815250610f9e565b5060025490565b6000546001600160a01b031633146109ce5760405162461bcd60e51b815260206004820181905260248201527f4f776e61626c653a2063616c6c6572206973206e6f7420746865206f776e6572604482015260640161013d565b610a0c6040518060400160405280600781526020017f7365745261746500000000000000000000000000000000000000000000000000815250610f9e565b600255565b6000546001600160a01b03163314610a6b5760405162461bcd60e51b815260206004820181905260248201527f4f776e61626c653a2063616c6c6572206973206e6f7420746865206f776e6572604482015260640161013d565b610aa96040518060400160405280600f81526020017f73657450726573616c65546f6b656e0000000000000000000000000000000000815250610f9e565b6001805473ffffffffffffffffffffffffffffffffffffffff19166001600160a01b0392909216919091179055565b6000546001600160a01b03163314610b325760405162461bcd60e51b815260206004820181905260248201527f4f776e61626c653a2063616c6c6572206973206e6f7420746865206f776e6572604482015260640161013d565b6107ea6000611067565b6000546001600160a01b03163314610b965760405162461bcd60e51b815260206004820181905260248201527f4f776e61626c653a2063616c6c6572206973206e6f7420746865206f776e6572604482015260640161013d565b610bd46040518060400160405280600b81526020017f72656d6f76654552433230000000000000000000000000000000000000000000815250610f9e565b6040516370a0823160e01b81523060048201526001600160a01b0382169063a9059cbb90339083906370a0823190602401602060405180830381865afa158015610c22573d6000803e3d6000fd5b505050506040513d601f19601f82011682018060405250810190610c469190611184565b6040517fffffffff0000000000000000000000000000000000000000000000000000000060e085901b1681526001600160a01b03909216600483015260248201526044016020604051808303816000875af1158015610ca9573d6000803e3d6000fd5b505050506040513d601f19601f82011682018060405250810190610ccd919061119d565b610d025760405162461bcd60e51b815260040161013d906020808252600490820152631190525360e21b604082015260600190565b50565b6000610d456040518060400160405280600a81526020017f746f6b656e734c65667400000000000000000000000000000000000000000000815250610f9e565b6001546040516370a0823160e01b81523060048201526001600160a01b03909116906370a0823190602401602060405180830381865afa158015610d8d573d6000803e3d6000fd5b505050506040513d601f19601f82011682018060405250810190610db19190611184565b905090565b6000610df66040518060400160405280601081526020017f67657450726573616c6553746174757300000000000000000000000000000000815250610f9e565b50600354600160a01b900460ff1690565b6000546001600160a01b03163314610e615760405162461bcd60e51b815260206004820181905260248201527f4f776e61626c653a2063616c6c6572206973206e6f7420746865206f776e6572604482015260640161013d565b610e9f6040518060400160405280601081526020017f736574546f6b656e446563696d616c7300000000000000000000000000000000815250610f9e565b6001805460ff909216600160a01b0260ff60a01b19909216919091179055565b6000546001600160a01b03163314610f195760405162461bcd60e51b815260206004820181905260248201527f4f776e61626c653a2063616c6c6572206973206e6f7420746865206f776e6572604482015260640161013d565b6001600160a01b038116610f955760405162461bcd60e51b815260206004820152602660248201527f4f776e61626c653a206e6577206f776e657220697320746865207a65726f206160448201527f6464726573730000000000000000000000000000000000000000000000000000606482015260840161013d565b610d0281611067565b610d0281604051602401610fb2919061120c565b60408051601f198184030181529190526020810180517bffffffffffffffffffffffffffffffffffffffffffffffffffffffff1663104c13eb60e21b1790526110c4565b6000611002828461121f565b9392505050565b611063828260405160240161101f92919061124c565b60408051601f198184030181529190526020810180517bffffffffffffffffffffffffffffffffffffffffffffffffffffffff166309710a9d60e41b1790526110c4565b5050565b600080546001600160a01b0383811673ffffffffffffffffffffffffffffffffffffffff19831681178455604051919092169283917f8be0079c531659141344cd1fd0a4f28419497f9722a3daafe3b4186f6b6457e09190a35050565b80516a636f6e736f6c652e6c6f67602083016000808483855afa5050505050565b6000602082840312156110f757600080fd5b5035919050565b80356001600160a01b038116811461111557600080fd5b919050565b60006020828403121561112c57600080fd5b611002826110fe565b6000806040838503121561114857600080fd5b82359150611158602084016110fe565b90509250929050565b60006020828403121561117357600080fd5b813560ff8116811461100257600080fd5b60006020828403121561119657600080fd5b5051919050565b6000602082840312156111af57600080fd5b8151801515811461100257600080fd5b6000815180845260005b818110156111e5576020818501810151868301820152016111c9565b818111156111f7576000602083870101525b50601f01601f19169290920160200192915050565b60208152600061100260208301846111bf565b600081600019048311821515161561124757634e487b7160e01b600052601160045260246000fd5b500290565b60408152600061125f60408301856111bf565b9050826020830152939250505056fea26469706673582212201232d3bfdd401e389c3920a80853f12eb2dd3bf3da0275cbe0e5eef9d074fddc64736f6c634300080a0033",
  "devdoc": {
    "kind": "dev",
    "methods": {
      "owner()": {
        "details": "Returns the address of the current owner."
      },
      "renounceOwnership()": {
        "details": "Leaves the contract without owner. It will not be possible to call `onlyOwner` functions anymore. Can only be called by the current owner. NOTE: Renouncing ownership will leave the contract without an owner, thereby removing any functionality that is only available to the owner."
      },
      "transferOwnership(address)": {
        "details": "Transfers ownership of the contract to a new account (`newOwner`). Can only be called by the current owner."
      }
    },
    "version": 1
  },
  "userdoc": {
    "kind": "user",
    "methods": {},
    "version": 1
  },
  "storageLayout": {
    "storage": [
      {
        "astId": 7,
        "contract": "contracts/Presale/Presale.sol:Presale",
        "label": "_owner",
        "offset": 0,
        "slot": "0",
        "type": "t_address"
      },
      {
        "astId": 2328,
        "contract": "contracts/Presale/Presale.sol:Presale",
        "label": "_token",
        "offset": 0,
        "slot": "1",
        "type": "t_address"
      },
      {
        "astId": 2331,
        "contract": "contracts/Presale/Presale.sol:Presale",
        "label": "_tokenDecimals",
        "offset": 20,
        "slot": "1",
        "type": "t_uint8"
      },
      {
        "astId": 2334,
        "contract": "contracts/Presale/Presale.sol:Presale",
        "label": "_rate",
        "offset": 0,
        "slot": "2",
        "type": "t_uint256"
      },
      {
        "astId": 2336,
        "contract": "contracts/Presale/Presale.sol:Presale",
        "label": "beneficiary",
        "offset": 0,
        "slot": "3",
        "type": "t_address"
      },
      {
        "astId": 2339,
        "contract": "contracts/Presale/Presale.sol:Presale",
        "label": "active",
        "offset": 20,
        "slot": "3",
        "type": "t_bool"
      }
    ],
    "types": {
      "t_address": {
        "encoding": "inplace",
        "label": "address",
        "numberOfBytes": "20"
      },
      "t_bool": {
        "encoding": "inplace",
        "label": "bool",
        "numberOfBytes": "1"
      },
      "t_uint256": {
        "encoding": "inplace",
        "label": "uint256",
        "numberOfBytes": "32"
      },
      "t_uint8": {
        "encoding": "inplace",
        "label": "uint8",
        "numberOfBytes": "1"
      }
    }
  }
}