{
  "address": "0x89161E891C4492BCe210c287B6093D802a624991",
  "abi": [
    {
      "inputs": [
        {
          "internalType": "address",
          "name": "beneficiary_",
          "type": "address"
        }
      ],
      "stateMutability": "nonpayable",
      "type": "constructor"
    },
    {
      "anonymous": false,
      "inputs": [
        {
          "indexed": true,
          "internalType": "address",
          "name": "previousOwner",
          "type": "address"
        },
        {
          "indexed": true,
          "internalType": "address",
          "name": "newOwner",
          "type": "address"
        }
      ],
      "name": "OwnershipTransferred",
      "type": "event"
    },
    {
      "inputs": [
        {
          "internalType": "uint256",
          "name": "payableAmount",
          "type": "uint256"
        },
        {
          "internalType": "address",
          "name": "buyer",
          "type": "address"
        }
      ],
      "name": "buyTokens",
      "outputs": [],
      "stateMutability": "nonpayable",
      "type": "function"
    },
    {
      "inputs": [],
      "name": "getPresaleStatus",
      "outputs": [
        {
          "internalType": "bool",
          "name": "",
          "type": "bool"
        }
      ],
      "stateMutability": "view",
      "type": "function"
    },
    {
      "inputs": [],
      "name": "getTokenDecimals",
      "outputs": [
        {
          "internalType": "uint8",
          "name": "",
          "type": "uint8"
        }
      ],
      "stateMutability": "view",
      "type": "function"
    },
    {
      "inputs": [],
      "name": "owner",
      "outputs": [
        {
          "internalType": "address",
          "name": "",
          "type": "address"
        }
      ],
      "stateMutability": "view",
      "type": "function"
    },
    {
      "inputs": [],
      "name": "presaleToken",
      "outputs": [
        {
          "internalType": "address",
          "name": "",
          "type": "address"
        }
      ],
      "stateMutability": "view",
      "type": "function"
    },
    {
      "inputs": [],
      "name": "rate",
      "outputs": [
        {
          "internalType": "uint256",
          "name": "",
          "type": "uint256"
        }
      ],
      "stateMutability": "view",
      "type": "function"
    },
    {
      "inputs": [
        {
          "internalType": "address",
          "name": "tokenAddress",
          "type": "address"
        }
      ],
      "name": "removeERC20",
      "outputs": [],
      "stateMutability": "nonpayable",
      "type": "function"
    },
    {
      "inputs": [],
      "name": "removeETH",
      "outputs": [],
      "stateMutability": "payable",
      "type": "function"
    },
    {
      "inputs": [],
      "name": "renounceOwnership",
      "outputs": [],
      "stateMutability": "nonpayable",
      "type": "function"
    },
    {
      "inputs": [],
      "name": "setPresaleActive",
      "outputs": [],
      "stateMutability": "nonpayable",
      "type": "function"
    },
    {
      "inputs": [
        {
          "internalType": "address",
          "name": "token_",
          "type": "address"
        }
      ],
      "name": "setPresaleToken",
      "outputs": [],
      "stateMutability": "nonpayable",
      "type": "function"
    },
    {
      "inputs": [
        {
          "internalType": "uint256",
          "name": "rate_",
          "type": "uint256"
        }
      ],
      "name": "setRate",
      "outputs": [],
      "stateMutability": "nonpayable",
      "type": "function"
    },
    {
      "inputs": [
        {
          "internalType": "uint8",
          "name": "newDecimals",
          "type": "uint8"
        }
      ],
      "name": "setTokenDecimals",
      "outputs": [],
      "stateMutability": "nonpayable",
      "type": "function"
    },
    {
      "inputs": [],
      "name": "tokensLeft",
      "outputs": [
        {
          "internalType": "uint256",
          "name": "",
          "type": "uint256"
        }
      ],
      "stateMutability": "view",
      "type": "function"
    },
    {
      "inputs": [
        {
          "internalType": "address",
          "name": "newOwner",
          "type": "address"
        }
      ],
      "name": "transferOwnership",
      "outputs": [],
      "stateMutability": "nonpayable",
      "type": "function"
    },
    {
      "stateMutability": "payable",
      "type": "receive"
    }
  ],
  "transactionHash": "0xafa14418002a23abd3e9e6b239b58d6c49822a522db873732f0836c56816852a",
  "args": [
    "0x02c368c0787BB33ACAc698049CcA2454B5cC96c5"
  ],
  "numDeployments": 1,
  "solcInputHash": "01a5340510c27d911b20a1f18dd797d9",
  "bytecode": "0x60806040526000600160006101000a81548173ffffffffffffffffffffffffffffffffffffffff021916908373ffffffffffffffffffffffffffffffffffffffff1602179055506012600160146101000a81548160ff021916908360ff16021790555060006002556001600360146101000a81548160ff0219169083151502179055503480156200008f57600080fd5b5060405162002217380380620022178339818101604052810190620000b591906200036a565b620000d5620000c96200016860201b60201c565b6200017060201b60201c565b80600360006101000a81548173ffffffffffffffffffffffffffffffffffffffff021916908373ffffffffffffffffffffffffffffffffffffffff160217905550620001616040518060400160405280600d81526020017f636f6e74726163742063746f72000000000000000000000000000000000000008152506200023460201b620012701760201c565b5062000464565b600033905090565b60008060009054906101000a900473ffffffffffffffffffffffffffffffffffffffff169050816000806101000a81548173ffffffffffffffffffffffffffffffffffffffff021916908373ffffffffffffffffffffffffffffffffffffffff1602179055508173ffffffffffffffffffffffffffffffffffffffff168173ffffffffffffffffffffffffffffffffffffffff167f8be0079c531659141344cd1fd0a4f28419497f9722a3daafe3b4186f6b6457e060405160405180910390a35050565b620002d4816040516024016200024b919062000440565b6040516020818303038152906040527f41304fac000000000000000000000000000000000000000000000000000000007bffffffffffffffffffffffffffffffffffffffffffffffffffffffff19166020820180517bffffffffffffffffffffffffffffffffffffffffffffffffffffffff8381831617835250505050620002d760201b60201c565b50565b60008151905060006a636f6e736f6c652e6c6f679050602083016000808483855afa5050505050565b600080fd5b600073ffffffffffffffffffffffffffffffffffffffff82169050919050565b6000620003328262000305565b9050919050565b620003448162000325565b81146200035057600080fd5b50565b600081519050620003648162000339565b92915050565b60006020828403121562000383576200038262000300565b5b6000620003938482850162000353565b91505092915050565b600081519050919050565b600082825260208201905092915050565b60005b83811015620003d8578082015181840152602081019050620003bb565b83811115620003e8576000848401525b50505050565b6000601f19601f8301169050919050565b60006200040c826200039c565b620004188185620003a7565b93506200042a818560208601620003b8565b6200043581620003ee565b840191505092915050565b600060208201905081810360008301526200045c8184620003ff565b905092915050565b611da380620004746000396000f3fe6080604052600436106100ec5760003560e01c8063715018a61161008a578063c625e9b111610059578063c625e9b1146103f5578063d7517caa1461041e578063f2cf47be14610449578063f2fde38b1461047257610266565b8063715018a61461035f5780638da5cb5b14610376578063a67755c2146103a1578063b31f8f93146103ca57610266565b806329514d00116100c657806329514d00146102cb5780632c4e722e146102e257806334fcf4371461030d5780634df3cce41461033657610266565b8063217b6da61461026b57806324f65ee71461027557806324ffea1a146102a057610266565b366102665760003411610134576040517f08c379a000000000000000000000000000000000000000000000000000000000815260040161012b9061150d565b60405180910390fd5b600360149054906101000a900460ff16610183576040517f08c379a000000000000000000000000000000000000000000000000000000000815260040161017a90611579565b60405180910390fd5b600160009054906101000a900473ffffffffffffffffffffffffffffffffffffffff1673ffffffffffffffffffffffffffffffffffffffff16600073ffffffffffffffffffffffffffffffffffffffff161415610215576040517f08c379a000000000000000000000000000000000000000000000000000000000815260040161020c906115e5565b60405180910390fd5b60006002541161025a576040517f08c379a000000000000000000000000000000000000000000000000000000000815260040161025190611651565b60405180910390fd5b610264343361049b565b005b600080fd5b6102736107e9565b005b34801561028157600080fd5b5061028a610919565b604051610297919061168d565b60405180910390f35b3480156102ac57600080fd5b506102b561096e565b6040516102c291906116e9565b60405180910390f35b3480156102d757600080fd5b506102e06109d6565b005b3480156102ee57600080fd5b506102f7610abc565b604051610304919061171d565b60405180910390f35b34801561031957600080fd5b50610334600480360381019061032f9190611769565b610b04565b005b34801561034257600080fd5b5061035d600480360381019061035891906117c2565b610bc8565b005b34801561036b57600080fd5b50610374610cc6565b005b34801561038257600080fd5b5061038b610d4e565b60405161039891906116e9565b60405180910390f35b3480156103ad57600080fd5b506103c860048036038101906103c391906117c2565b610d77565b005b3480156103d657600080fd5b506103df610f6a565b6040516103ec919061171d565b60405180910390f35b34801561040157600080fd5b5061041c600480360381019061041791906117ef565b61049b565b005b34801561042a57600080fd5b5061043361104b565b604051610440919061184a565b60405180910390f35b34801561045557600080fd5b50610470600480360381019061046b9190611891565b6110a0565b005b34801561047e57600080fd5b50610499600480360381019061049491906117c2565b611178565b005b6104d96040518060400160405280600981526020017f627579546f6b656e730000000000000000000000000000000000000000000000815250611270565b6000600160009054906101000a900473ffffffffffffffffffffffffffffffffffffffff16905060006105176002548561130990919063ffffffff16565b90506105d16040518060400160405280600e81526020017f746f6b656e73546f53616c653a200000000000000000000000000000000000008152508373ffffffffffffffffffffffffffffffffffffffff166370a08231306040518263ffffffff1660e01b815260040161058b91906116e9565b602060405180830381865afa1580156105a8573d6000803e3d6000fd5b505050506040513d601f19601f820116820180604052508101906105cc91906118d3565b61131f565b808273ffffffffffffffffffffffffffffffffffffffff166370a08231306040518263ffffffff1660e01b815260040161060b91906116e9565b602060405180830381865afa158015610628573d6000803e3d6000fd5b505050506040513d601f19601f8201168201806040525081019061064c91906118d3565b101561068d576040517f08c379a00000000000000000000000000000000000000000000000000000000081526004016106849061194c565b60405180910390fd5b8173ffffffffffffffffffffffffffffffffffffffff1663a9059cbb84836040518363ffffffff1660e01b81526004016106c892919061196c565b6020604051808303816000875af11580156106e7573d6000803e3d6000fd5b505050506040513d601f19601f8201168201806040525081019061070b91906119c1565b61074a576040517f08c379a000000000000000000000000000000000000000000000000000000000815260040161074190611a3a565b60405180910390fd5b6000600360009054906101000a900473ffffffffffffffffffffffffffffffffffffffff1673ffffffffffffffffffffffffffffffffffffffff168560405161079290611a8b565b60006040518083038185875af1925050503d80600081146107cf576040519150601f19603f3d011682016040523d82523d6000602084013e6107d4565b606091505b50509050806107e257600080fd5b5050505050565b6107f16113bb565b73ffffffffffffffffffffffffffffffffffffffff1661080f610d4e565b73ffffffffffffffffffffffffffffffffffffffff1614610865576040517f08c379a000000000000000000000000000000000000000000000000000000000815260040161085c90611aec565b60405180910390fd5b6108a36040518060400160405280600981526020017f72656d6f76654554480000000000000000000000000000000000000000000000815250611270565b3373ffffffffffffffffffffffffffffffffffffffff166108fc479081150290604051600060405180830381858888f19350505050610917576040517f08c379a000000000000000000000000000000000000000000000000000000000815260040161090e90611b58565b60405180910390fd5b565b60006109596040518060400160405280601081526020017f676574546f6b656e446563696d616c7300000000000000000000000000000000815250611270565b600160149054906101000a900460ff16905090565b60006109ae6040518060400160405280600c81526020017f70726573616c65546f6b656e0000000000000000000000000000000000000000815250611270565b600160009054906101000a900473ffffffffffffffffffffffffffffffffffffffff16905090565b6109de6113bb565b73ffffffffffffffffffffffffffffffffffffffff166109fc610d4e565b73ffffffffffffffffffffffffffffffffffffffff1614610a52576040517f08c379a0000000000000000000000000000000000000000000000000000000008152600401610a4990611aec565b60405180910390fd5b610a906040518060400160405280601081526020017f73657450726573616c6541637469766500000000000000000000000000000000815250611270565b600360149054906101000a900460ff1615600360146101000a81548160ff021916908315150217905550565b6000610afc6040518060400160405280600481526020017f7261746500000000000000000000000000000000000000000000000000000000815250611270565b600254905090565b610b0c6113bb565b73ffffffffffffffffffffffffffffffffffffffff16610b2a610d4e565b73ffffffffffffffffffffffffffffffffffffffff1614610b80576040517f08c379a0000000000000000000000000000000000000000000000000000000008152600401610b7790611aec565b60405180910390fd5b610bbe6040518060400160405280600781526020017f7365745261746500000000000000000000000000000000000000000000000000815250611270565b8060028190555050565b610bd06113bb565b73ffffffffffffffffffffffffffffffffffffffff16610bee610d4e565b73ffffffffffffffffffffffffffffffffffffffff1614610c44576040517f08c379a0000000000000000000000000000000000000000000000000000000008152600401610c3b90611aec565b60405180910390fd5b610c826040518060400160405280600f81526020017f73657450726573616c65546f6b656e0000000000000000000000000000000000815250611270565b80600160006101000a81548173ffffffffffffffffffffffffffffffffffffffff021916908373ffffffffffffffffffffffffffffffffffffffff16021790555050565b610cce6113bb565b73ffffffffffffffffffffffffffffffffffffffff16610cec610d4e565b73ffffffffffffffffffffffffffffffffffffffff1614610d42576040517f08c379a0000000000000000000000000000000000000000000000000000000008152600401610d3990611aec565b60405180910390fd5b610d4c60006113c3565b565b60008060009054906101000a900473ffffffffffffffffffffffffffffffffffffffff16905090565b610d7f6113bb565b73ffffffffffffffffffffffffffffffffffffffff16610d9d610d4e565b73ffffffffffffffffffffffffffffffffffffffff1614610df3576040517f08c379a0000000000000000000000000000000000000000000000000000000008152600401610dea90611aec565b60405180910390fd5b610e316040518060400160405280600b81526020017f72656d6f76654552433230000000000000000000000000000000000000000000815250611270565b8073ffffffffffffffffffffffffffffffffffffffff1663a9059cbb338373ffffffffffffffffffffffffffffffffffffffff166370a08231306040518263ffffffff1660e01b8152600401610e8791906116e9565b602060405180830381865afa158015610ea4573d6000803e3d6000fd5b505050506040513d601f19601f82011682018060405250810190610ec891906118d3565b6040518363ffffffff1660e01b8152600401610ee592919061196c565b6020604051808303816000875af1158015610f04573d6000803e3d6000fd5b505050506040513d601f19601f82011682018060405250810190610f2891906119c1565b610f67576040517f08c379a0000000000000000000000000000000000000000000000000000000008152600401610f5e90611b58565b60405180910390fd5b50565b6000610faa6040518060400160405280600a81526020017f746f6b656e734c65667400000000000000000000000000000000000000000000815250611270565b600160009054906101000a900473ffffffffffffffffffffffffffffffffffffffff1673ffffffffffffffffffffffffffffffffffffffff166370a08231306040518263ffffffff1660e01b815260040161100591906116e9565b602060405180830381865afa158015611022573d6000803e3d6000fd5b505050506040513d601f19601f8201168201806040525081019061104691906118d3565b905090565b600061108b6040518060400160405280601081526020017f67657450726573616c6553746174757300000000000000000000000000000000815250611270565b600360149054906101000a900460ff16905090565b6110a86113bb565b73ffffffffffffffffffffffffffffffffffffffff166110c6610d4e565b73ffffffffffffffffffffffffffffffffffffffff161461111c576040517f08c379a000000000000000000000000000000000000000000000000000000000815260040161111390611aec565b60405180910390fd5b61115a6040518060400160405280601081526020017f736574546f6b656e446563696d616c7300000000000000000000000000000000815250611270565b80600160146101000a81548160ff021916908360ff16021790555050565b6111806113bb565b73ffffffffffffffffffffffffffffffffffffffff1661119e610d4e565b73ffffffffffffffffffffffffffffffffffffffff16146111f4576040517f08c379a00000000000000000000000000000000000000000000000000000000081526004016111eb90611aec565b60405180910390fd5b600073ffffffffffffffffffffffffffffffffffffffff168173ffffffffffffffffffffffffffffffffffffffff161415611264576040517f08c379a000000000000000000000000000000000000000000000000000000000815260040161125b90611bea565b60405180910390fd5b61126d816113c3565b50565b611306816040516024016112849190611c92565b6040516020818303038152906040527f41304fac000000000000000000000000000000000000000000000000000000007bffffffffffffffffffffffffffffffffffffffffffffffffffffffff19166020820180517bffffffffffffffffffffffffffffffffffffffffffffffffffffffff8381831617835250505050611487565b50565b600081836113179190611ce3565b905092915050565b6113b78282604051602401611335929190611d3d565b6040516020818303038152906040527f9710a9d0000000000000000000000000000000000000000000000000000000007bffffffffffffffffffffffffffffffffffffffffffffffffffffffff19166020820180517bffffffffffffffffffffffffffffffffffffffffffffffffffffffff8381831617835250505050611487565b5050565b600033905090565b60008060009054906101000a900473ffffffffffffffffffffffffffffffffffffffff169050816000806101000a81548173ffffffffffffffffffffffffffffffffffffffff021916908373ffffffffffffffffffffffffffffffffffffffff1602179055508173ffffffffffffffffffffffffffffffffffffffff168173ffffffffffffffffffffffffffffffffffffffff167f8be0079c531659141344cd1fd0a4f28419497f9722a3daafe3b4186f6b6457e060405160405180910390a35050565b60008151905060006a636f6e736f6c652e6c6f679050602083016000808483855afa5050505050565b600082825260208201905092915050565b7f596f752073656e74203020455448000000000000000000000000000000000000600082015250565b60006114f7600e836114b0565b9150611502826114c1565b602082019050919050565b60006020820190508181036000830152611526816114ea565b9050919050565b7f50726573616c652069732073746f707065640000000000000000000000000000600082015250565b60006115636012836114b0565b915061156e8261152d565b602082019050919050565b6000602082019050818103600083015261159281611556565b9050919050565b7f546f6b656e206e6f742073657400000000000000000000000000000000000000600082015250565b60006115cf600d836114b0565b91506115da82611599565b602082019050919050565b600060208201905081810360008301526115fe816115c2565b9050919050565b7f5261746520636f756c64206e6f74206265203000000000000000000000000000600082015250565b600061163b6013836114b0565b915061164682611605565b602082019050919050565b6000602082019050818103600083015261166a8161162e565b9050919050565b600060ff82169050919050565b61168781611671565b82525050565b60006020820190506116a2600083018461167e565b92915050565b600073ffffffffffffffffffffffffffffffffffffffff82169050919050565b60006116d3826116a8565b9050919050565b6116e3816116c8565b82525050565b60006020820190506116fe60008301846116da565b92915050565b6000819050919050565b61171781611704565b82525050565b6000602082019050611732600083018461170e565b92915050565b600080fd5b61174681611704565b811461175157600080fd5b50565b6000813590506117638161173d565b92915050565b60006020828403121561177f5761177e611738565b5b600061178d84828501611754565b91505092915050565b61179f816116c8565b81146117aa57600080fd5b50565b6000813590506117bc81611796565b92915050565b6000602082840312156117d8576117d7611738565b5b60006117e6848285016117ad565b91505092915050565b6000806040838503121561180657611805611738565b5b600061181485828601611754565b9250506020611825858286016117ad565b9150509250929050565b60008115159050919050565b6118448161182f565b82525050565b600060208201905061185f600083018461183b565b92915050565b61186e81611671565b811461187957600080fd5b50565b60008135905061188b81611865565b92915050565b6000602082840312156118a7576118a6611738565b5b60006118b58482850161187c565b91505092915050565b6000815190506118cd8161173d565b92915050565b6000602082840312156118e9576118e8611738565b5b60006118f7848285016118be565b91505092915050565b7f4e6f7420656e6f75676820746f6b656e7320746f2073616c6500000000000000600082015250565b60006119366019836114b0565b915061194182611900565b602082019050919050565b6000602082019050818103600083015261196581611929565b9050919050565b600060408201905061198160008301856116da565b61198e602083018461170e565b9392505050565b61199e8161182f565b81146119a957600080fd5b50565b6000815190506119bb81611995565b92915050565b6000602082840312156119d7576119d6611738565b5b60006119e5848285016119ac565b91505092915050565b7f4661696c656420746f207472616e7366657220746f6b656e7300000000000000600082015250565b6000611a246019836114b0565b9150611a2f826119ee565b602082019050919050565b60006020820190508181036000830152611a5381611a17565b9050919050565b600081905092915050565b50565b6000611a75600083611a5a565b9150611a8082611a65565b600082019050919050565b6000611a9682611a68565b9150819050919050565b7f4f776e61626c653a2063616c6c6572206973206e6f7420746865206f776e6572600082015250565b6000611ad66020836114b0565b9150611ae182611aa0565b602082019050919050565b60006020820190508181036000830152611b0581611ac9565b9050919050565b7f4641494c00000000000000000000000000000000000000000000000000000000600082015250565b6000611b426004836114b0565b9150611b4d82611b0c565b602082019050919050565b60006020820190508181036000830152611b7181611b35565b9050919050565b7f4f776e61626c653a206e6577206f776e657220697320746865207a65726f206160008201527f6464726573730000000000000000000000000000000000000000000000000000602082015250565b6000611bd46026836114b0565b9150611bdf82611b78565b604082019050919050565b60006020820190508181036000830152611c0381611bc7565b9050919050565b600081519050919050565b60005b83811015611c33578082015181840152602081019050611c18565b83811115611c42576000848401525b50505050565b6000601f19601f8301169050919050565b6000611c6482611c0a565b611c6e81856114b0565b9350611c7e818560208601611c15565b611c8781611c48565b840191505092915050565b60006020820190508181036000830152611cac8184611c59565b905092915050565b7f4e487b7100000000000000000000000000000000000000000000000000000000600052601160045260246000fd5b6000611cee82611704565b9150611cf983611704565b9250817fffffffffffffffffffffffffffffffffffffffffffffffffffffffffffffffff0483118215151615611d3257611d31611cb4565b5b828202905092915050565b60006040820190508181036000830152611d578185611c59565b9050611d66602083018461170e565b939250505056fea2646970667358221220c366ec4a30f7dfa06403ecbb7725d4fa56768c33b162cbc3fc9ad59fb934e0a364736f6c634300080a0033",
  "devdoc": {
    "kind": "dev",
    "methods": {
      "owner()": {
        "details": "Returns the address of the current owner."
      },
      "renounceOwnership()": {
        "details": "Leaves the contract without owner. It will not be possible to call `onlyOwner` functions anymore. Can only be called by the current owner. NOTE: Renouncing ownership will leave the contract without an owner, thereby removing any functionality that is only available to the owner."
      },
      "transferOwnership(address)": {
        "details": "Transfers ownership of the contract to a new account (`newOwner`). Can only be called by the current owner."
      }
    },
    "version": 1
  },
  "userdoc": {
    "kind": "user",
    "methods": {},
    "version": 1
  },
  "storageLayout": {
    "storage": [
      {
        "astId": 7,
        "contract": "contracts/Presale/Presale.sol:Presale",
        "label": "_owner",
        "offset": 0,
        "slot": "0",
        "type": "t_address"
      },
      {
        "astId": 1149,
        "contract": "contracts/Presale/Presale.sol:Presale",
        "label": "_token",
        "offset": 0,
        "slot": "1",
        "type": "t_address"
      },
      {
        "astId": 1152,
        "contract": "contracts/Presale/Presale.sol:Presale",
        "label": "_tokenDecimals",
        "offset": 20,
        "slot": "1",
        "type": "t_uint8"
      },
      {
        "astId": 1155,
        "contract": "contracts/Presale/Presale.sol:Presale",
        "label": "_rate",
        "offset": 0,
        "slot": "2",
        "type": "t_uint256"
      },
      {
        "astId": 1157,
        "contract": "contracts/Presale/Presale.sol:Presale",
        "label": "beneficiary",
        "offset": 0,
        "slot": "3",
        "type": "t_address"
      },
      {
        "astId": 1160,
        "contract": "contracts/Presale/Presale.sol:Presale",
        "label": "active",
        "offset": 20,
        "slot": "3",
        "type": "t_bool"
      }
    ],
    "types": {
      "t_address": {
        "encoding": "inplace",
        "label": "address",
        "numberOfBytes": "20"
      },
      "t_bool": {
        "encoding": "inplace",
        "label": "bool",
        "numberOfBytes": "1"
      },
      "t_uint256": {
        "encoding": "inplace",
        "label": "uint256",
        "numberOfBytes": "32"
      },
      "t_uint8": {
        "encoding": "inplace",
        "label": "uint8",
        "numberOfBytes": "1"
      }
    }
  }
}