{
  "address": "0x464A471A6441Ed592e79F941aD95d07390A41F23",
  "abi": [
    {
      "inputs": [
        {
          "internalType": "address",
          "name": "_bash",
          "type": "address"
        },
        {
          "internalType": "address",
          "name": "_principle",
          "type": "address"
        },
        {
          "internalType": "address",
          "name": "_treasury",
          "type": "address"
        },
        {
          "internalType": "address",
          "name": "_DAO",
          "type": "address"
        },
        {
          "internalType": "address",
          "name": "_bondCalculator",
          "type": "address"
        }
      ],
      "stateMutability": "nonpayable",
      "type": "constructor"
    },
    {
      "anonymous": false,
      "inputs": [
        {
          "indexed": false,
          "internalType": "uint256",
          "name": "deposit",
          "type": "uint256"
        },
        {
          "indexed": true,
          "internalType": "uint256",
          "name": "payout",
          "type": "uint256"
        },
        {
          "indexed": true,
          "internalType": "uint256",
          "name": "expires",
          "type": "uint256"
        },
        {
          "indexed": true,
          "internalType": "uint256",
          "name": "priceInUSD",
          "type": "uint256"
        }
      ],
      "name": "BondCreated",
      "type": "event"
    },
    {
      "anonymous": false,
      "inputs": [
        {
          "indexed": true,
          "internalType": "uint256",
          "name": "priceInUSD",
          "type": "uint256"
        },
        {
          "indexed": true,
          "internalType": "uint256",
          "name": "internalPrice",
          "type": "uint256"
        },
        {
          "indexed": true,
          "internalType": "uint256",
          "name": "debtRatio",
          "type": "uint256"
        }
      ],
      "name": "BondPriceChanged",
      "type": "event"
    },
    {
      "anonymous": false,
      "inputs": [
        {
          "indexed": true,
          "internalType": "address",
          "name": "recipient",
          "type": "address"
        },
        {
          "indexed": false,
          "internalType": "uint256",
          "name": "payout",
          "type": "uint256"
        },
        {
          "indexed": false,
          "internalType": "uint256",
          "name": "remaining",
          "type": "uint256"
        }
      ],
      "name": "BondRedeemed",
      "type": "event"
    },
    {
      "anonymous": false,
      "inputs": [
        {
          "indexed": false,
          "internalType": "uint256",
          "name": "initialBCV",
          "type": "uint256"
        },
        {
          "indexed": false,
          "internalType": "uint256",
          "name": "newBCV",
          "type": "uint256"
        },
        {
          "indexed": false,
          "internalType": "uint256",
          "name": "adjustment",
          "type": "uint256"
        },
        {
          "indexed": false,
          "internalType": "bool",
          "name": "addition",
          "type": "bool"
        }
      ],
      "name": "ControlVariableAdjustment",
      "type": "event"
    },
    {
      "anonymous": false,
      "inputs": [
        {
          "indexed": true,
          "internalType": "address",
          "name": "previousOwner",
          "type": "address"
        },
        {
          "indexed": true,
          "internalType": "address",
          "name": "newOwner",
          "type": "address"
        }
      ],
      "name": "OwnershipPulled",
      "type": "event"
    },
    {
      "anonymous": false,
      "inputs": [
        {
          "indexed": true,
          "internalType": "address",
          "name": "previousOwner",
          "type": "address"
        },
        {
          "indexed": true,
          "internalType": "address",
          "name": "newOwner",
          "type": "address"
        }
      ],
      "name": "OwnershipPushed",
      "type": "event"
    },
    {
      "inputs": [],
      "name": "Bash",
      "outputs": [
        {
          "internalType": "address",
          "name": "",
          "type": "address"
        }
      ],
      "stateMutability": "view",
      "type": "function"
    },
    {
      "inputs": [],
      "name": "DAO",
      "outputs": [
        {
          "internalType": "address",
          "name": "",
          "type": "address"
        }
      ],
      "stateMutability": "view",
      "type": "function"
    },
    {
      "inputs": [],
      "name": "adjustment",
      "outputs": [
        {
          "internalType": "bool",
          "name": "add",
          "type": "bool"
        },
        {
          "internalType": "uint256",
          "name": "rate",
          "type": "uint256"
        },
        {
          "internalType": "uint256",
          "name": "target",
          "type": "uint256"
        },
        {
          "internalType": "uint32",
          "name": "buffer",
          "type": "uint32"
        },
        {
          "internalType": "uint32",
          "name": "lastTime",
          "type": "uint32"
        }
      ],
      "stateMutability": "view",
      "type": "function"
    },
    {
      "inputs": [],
      "name": "bondCalculator",
      "outputs": [
        {
          "internalType": "address",
          "name": "",
          "type": "address"
        }
      ],
      "stateMutability": "view",
      "type": "function"
    },
    {
      "inputs": [
        {
          "internalType": "address",
          "name": "",
          "type": "address"
        }
      ],
      "name": "bondInfo",
      "outputs": [
        {
          "internalType": "uint256",
          "name": "payout",
          "type": "uint256"
        },
        {
          "internalType": "uint256",
          "name": "pricePaid",
          "type": "uint256"
        },
        {
          "internalType": "uint32",
          "name": "lastTime",
          "type": "uint32"
        },
        {
          "internalType": "uint32",
          "name": "vesting",
          "type": "uint32"
        }
      ],
      "stateMutability": "view",
      "type": "function"
    },
    {
      "inputs": [],
      "name": "bondPrice",
      "outputs": [
        {
          "internalType": "uint256",
          "name": "price_",
          "type": "uint256"
        }
      ],
      "stateMutability": "view",
      "type": "function"
    },
    {
      "inputs": [],
      "name": "bondPriceInUSD",
      "outputs": [
        {
          "internalType": "uint256",
          "name": "price_",
          "type": "uint256"
        }
      ],
      "stateMutability": "view",
      "type": "function"
    },
    {
      "inputs": [],
      "name": "currentDebt",
      "outputs": [
        {
          "internalType": "uint256",
          "name": "",
          "type": "uint256"
        }
      ],
      "stateMutability": "view",
      "type": "function"
    },
    {
      "inputs": [],
      "name": "debtDecay",
      "outputs": [
        {
          "internalType": "uint256",
          "name": "decay_",
          "type": "uint256"
        }
      ],
      "stateMutability": "view",
      "type": "function"
    },
    {
      "inputs": [],
      "name": "debtRatio",
      "outputs": [
        {
          "internalType": "uint256",
          "name": "debtRatio_",
          "type": "uint256"
        }
      ],
      "stateMutability": "view",
      "type": "function"
    },
    {
      "inputs": [
        {
          "internalType": "uint256",
          "name": "_amount",
          "type": "uint256"
        },
        {
          "internalType": "uint256",
          "name": "_maxPrice",
          "type": "uint256"
        },
        {
          "internalType": "address",
          "name": "_depositor",
          "type": "address"
        }
      ],
      "name": "deposit",
      "outputs": [
        {
          "internalType": "uint256",
          "name": "",
          "type": "uint256"
        }
      ],
      "stateMutability": "nonpayable",
      "type": "function"
    },
    {
      "inputs": [
        {
          "internalType": "uint256",
          "name": "_controlVariable",
          "type": "uint256"
        },
        {
          "internalType": "uint256",
          "name": "_minimumPrice",
          "type": "uint256"
        },
        {
          "internalType": "uint256",
          "name": "_maxPayout",
          "type": "uint256"
        },
        {
          "internalType": "uint256",
          "name": "_fee",
          "type": "uint256"
        },
        {
          "internalType": "uint256",
          "name": "_maxDebt",
          "type": "uint256"
        },
        {
          "internalType": "uint256",
          "name": "_initialDebt",
          "type": "uint256"
        },
        {
          "internalType": "uint32",
          "name": "_vestingTerm",
          "type": "uint32"
        }
      ],
      "name": "initializeBondTerms",
      "outputs": [],
      "stateMutability": "nonpayable",
      "type": "function"
    },
    {
      "inputs": [],
      "name": "isLiquidityBond",
      "outputs": [
        {
          "internalType": "bool",
          "name": "",
          "type": "bool"
        }
      ],
      "stateMutability": "view",
      "type": "function"
    },
    {
      "inputs": [],
      "name": "lastDecay",
      "outputs": [
        {
          "internalType": "uint32",
          "name": "",
          "type": "uint32"
        }
      ],
      "stateMutability": "view",
      "type": "function"
    },
    {
      "inputs": [],
      "name": "maxPayout",
      "outputs": [
        {
          "internalType": "uint256",
          "name": "",
          "type": "uint256"
        }
      ],
      "stateMutability": "view",
      "type": "function"
    },
    {
      "inputs": [
        {
          "internalType": "uint256",
          "name": "_value",
          "type": "uint256"
        }
      ],
      "name": "payoutFor",
      "outputs": [
        {
          "internalType": "uint256",
          "name": "",
          "type": "uint256"
        }
      ],
      "stateMutability": "view",
      "type": "function"
    },
    {
      "inputs": [
        {
          "internalType": "address",
          "name": "_depositor",
          "type": "address"
        }
      ],
      "name": "pendingPayoutFor",
      "outputs": [
        {
          "internalType": "uint256",
          "name": "pendingPayout_",
          "type": "uint256"
        }
      ],
      "stateMutability": "view",
      "type": "function"
    },
    {
      "inputs": [
        {
          "internalType": "address",
          "name": "_depositor",
          "type": "address"
        }
      ],
      "name": "percentVestedFor",
      "outputs": [
        {
          "internalType": "uint256",
          "name": "percentVested_",
          "type": "uint256"
        }
      ],
      "stateMutability": "view",
      "type": "function"
    },
    {
      "inputs": [],
      "name": "policy",
      "outputs": [
        {
          "internalType": "address",
          "name": "",
          "type": "address"
        }
      ],
      "stateMutability": "view",
      "type": "function"
    },
    {
      "inputs": [],
      "name": "principle",
      "outputs": [
        {
          "internalType": "address",
          "name": "",
          "type": "address"
        }
      ],
      "stateMutability": "view",
      "type": "function"
    },
    {
      "inputs": [],
      "name": "pullManagement",
      "outputs": [],
      "stateMutability": "nonpayable",
      "type": "function"
    },
    {
      "inputs": [
        {
          "internalType": "address",
          "name": "newOwner_",
          "type": "address"
        }
      ],
      "name": "pushManagement",
      "outputs": [],
      "stateMutability": "nonpayable",
      "type": "function"
    },
    {
      "inputs": [
        {
          "internalType": "address",
          "name": "_token",
          "type": "address"
        }
      ],
      "name": "recoverLostToken",
      "outputs": [
        {
          "internalType": "bool",
          "name": "",
          "type": "bool"
        }
      ],
      "stateMutability": "nonpayable",
      "type": "function"
    },
    {
      "inputs": [
        {
          "internalType": "address",
          "name": "_recipient",
          "type": "address"
        },
        {
          "internalType": "bool",
          "name": "_stake",
          "type": "bool"
        }
      ],
      "name": "redeem",
      "outputs": [
        {
          "internalType": "uint256",
          "name": "",
          "type": "uint256"
        }
      ],
      "stateMutability": "nonpayable",
      "type": "function"
    },
    {
      "inputs": [],
      "name": "renounceManagement",
      "outputs": [],
      "stateMutability": "nonpayable",
      "type": "function"
    },
    {
      "inputs": [
        {
          "internalType": "bool",
          "name": "_addition",
          "type": "bool"
        },
        {
          "internalType": "uint256",
          "name": "_increment",
          "type": "uint256"
        },
        {
          "internalType": "uint256",
          "name": "_target",
          "type": "uint256"
        },
        {
          "internalType": "uint32",
          "name": "_buffer",
          "type": "uint32"
        }
      ],
      "name": "setAdjustment",
      "outputs": [],
      "stateMutability": "nonpayable",
      "type": "function"
    },
    {
      "inputs": [
        {
          "internalType": "enum atbashBondDepository.PARAMETER",
          "name": "_parameter",
          "type": "uint8"
        },
        {
          "internalType": "uint256",
          "name": "_input",
          "type": "uint256"
        }
      ],
      "name": "setBondTerms",
      "outputs": [],
      "stateMutability": "nonpayable",
      "type": "function"
    },
    {
      "inputs": [
        {
          "internalType": "address",
          "name": "_staking",
          "type": "address"
        },
        {
          "internalType": "bool",
          "name": "_helper",
          "type": "bool"
        }
      ],
      "name": "setStaking",
      "outputs": [],
      "stateMutability": "nonpayable",
      "type": "function"
    },
    {
      "inputs": [],
      "name": "staking",
      "outputs": [
        {
          "internalType": "address",
          "name": "",
          "type": "address"
        }
      ],
      "stateMutability": "view",
      "type": "function"
    },
    {
      "inputs": [],
      "name": "stakingHelper",
      "outputs": [
        {
          "internalType": "address",
          "name": "",
          "type": "address"
        }
      ],
      "stateMutability": "view",
      "type": "function"
    },
    {
      "inputs": [],
      "name": "standardizedDebtRatio",
      "outputs": [
        {
          "internalType": "uint256",
          "name": "",
          "type": "uint256"
        }
      ],
      "stateMutability": "view",
      "type": "function"
    },
    {
      "inputs": [],
      "name": "terms",
      "outputs": [
        {
          "internalType": "uint256",
          "name": "controlVariable",
          "type": "uint256"
        },
        {
          "internalType": "uint256",
          "name": "minimumPrice",
          "type": "uint256"
        },
        {
          "internalType": "uint256",
          "name": "maxPayout",
          "type": "uint256"
        },
        {
          "internalType": "uint256",
          "name": "fee",
          "type": "uint256"
        },
        {
          "internalType": "uint256",
          "name": "maxDebt",
          "type": "uint256"
        },
        {
          "internalType": "uint32",
          "name": "vestingTerm",
          "type": "uint32"
        }
      ],
      "stateMutability": "view",
      "type": "function"
    },
    {
      "inputs": [],
      "name": "totalDebt",
      "outputs": [
        {
          "internalType": "uint256",
          "name": "",
          "type": "uint256"
        }
      ],
      "stateMutability": "view",
      "type": "function"
    },
    {
      "inputs": [],
      "name": "treasury",
      "outputs": [
        {
          "internalType": "address",
          "name": "",
          "type": "address"
        }
      ],
      "stateMutability": "view",
      "type": "function"
    },
    {
      "inputs": [],
      "name": "useHelper",
      "outputs": [
        {
          "internalType": "bool",
          "name": "",
          "type": "bool"
        }
      ],
      "stateMutability": "view",
      "type": "function"
    }
  ],
  "transactionHash": "0x028a9e48767ae629b0b2b940a1815258afd7ca60de7c58f03d7c95fb8190021f",
  "args": [
    "0x5646077E2779a4e8607A99257bD76F627A262d86",
    "0x6b175474e89094c44da98b954eedeac495271d0f",
    "0x26FdD9ec526C61A3139ab27bA7775F07964E5EA1",
    "0x956769FC9Dae4ae9309990167937Ac6DeF306fBC",
    "0x0000000000000000000000000000000000000000"
  ],
  "numDeployments": 1,
  "solcInputHash": "1ed1fada204c36c360193582a3c5764a",
  "bytecode": "0x6101406040523480156200001257600080fd5b5060405162002f2738038062002f27833981810160405260a08110156200003857600080fd5b50805160208201516040808401516060850151608090950151600080546001600160a01b031916331780825593519596949592949391926001600160a01b0392909216917fea8258f2d9ddb679928cf34b78cf645b7feda9acc828e4dd82d014eaae270eba908290a36001600160a01b038516620000b557600080fd5b6001600160601b0319606086901b166080526001600160a01b038416620000db57600080fd5b6001600160601b0319606085901b1660a0526001600160a01b0383166200010157600080fd5b6001600160601b0319606084901b1660c0526001600160a01b0382166200012757600080fd5b6001600160601b0319606092831b811660e0529181901b909116610120526001600160a01b0316151560f81b6101005250505060805160601c60a05160601c60c05160601c60e05160601c6101005160f81c6101205160601c612cf96200022e60003980610ee252806116d352806119cd525080610eb452806116a25280611cf8525080611512528061179c528061191a525080610e3e5280611162528061138452806114665250806106055280610f115280610fb85280611191528061132b52806113555280611435528061170252806118d8525080610b9252806114f052806118995280611a275280611d6d5280611f0c5280611ff152806121065250612cf96000f3fe608060405234801561001057600080fd5b50600436106102415760003560e01c8063844b5c7c11610145578063cf37a891116100bd578063d7ccfb0b1161008c578063e392a26211610071578063e392a262146105d2578063f5c2ab5b146105da578063fc7b9c18146105fb57610241565b8063d7ccfb0b146105c2578063e0176de8146105ca57610241565b8063cf37a89114610504578063d4d863ce1461054b578063d502562514610579578063d7969060146105ba57610241565b8063ae9832cf11610114578063c5332b7c116100f9578063c5332b7c146104a2578063cd1234b3146104aa578063cea55f57146104fc57610241565b8063ae9832cf14610445578063b4abccba1461047c57610241565b8063844b5c7c146103fb5780638dbdbe6d14610403578063904b3ece1461043557806398fabd3a1461043d57610241565b8063451ee4a1116101d85780635a96ac0a116101a7578063759076e51161018c578063759076e5146103ce57806377b81895146103d65780637927ebf8146103de57610241565b80635a96ac0a146103be57806361d027b3146103c657610241565b8063451ee4a11461032c57806346f68ee91461036a5780634cf088d914610390578063507930ec1461039857610241565b80631e321a0f116102145780631e321a0f146102b45780631feed31f146102da5780632f3f470a146103085780633c4e6da71461032457610241565b8063016a42841461024657806301b88ee81461026a5780630505c8c9146102a2578063089208d8146102aa575b600080fd5b61024e610603565b604080516001600160a01b039092168252519081900360200190f35b6102906004803603602081101561028057600080fd5b50356001600160a01b0316610627565b60408051918252519081900360200190f35b61024e610680565b6102b2610690565b005b6102b2600480360360408110156102ca57600080fd5b5060ff8135169060200135610739565b610290600480360360408110156102f057600080fd5b506001600160a01b038135169060200135151561092e565b610310610b80565b604080519115158252519081900360200190f35b61024e610b90565b610334610bb4565b60408051951515865260208601949094528484019290925263ffffffff9081166060850152166080830152519081900360a00190f35b6102b26004803603602081101561038057600080fd5b50356001600160a01b0316610bdb565b61024e610cda565b610290600480360360208110156103ae57600080fd5b50356001600160a01b0316610ce9565b6102b2610d92565b61024e610e3c565b610290610e60565b61024e610e7b565b610290600480360360208110156103f457600080fd5b5035610e8a565b610290610eb0565b6102906004803603606081101561041957600080fd5b50803590602081013590604001356001600160a01b0316611049565b61029061169e565b61024e61179a565b6102b26004803603608081101561045b57600080fd5b5080351515906020810135906040810135906060013563ffffffff166117be565b6103106004803603602081101561049257600080fd5b50356001600160a01b0316611895565b61024e6119cb565b6104d0600480360360208110156104c057600080fd5b50356001600160a01b03166119ef565b60408051948552602085019390935263ffffffff91821684840152166060830152519081900360800190f35b610290611a22565b6102b2600480360360e081101561051a57600080fd5b5080359060208101359060408101359060608101359060808101359060a08101359060c0013563ffffffff16611ada565b6102b26004803603604081101561056157600080fd5b506001600160a01b0381351690602001351515611c06565b610581611cdb565b604080519687526020870195909552858501939093526060850191909152608084015263ffffffff1660a0830152519081900360c00190f35b610310611cf6565b610290611d1a565b610290611d59565b610290611df6565b6105e2611e4f565b6040805163ffffffff9092168252519081900360200190f35b610290611e5b565b7f000000000000000000000000000000000000000000000000000000000000000081565b60008061063383610ce9565b6001600160a01b0384166000908152600e6020526040902054909150612710821061066057809250610679565b6106766127106106708385611e61565b90611ec1565b92505b5050919050565b6000546001600160a01b03165b90565b6000546001600160a01b031633146106ef576040805162461bcd60e51b815260206004820181905260248201527f4f776e61626c653a2063616c6c6572206973206e6f7420746865206f776e6572604482015290519081900360640190fd5b600080546040516001600160a01b03909116907fea8258f2d9ddb679928cf34b78cf645b7feda9acc828e4dd82d014eaae270eba908390a3600080546001600160a01b0319169055565b6000546001600160a01b03163314610798576040805162461bcd60e51b815260206004820181905260248201527f4f776e61626c653a2063616c6c6572206973206e6f7420746865206f776e6572604482015290519081900360640190fd5b60008260048111156107a657fe5b1415610808576201fa408110156107ee5760405162461bcd60e51b8152600401808060200182810382526024815260200180612c766024913960400191505060405180910390fd5b6009805463ffffffff191663ffffffff831617905561092a565b600182600481111561081657fe5b141561087d576103e8811115610873576040805162461bcd60e51b815260206004820181905260248201527f5061796f75742063616e6e6f742062652061626f766520312070657263656e74604482015290519081900360640190fd5b600681905561092a565b600282600481111561088b57fe5b14156108f2576127108111156108e8576040805162461bcd60e51b815260206004820152601c60248201527f44414f206665652063616e6e6f7420657863656564207061796f757400000000604482015290519081900360640190fd5b600781905561092a565b600382600481111561090057fe5b141561091057600881905561092a565b600482600481111561091e57fe5b141561092a5760058190555b5050565b6000610938612b7d565b506001600160a01b0383166000908152600e602090815260408083208151608081018352815481526001820154938101939093526002015463ffffffff8082169284019290925264010000000090041660608201529061099785610ce9565b90506127108110610a2c576001600160a01b0385166000818152600e6020908152604080832083815560018101849055600201805467ffffffffffffffff19169055855181519081529182019290925281517f51c99f515c87b0d95ba97f616edd182e8f161c4932eac17c6fefe9dab58b77b1929181900390910190a2610a2385858460000151611f03565b92505050610b7a565b8151600090610a4390612710906106709085611e61565b90506040518060800160405280610a6783866000015161220790919063ffffffff16565b8152602001846020015181526020014263ffffffff168152602001610abb610aa286604001514263ffffffff1661224990919063ffffffff16565b866060015163ffffffff1661224990919063ffffffff16565b63ffffffff9081169091526001600160a01b0388166000818152600e60209081526040918290208551808255868301516001830155868401516002909201805460609098015187166401000000000267ffffffff00000000199390971663ffffffff19909816979097179190911694909417909455805185815293840192909252815190927f51c99f515c87b0d95ba97f616edd182e8f161c4932eac17c6fefe9dab58b77b192908290030190a2610b74868683611f03565b93505050505b92915050565b600354600160a01b900460ff1681565b7f000000000000000000000000000000000000000000000000000000000000000081565b600a54600b54600c54600d5460ff9093169263ffffffff8082169164010000000090041685565b6000546001600160a01b03163314610c3a576040805162461bcd60e51b815260206004820181905260248201527f4f776e61626c653a2063616c6c6572206973206e6f7420746865206f776e6572604482015290519081900360640190fd5b6001600160a01b038116610c7f5760405162461bcd60e51b8152600401808060200182810382526026815260200180612bc46026913960400191505060405180910390fd5b600080546040516001600160a01b03808516939216917fea8258f2d9ddb679928cf34b78cf645b7feda9acc828e4dd82d014eaae270eba91a3600180546001600160a01b0319166001600160a01b0392909216919091179055565b6002546001600160a01b031681565b6000610cf3612b7d565b506001600160a01b0382166000908152600e602090815260408083208151608081018352815481526001820154938101939093526002015463ffffffff80821692840183905264010000000090910481166060840152919291610d5a914282169161220716565b606083015190915063ffffffff168015610d8557610d7e8161067084612710611e61565b9350610d8a565b600093505b505050919050565b6001546001600160a01b03163314610ddb5760405162461bcd60e51b8152600401808060200182810382526022815260200180612bea6022913960400191505060405180910390fd5b600154600080546040516001600160a01b0393841693909116917faa151555690c956fc3ea32f106bb9f119b5237a061eaa8557cff3e51e3792c8d91a3600154600080546001600160a01b0319166001600160a01b03909216919091179055565b7f000000000000000000000000000000000000000000000000000000000000000081565b6000610e76610e6d611df6565b600f5490612207565b905090565b6003546001600160a01b031681565b6000610b7a662386f26fc10000610670610eab85610ea6611d1a565b61228b565b61240d565b60007f000000000000000000000000000000000000000000000000000000000000000015610fae57610fa760646106707f00000000000000000000000000000000000000000000000000000000000000006001600160a01b03166332da80a37f00000000000000000000000000000000000000000000000000000000000000006040518263ffffffff1660e01b815260040180826001600160a01b0316815260200191505060206040518083038186803b158015610f6d57600080fd5b505afa158015610f81573d6000803e3d6000fd5b505050506040513d6020811015610f9757600080fd5b5051610fa1611d1a565b90611e61565b905061068d565b610e7660646106707f00000000000000000000000000000000000000000000000000000000000000006001600160a01b031663313ce5676040518163ffffffff1660e01b815260040160206040518083038186803b15801561100f57600080fd5b505afa158015611023573d6000803e3d6000fd5b505050506040513d602081101561103957600080fd5b505160ff16600a0a610fa1611d1a565b60006001600160a01b0382166110a6576040805162461bcd60e51b815260206004820152600f60248201527f496e76616c696420616464726573730000000000000000000000000000000000604482015290519081900360640190fd5b6110ae612425565b600854600f541115611107576040805162461bcd60e51b815260206004820152601460248201527f4d61782063617061636974792072656163686564000000000000000000000000604482015290519081900360640190fd5b6000611111610eb0565b9050600061111d61244a565b90508085101561115e5760405162461bcd60e51b8152600401808060200182810382526023815260200180612c536023913960400191505060405180910390fd5b60007f00000000000000000000000000000000000000000000000000000000000000006001600160a01b031663f18217837f0000000000000000000000000000000000000000000000000000000000000000896040518363ffffffff1660e01b815260040180836001600160a01b031681526020018281526020019250505060206040518083038186803b1580156111f557600080fd5b505afa158015611209573d6000803e3d6000fd5b505050506040513d602081101561121f57600080fd5b50519050600061122e82610e8a565b905062989680811015611288576040805162461bcd60e51b815260206004820152600e60248201527f426f6e6420746f6f20736d616c6c000000000000000000000000000000000000604482015290519081900360640190fd5b611290611d59565b8111156112e4576040805162461bcd60e51b815260206004820152600e60248201527f426f6e6420746f6f206c61726765000000000000000000000000000000000000604482015290519081900360640190fd5b600061130461271061067060046003015485611e6190919063ffffffff16565b9050600061131c826113168686612207565b90612207565b90506113536001600160a01b037f00000000000000000000000000000000000000000000000000000000000000001633308d61248c565b7f00000000000000000000000000000000000000000000000000000000000000006001600160a01b031663095ea7b37f00000000000000000000000000000000000000000000000000000000000000008c6040518363ffffffff1660e01b815260040180836001600160a01b0316815260200182815260200192505050602060405180830381600087803b1580156113ea57600080fd5b505af11580156113fe573d6000803e3d6000fd5b505050506040513d602081101561141457600080fd5b50506040805163bc157ac160e01b8152600481018c90526001600160a01b037f0000000000000000000000000000000000000000000000000000000000000000811660248301526044820184905291517f00000000000000000000000000000000000000000000000000000000000000009092169163bc157ac1916064808201926020929091908290030181600087803b1580156114b157600080fd5b505af11580156114c5573d6000803e3d6000fd5b505050506040513d60208110156114db57600080fd5b50508115611537576115376001600160a01b037f0000000000000000000000000000000000000000000000000000000000000000167f0000000000000000000000000000000000000000000000000000000000000000846124ec565b600f546115449085612543565b600f55604080516080810182526001600160a01b038a166000908152600e602052919091205481906115769086612543565b8152602080820189905263ffffffff428181166040808601919091526009805484166060968701526001600160a01b038f166000908152600e8652829020875181559487015160018601559086015160029094018054969095015183166401000000000267ffffffff000000001994841663ffffffff1990971696909617939093169490941790925554889261161192909181169061254316565b604080518d8152905186917f1fec6dc81f140574bf43f6b1e420ae1dd47928b9d57db8cbd7b8611063b85ae5919081900360200190a461164f611a22565b61165761244a565b61165f610eb0565b6040517f375b221f40939bfd8f49723a17cf7bc6d576ebf72efe2cc3e991826f5b3f390a90600090a461169061259d565b509098975050505050505050565b60007f00000000000000000000000000000000000000000000000000000000000000001561179257610fa7633b9aca006106707f00000000000000000000000000000000000000000000000000000000000000006001600160a01b03166332da80a37f00000000000000000000000000000000000000000000000000000000000000006040518263ffffffff1660e01b815260040180826001600160a01b0316815260200191505060206040518083038186803b15801561175e57600080fd5b505afa158015611772573d6000803e3d6000fd5b505050506040513d602081101561178857600080fd5b5051610fa1611a22565b610fa7611a22565b7f000000000000000000000000000000000000000000000000000000000000000081565b6000546001600160a01b0316331461181d576040805162461bcd60e51b815260206004820181905260248201527f4f776e61626c653a2063616c6c6572206973206e6f7420746865206f776e6572604482015290519081900360640190fd5b6040805160a0810182529415158086526020860185905290850183905263ffffffff91821660608601819052429092166080909501859052600a805460ff19169091179055600b92909255600c55600d805463ffffffff191690911767ffffffff000000001916640100000000909202919091179055565b60007f00000000000000000000000000000000000000000000000000000000000000006001600160a01b0316826001600160a01b031614156118d657600080fd5b7f00000000000000000000000000000000000000000000000000000000000000006001600160a01b0316826001600160a01b0316141561191557600080fd5b6119c37f0000000000000000000000000000000000000000000000000000000000000000836001600160a01b03166370a08231306040518263ffffffff1660e01b815260040180826001600160a01b0316815260200191505060206040518083038186803b15801561198657600080fd5b505afa15801561199a573d6000803e3d6000fd5b505050506040513d60208110156119b057600080fd5b50516001600160a01b03851691906124ec565b506001919050565b7f000000000000000000000000000000000000000000000000000000000000000081565b600e6020526000908152604090208054600182015460029092015490919063ffffffff8082169164010000000090041684565b6000807f00000000000000000000000000000000000000000000000000000000000000006001600160a01b03166318160ddd6040518163ffffffff1660e01b815260040160206040518083038186803b158015611a7e57600080fd5b505afa158015611a92573d6000803e3d6000fd5b505050506040513d6020811015611aa857600080fd5b50519050611ad4670de0b6b3a7640000610670610eab611ace633b9aca00610fa1610e60565b8561228b565b91505090565b6000546001600160a01b03163314611b39576040805162461bcd60e51b815260206004820181905260248201527f4f776e61626c653a2063616c6c6572206973206e6f7420746865206f776e6572604482015290519081900360640190fd5b60045415611b8e576040805162461bcd60e51b815260206004820181905260248201527f426f6e6473206d75737420626520696e697469616c697a65642066726f6d2030604482015290519081900360640190fd5b6040805160c08101825288815260208101889052908101869052606081018590526080810184905263ffffffff91821660a09091018190526004979097556005959095556006939093556007919091556008556009805463ffffffff199081169094179055600f556010805490921642909116179055565b6000546001600160a01b03163314611c65576040805162461bcd60e51b815260206004820181905260248201527f4f776e61626c653a2063616c6c6572206973206e6f7420746865206f776e6572604482015290519081900360640190fd5b6001600160a01b038216611c7857600080fd5b8015611cad5760038054600160a01b60ff60a01b19909116176001600160a01b0319166001600160a01b03841617905561092a565b6003805460ff60a01b19169055600280546001600160a01b0384166001600160a01b03199091161790555050565b60045460055460065460075460085460095463ffffffff1686565b7f000000000000000000000000000000000000000000000000000000000000000081565b6000611d4562989680610670633b9aca00611d3f611d36611a22565b60045490611e61565b90612543565b60055490915081101561068d575060055490565b6000610e76620186a06106706004600201547f00000000000000000000000000000000000000000000000000000000000000006001600160a01b03166318160ddd6040518163ffffffff1660e01b815260040160206040518083038186803b158015611dc457600080fd5b505afa158015611dd8573d6000803e3d6000fd5b505050506040513d6020811015611dee57600080fd5b505190611e61565b6010546000908190611e149063ffffffff4281169181169061224916565b600954600f54919250611e399163ffffffff91821691610670919080861690611e6116565b9150600f54821115611e4b57600f5491505b5090565b60105463ffffffff1681565b600f5481565b600082611e7057506000610b7a565b82820282848281611e7d57fe5b0414611eba5760405162461bcd60e51b8152600401808060200182810382526021815260200180612c326021913960400191505060405180910390fd5b9392505050565b6000611eba83836040518060400160405280601a81526020017f536166654d6174683a206469766973696f6e206279207a65726f0000000000008152506126aa565b600082611fb3577f00000000000000000000000000000000000000000000000000000000000000006001600160a01b031663a9059cbb85846040518363ffffffff1660e01b815260040180836001600160a01b0316815260200182815260200192505050602060405180830381600087803b158015611f8157600080fd5b505af1158015611f95573d6000803e3d6000fd5b505050506040513d6020811015611fab57600080fd5b506122009050565b600354600160a01b900460ff16156120da576003546040805163095ea7b360e01b81526001600160a01b0392831660048201526024810185905290517f00000000000000000000000000000000000000000000000000000000000000009092169163095ea7b3916044808201926020929091908290030181600087803b15801561203c57600080fd5b505af1158015612050573d6000803e3d6000fd5b505050506040513d602081101561206657600080fd5b505060035460408051637acb775760e01b8152600481018590526001600160a01b03878116602483015291519190921691637acb775791604480830192600092919082900301818387803b1580156120bd57600080fd5b505af11580156120d1573d6000803e3d6000fd5b50505050612200565b6002546040805163095ea7b360e01b81526001600160a01b0392831660048201526024810185905290517f00000000000000000000000000000000000000000000000000000000000000009092169163095ea7b3916044808201926020929091908290030181600087803b15801561215157600080fd5b505af1158015612165573d6000803e3d6000fd5b505050506040513d602081101561217b57600080fd5b505060025460408051637acb775760e01b8152600481018590526001600160a01b03878116602483015291519190921691637acb77579160448083019260209291908290030181600087803b1580156121d357600080fd5b505af11580156121e7573d6000803e3d6000fd5b505050506040513d60208110156121fd57600080fd5b50505b5092915050565b6000611eba83836040518060400160405280601e81526020017f536166654d6174683a207375627472616374696f6e206f766572666c6f77000081525061274c565b6000611eba83836040518060400160405280601e81526020017f536166654d6174683a207375627472616374696f6e206f766572666c6f7700008152506127a6565b612293612bb1565b600082116122d25760405162461bcd60e51b8152600401808060200182810382526026815260200180612c0c6026913960400191505060405180910390fd5b826122ec5750604080516020810190915260008152610b7a565b71ffffffffffffffffffffffffffffffffffff831161239357600082607085901b8161231457fe5b0490506001600160e01b03811115612373576040805162461bcd60e51b815260206004820152601e60248201527f4669786564506f696e743a3a6672616374696f6e3a206f766572666c6f770000604482015290519081900360640190fd5b6040518060200160405280826001600160e01b0316815250915050610b7a565b60006123af846e01000000000000000000000000000085612805565b90506001600160e01b03811115612373576040805162461bcd60e51b815260206004820152601e60248201527f4669786564506f696e743a3a6672616374696f6e3a206f766572666c6f770000604482015290519081900360640190fd5b516612725dd1d243ab6001600160e01b039091160490565b612430610e6d611df6565b600f556010805463ffffffff19164263ffffffff16179055565b600061246662989680610670633b9aca00611d3f611d36611a22565b60055490915081101561247c575060055461068d565b6005541561068d57600060055590565b604080516001600160a01b0380861660248301528416604482015260648082018490528251808303909101815260849091019091526020810180516001600160e01b03166323b872dd60e01b1790526124e69085906128a5565b50505050565b604080516001600160a01b038416602482015260448082018490528251808303909101815260649091019091526020810180516001600160e01b031663a9059cbb60e01b17905261253e9084906128a5565b505050565b600082820183811015611eba576040805162461bcd60e51b815260206004820152601b60248201527f536166654d6174683a206164646974696f6e206f766572666c6f770000000000604482015290519081900360640190fd5b600d546000906125c09063ffffffff640100000000820481169181169061254316565b600b54909150158015906125d45750804210155b156126a757600454600a5460ff161561260e57600b546004546125f691612543565b6004819055600c5411612609576000600b555b612630565b600b5460045461261d91612207565b6004819055600c5410612630576000600b555b600d805467ffffffff0000000019166401000000004263ffffffff1602179055600454600b54600a546040805185815260208101949094528381019290925260ff1615156060830152517fb923e581a0f83128e9e1d8297aa52b18d6744310476e0b54509c054cd7a93b2a916080908290030190a1505b50565b600081836127365760405162461bcd60e51b81526004018080602001828103825283818151815260200191508051906020019080838360005b838110156126fb5781810151838201526020016126e3565b50505050905090810190601f1680156127285780820380516001836020036101000a031916815260200191505b509250505060405180910390fd5b50600083858161274257fe5b0495945050505050565b6000818484111561279e5760405162461bcd60e51b81526020600482018181528351602484015283519092839260449091019190850190808383600083156126fb5781810151838201526020016126e3565b505050900390565b60008363ffffffff168363ffffffff161115829061279e5760405162461bcd60e51b81526020600482018181528351602484015283519092839260449091019190850190808383600083156126fb5781810151838201526020016126e3565b60008060006128148686612956565b915091506000848061282257fe5b868809905082811115612836576001820391505b808303925084821061288f576040805162461bcd60e51b815260206004820152601a60248201527f46756c6c4d6174683a3a6d756c4469763a206f766572666c6f77000000000000604482015290519081900360640190fd5b61289a838387612983565b979650505050505050565b60606128fa826040518060400160405280602081526020017f5361666545524332303a206c6f772d6c6576656c2063616c6c206661696c6564815250856001600160a01b03166129f39092919063ffffffff16565b80519091501561253e5780806020019051602081101561291957600080fd5b505161253e5760405162461bcd60e51b815260040180806020018281038252602a815260200180612c9a602a913960400191505060405180910390fd5b600080806000198486099050838502925082810391508281101561297b576001820391505b509250929050565b6000818103821680838161299357fe5b04925080858161299f57fe5b0494508081600003816129ae57fe5b60028581038087028203028087028203028087028203028087028203028087028203028087028203029586029003909402930460010193909302939093010292915050565b6060612a028484600085612a0a565b949350505050565b6060612a1585612b77565b612a66576040805162461bcd60e51b815260206004820152601d60248201527f416464726573733a2063616c6c20746f206e6f6e2d636f6e7472616374000000604482015290519081900360640190fd5b60006060866001600160a01b031685876040518082805190602001908083835b60208310612aa55780518252601f199092019160209182019101612a86565b6001836020036101000a03801982511681845116808217855250505050505090500191505060006040518083038185875af1925050503d8060008114612b07576040519150601f19603f3d011682016040523d82523d6000602084013e612b0c565b606091505b50915091508115612b20579150612a029050565b805115612b305780518082602001fd5b60405162461bcd60e51b81526020600482018181528651602484015286518793919283926044019190850190808383600083156126fb5781810151838201526020016126e3565b3b151590565b60405180608001604052806000815260200160008152602001600063ffffffff168152602001600063ffffffff1681525090565b6040805160208101909152600081529056fe4f776e61626c653a206e6577206f776e657220697320746865207a65726f20616464726573734f776e61626c653a206d757374206265206e6577206f776e657220746f2070756c6c4669786564506f696e743a3a6672616374696f6e3a206469766973696f6e206279207a65726f536166654d6174683a206d756c7469706c69636174696f6e206f766572666c6f77536c697070616765206c696d69743a206d6f7265207468616e206d617820707269636556657374696e67206d757374206265206c6f6e676572207468616e20333620686f7572735361666545524332303a204552433230206f7065726174696f6e20646964206e6f742073756363656564a2646970667358221220c0df06beaae74eb5ea0438b18905e36ccccd3a68fc8d8db41f28d5cef12fd28364736f6c63430007050033",
  "devdoc": {
    "kind": "dev",
    "methods": {
      "bondPrice()": {
        "returns": {
          "price_": "uint"
        }
      },
      "bondPriceInUSD()": {
        "returns": {
          "price_": "uint"
        }
      },
      "currentDebt()": {
        "returns": {
          "_0": "uint"
        }
      },
      "debtDecay()": {
        "returns": {
          "decay_": "uint"
        }
      },
      "debtRatio()": {
        "returns": {
          "debtRatio_": "uint"
        }
      },
      "deposit(uint256,uint256,address)": {
        "params": {
          "_amount": "uint",
          "_depositor": "address",
          "_maxPrice": "uint"
        },
        "returns": {
          "_0": "uint"
        }
      },
      "initializeBondTerms(uint256,uint256,uint256,uint256,uint256,uint256,uint32)": {
        "params": {
          "_controlVariable": "uint",
          "_fee": "uint",
          "_initialDebt": "uint",
          "_maxDebt": "uint",
          "_maxPayout": "uint",
          "_minimumPrice": "uint",
          "_vestingTerm": "uint32"
        }
      },
      "maxPayout()": {
        "returns": {
          "_0": "uint"
        }
      },
      "payoutFor(uint256)": {
        "params": {
          "_value": "uint"
        },
        "returns": {
          "_0": "uint"
        }
      },
      "pendingPayoutFor(address)": {
        "params": {
          "_depositor": "address"
        },
        "returns": {
          "pendingPayout_": "uint"
        }
      },
      "percentVestedFor(address)": {
        "params": {
          "_depositor": "address"
        },
        "returns": {
          "percentVested_": "uint"
        }
      },
      "recoverLostToken(address)": {
        "returns": {
          "_0": "bool"
        }
      },
      "redeem(address,bool)": {
        "params": {
          "_recipient": "address",
          "_stake": "bool"
        },
        "returns": {
          "_0": "uint"
        }
      },
      "setAdjustment(bool,uint256,uint256,uint32)": {
        "params": {
          "_addition": "bool",
          "_buffer": "uint",
          "_increment": "uint",
          "_target": "uint"
        }
      },
      "setBondTerms(uint8,uint256)": {
        "params": {
          "_input": "uint",
          "_parameter": "PARAMETER"
        }
      },
      "setStaking(address,bool)": {
        "params": {
          "_helper": "bool",
          "_staking": "address"
        }
      },
      "standardizedDebtRatio()": {
        "returns": {
          "_0": "uint"
        }
      }
    },
    "version": 1
  },
  "userdoc": {
    "kind": "user",
    "methods": {
      "bondPrice()": {
        "notice": "calculate current bond premium"
      },
      "bondPriceInUSD()": {
        "notice": "converts bond price to DAI value"
      },
      "currentDebt()": {
        "notice": "calculate debt factoring in decay"
      },
      "debtDecay()": {
        "notice": "amount to decay total debt by"
      },
      "debtRatio()": {
        "notice": "calculate current ratio of debt to BASH supply"
      },
      "deposit(uint256,uint256,address)": {
        "notice": "deposit bond"
      },
      "initializeBondTerms(uint256,uint256,uint256,uint256,uint256,uint256,uint32)": {
        "notice": "initializes bond parameters"
      },
      "maxPayout()": {
        "notice": "determine maximum bond size"
      },
      "payoutFor(uint256)": {
        "notice": "calculate interest due for new bond"
      },
      "pendingPayoutFor(address)": {
        "notice": "calculate amount of bash available for claim by depositor"
      },
      "percentVestedFor(address)": {
        "notice": "calculate how far into vesting a depositor is"
      },
      "recoverLostToken(address)": {
        "notice": "allow anyone to send lost tokens (excluding principle or bash) to the DAO"
      },
      "redeem(address,bool)": {
        "notice": "redeem bond for user"
      },
      "setAdjustment(bool,uint256,uint256,uint32)": {
        "notice": "set control variable adjustment"
      },
      "setBondTerms(uint8,uint256)": {
        "notice": "set parameters for new bonds"
      },
      "setStaking(address,bool)": {
        "notice": "set contract for auto stake"
      },
      "standardizedDebtRatio()": {
        "notice": "debt ratio in same terms for reserve or liquidity bonds"
      }
    },
    "version": 1
  },
  "storageLayout": {
    "storage": [
      {
        "astId": 266,
        "contract": "contracts/BondDepository.sol:atbashBondDepository",
        "label": "_owner",
        "offset": 0,
        "slot": "0",
        "type": "t_address"
      },
      {
        "astId": 268,
        "contract": "contracts/BondDepository.sol:atbashBondDepository",
        "label": "_newOwner",
        "offset": 0,
        "slot": "1",
        "type": "t_address"
      },
      {
        "astId": 2546,
        "contract": "contracts/BondDepository.sol:atbashBondDepository",
        "label": "staking",
        "offset": 0,
        "slot": "2",
        "type": "t_address"
      },
      {
        "astId": 2548,
        "contract": "contracts/BondDepository.sol:atbashBondDepository",
        "label": "stakingHelper",
        "offset": 0,
        "slot": "3",
        "type": "t_address"
      },
      {
        "astId": 2550,
        "contract": "contracts/BondDepository.sol:atbashBondDepository",
        "label": "useHelper",
        "offset": 20,
        "slot": "3",
        "type": "t_bool"
      },
      {
        "astId": 2552,
        "contract": "contracts/BondDepository.sol:atbashBondDepository",
        "label": "terms",
        "offset": 0,
        "slot": "4",
        "type": "t_struct(Terms)2575_storage"
      },
      {
        "astId": 2554,
        "contract": "contracts/BondDepository.sol:atbashBondDepository",
        "label": "adjustment",
        "offset": 0,
        "slot": "10",
        "type": "t_struct(Adjust)2595_storage"
      },
      {
        "astId": 2558,
        "contract": "contracts/BondDepository.sol:atbashBondDepository",
        "label": "bondInfo",
        "offset": 0,
        "slot": "14",
        "type": "t_mapping(t_address,t_struct(Bond)2584_storage)"
      },
      {
        "astId": 2560,
        "contract": "contracts/BondDepository.sol:atbashBondDepository",
        "label": "totalDebt",
        "offset": 0,
        "slot": "15",
        "type": "t_uint256"
      },
      {
        "astId": 2562,
        "contract": "contracts/BondDepository.sol:atbashBondDepository",
        "label": "lastDecay",
        "offset": 0,
        "slot": "16",
        "type": "t_uint32"
      }
    ],
    "types": {
      "t_address": {
        "encoding": "inplace",
        "label": "address",
        "numberOfBytes": "20"
      },
      "t_bool": {
        "encoding": "inplace",
        "label": "bool",
        "numberOfBytes": "1"
      },
      "t_mapping(t_address,t_struct(Bond)2584_storage)": {
        "encoding": "mapping",
        "key": "t_address",
        "label": "mapping(address => struct atbashBondDepository.Bond)",
        "numberOfBytes": "32",
        "value": "t_struct(Bond)2584_storage"
      },
      "t_struct(Adjust)2595_storage": {
        "encoding": "inplace",
        "label": "struct atbashBondDepository.Adjust",
        "members": [
          {
            "astId": 2586,
            "contract": "contracts/BondDepository.sol:atbashBondDepository",
            "label": "add",
            "offset": 0,
            "slot": "0",
            "type": "t_bool"
          },
          {
            "astId": 2588,
            "contract": "contracts/BondDepository.sol:atbashBondDepository",
            "label": "rate",
            "offset": 0,
            "slot": "1",
            "type": "t_uint256"
          },
          {
            "astId": 2590,
            "contract": "contracts/BondDepository.sol:atbashBondDepository",
            "label": "target",
            "offset": 0,
            "slot": "2",
            "type": "t_uint256"
          },
          {
            "astId": 2592,
            "contract": "contracts/BondDepository.sol:atbashBondDepository",
            "label": "buffer",
            "offset": 0,
            "slot": "3",
            "type": "t_uint32"
          },
          {
            "astId": 2594,
            "contract": "contracts/BondDepository.sol:atbashBondDepository",
            "label": "lastTime",
            "offset": 4,
            "slot": "3",
            "type": "t_uint32"
          }
        ],
        "numberOfBytes": "128"
      },
      "t_struct(Bond)2584_storage": {
        "encoding": "inplace",
        "label": "struct atbashBondDepository.Bond",
        "members": [
          {
            "astId": 2577,
            "contract": "contracts/BondDepository.sol:atbashBondDepository",
            "label": "payout",
            "offset": 0,
            "slot": "0",
            "type": "t_uint256"
          },
          {
            "astId": 2579,
            "contract": "contracts/BondDepository.sol:atbashBondDepository",
            "label": "pricePaid",
            "offset": 0,
            "slot": "1",
            "type": "t_uint256"
          },
          {
            "astId": 2581,
            "contract": "contracts/BondDepository.sol:atbashBondDepository",
            "label": "lastTime",
            "offset": 0,
            "slot": "2",
            "type": "t_uint32"
          },
          {
            "astId": 2583,
            "contract": "contracts/BondDepository.sol:atbashBondDepository",
            "label": "vesting",
            "offset": 4,
            "slot": "2",
            "type": "t_uint32"
          }
        ],
        "numberOfBytes": "96"
      },
      "t_struct(Terms)2575_storage": {
        "encoding": "inplace",
        "label": "struct atbashBondDepository.Terms",
        "members": [
          {
            "astId": 2564,
            "contract": "contracts/BondDepository.sol:atbashBondDepository",
            "label": "controlVariable",
            "offset": 0,
            "slot": "0",
            "type": "t_uint256"
          },
          {
            "astId": 2566,
            "contract": "contracts/BondDepository.sol:atbashBondDepository",
            "label": "minimumPrice",
            "offset": 0,
            "slot": "1",
            "type": "t_uint256"
          },
          {
            "astId": 2568,
            "contract": "contracts/BondDepository.sol:atbashBondDepository",
            "label": "maxPayout",
            "offset": 0,
            "slot": "2",
            "type": "t_uint256"
          },
          {
            "astId": 2570,
            "contract": "contracts/BondDepository.sol:atbashBondDepository",
            "label": "fee",
            "offset": 0,
            "slot": "3",
            "type": "t_uint256"
          },
          {
            "astId": 2572,
            "contract": "contracts/BondDepository.sol:atbashBondDepository",
            "label": "maxDebt",
            "offset": 0,
            "slot": "4",
            "type": "t_uint256"
          },
          {
            "astId": 2574,
            "contract": "contracts/BondDepository.sol:atbashBondDepository",
            "label": "vestingTerm",
            "offset": 0,
            "slot": "5",
            "type": "t_uint32"
          }
        ],
        "numberOfBytes": "192"
      },
      "t_uint256": {
        "encoding": "inplace",
        "label": "uint256",
        "numberOfBytes": "32"
      },
      "t_uint32": {
        "encoding": "inplace",
        "label": "uint32",
        "numberOfBytes": "4"
      }
    }
  }
}