{
  "address": "0xfd0610C109cb4e0079f801A190FD2dfC6A84aC50",
  "abi": [
    {
      "inputs": [
        {
          "internalType": "address",
          "name": "_Bash",
          "type": "address"
        },
        {
          "internalType": "address",
          "name": "_sBash",
          "type": "address"
        },
        {
          "internalType": "uint32",
          "name": "_epochLength",
          "type": "uint32"
        },
        {
          "internalType": "uint256",
          "name": "_firstEpochNumber",
          "type": "uint256"
        },
        {
          "internalType": "uint32",
          "name": "_firstEpochTime",
          "type": "uint32"
        }
      ],
      "stateMutability": "nonpayable",
      "type": "constructor"
    },
    {
      "anonymous": false,
      "inputs": [
        {
          "indexed": true,
          "internalType": "address",
          "name": "previousOwner",
          "type": "address"
        },
        {
          "indexed": true,
          "internalType": "address",
          "name": "newOwner",
          "type": "address"
        }
      ],
      "name": "OwnershipPulled",
      "type": "event"
    },
    {
      "anonymous": false,
      "inputs": [
        {
          "indexed": true,
          "internalType": "address",
          "name": "previousOwner",
          "type": "address"
        },
        {
          "indexed": true,
          "internalType": "address",
          "name": "newOwner",
          "type": "address"
        }
      ],
      "name": "OwnershipPushed",
      "type": "event"
    },
    {
      "inputs": [],
      "name": "Bash",
      "outputs": [
        {
          "internalType": "address",
          "name": "",
          "type": "address"
        }
      ],
      "stateMutability": "view",
      "type": "function"
    },
    {
      "inputs": [
        {
          "internalType": "address",
          "name": "_recipient",
          "type": "address"
        }
      ],
      "name": "claim",
      "outputs": [],
      "stateMutability": "nonpayable",
      "type": "function"
    },
    {
      "inputs": [],
      "name": "contractBalance",
      "outputs": [
        {
          "internalType": "uint256",
          "name": "",
          "type": "uint256"
        }
      ],
      "stateMutability": "view",
      "type": "function"
    },
    {
      "inputs": [],
      "name": "distributor",
      "outputs": [
        {
          "internalType": "address",
          "name": "",
          "type": "address"
        }
      ],
      "stateMutability": "view",
      "type": "function"
    },
    {
      "inputs": [],
      "name": "epoch",
      "outputs": [
        {
          "internalType": "uint256",
          "name": "number",
          "type": "uint256"
        },
        {
          "internalType": "uint256",
          "name": "distribute",
          "type": "uint256"
        },
        {
          "internalType": "uint32",
          "name": "length",
          "type": "uint32"
        },
        {
          "internalType": "uint32",
          "name": "endTime",
          "type": "uint32"
        }
      ],
      "stateMutability": "view",
      "type": "function"
    },
    {
      "inputs": [],
      "name": "forfeit",
      "outputs": [],
      "stateMutability": "nonpayable",
      "type": "function"
    },
    {
      "inputs": [
        {
          "internalType": "uint256",
          "name": "_amount",
          "type": "uint256"
        }
      ],
      "name": "giveLockBonus",
      "outputs": [],
      "stateMutability": "nonpayable",
      "type": "function"
    },
    {
      "inputs": [],
      "name": "index",
      "outputs": [
        {
          "internalType": "uint256",
          "name": "",
          "type": "uint256"
        }
      ],
      "stateMutability": "view",
      "type": "function"
    },
    {
      "inputs": [],
      "name": "locker",
      "outputs": [
        {
          "internalType": "address",
          "name": "",
          "type": "address"
        }
      ],
      "stateMutability": "view",
      "type": "function"
    },
    {
      "inputs": [],
      "name": "manager",
      "outputs": [
        {
          "internalType": "address",
          "name": "",
          "type": "address"
        }
      ],
      "stateMutability": "view",
      "type": "function"
    },
    {
      "inputs": [],
      "name": "pullManagement",
      "outputs": [],
      "stateMutability": "nonpayable",
      "type": "function"
    },
    {
      "inputs": [
        {
          "internalType": "address",
          "name": "newOwner_",
          "type": "address"
        }
      ],
      "name": "pushManagement",
      "outputs": [],
      "stateMutability": "nonpayable",
      "type": "function"
    },
    {
      "inputs": [],
      "name": "rebase",
      "outputs": [],
      "stateMutability": "nonpayable",
      "type": "function"
    },
    {
      "inputs": [],
      "name": "renounceManagement",
      "outputs": [],
      "stateMutability": "nonpayable",
      "type": "function"
    },
    {
      "inputs": [
        {
          "internalType": "uint256",
          "name": "_amount",
          "type": "uint256"
        }
      ],
      "name": "returnLockBonus",
      "outputs": [],
      "stateMutability": "nonpayable",
      "type": "function"
    },
    {
      "inputs": [],
      "name": "sBash",
      "outputs": [
        {
          "internalType": "address",
          "name": "",
          "type": "address"
        }
      ],
      "stateMutability": "view",
      "type": "function"
    },
    {
      "inputs": [
        {
          "internalType": "enum ATBASHStaking.CONTRACTS",
          "name": "_contract",
          "type": "uint8"
        },
        {
          "internalType": "address",
          "name": "_address",
          "type": "address"
        }
      ],
      "name": "setContract",
      "outputs": [],
      "stateMutability": "nonpayable",
      "type": "function"
    },
    {
      "inputs": [
        {
          "internalType": "uint256",
          "name": "_warmupPeriod",
          "type": "uint256"
        }
      ],
      "name": "setWarmup",
      "outputs": [],
      "stateMutability": "nonpayable",
      "type": "function"
    },
    {
      "inputs": [
        {
          "internalType": "uint256",
          "name": "_amount",
          "type": "uint256"
        },
        {
          "internalType": "address",
          "name": "_recipient",
          "type": "address"
        }
      ],
      "name": "stake",
      "outputs": [
        {
          "internalType": "bool",
          "name": "",
          "type": "bool"
        }
      ],
      "stateMutability": "nonpayable",
      "type": "function"
    },
    {
      "inputs": [],
      "name": "toggleDepositLock",
      "outputs": [],
      "stateMutability": "nonpayable",
      "type": "function"
    },
    {
      "inputs": [],
      "name": "totalBonus",
      "outputs": [
        {
          "internalType": "uint256",
          "name": "",
          "type": "uint256"
        }
      ],
      "stateMutability": "view",
      "type": "function"
    },
    {
      "inputs": [
        {
          "internalType": "uint256",
          "name": "_amount",
          "type": "uint256"
        },
        {
          "internalType": "bool",
          "name": "_trigger",
          "type": "bool"
        }
      ],
      "name": "unstake",
      "outputs": [],
      "stateMutability": "nonpayable",
      "type": "function"
    },
    {
      "inputs": [],
      "name": "warmupContract",
      "outputs": [
        {
          "internalType": "address",
          "name": "",
          "type": "address"
        }
      ],
      "stateMutability": "view",
      "type": "function"
    },
    {
      "inputs": [
        {
          "internalType": "address",
          "name": "",
          "type": "address"
        }
      ],
      "name": "warmupInfo",
      "outputs": [
        {
          "internalType": "uint256",
          "name": "deposit",
          "type": "uint256"
        },
        {
          "internalType": "uint256",
          "name": "gons",
          "type": "uint256"
        },
        {
          "internalType": "uint256",
          "name": "expiry",
          "type": "uint256"
        },
        {
          "internalType": "bool",
          "name": "lock",
          "type": "bool"
        }
      ],
      "stateMutability": "view",
      "type": "function"
    },
    {
      "inputs": [],
      "name": "warmupPeriod",
      "outputs": [
        {
          "internalType": "uint256",
          "name": "",
          "type": "uint256"
        }
      ],
      "stateMutability": "view",
      "type": "function"
    }
  ],
  "transactionHash": "0x49ac237c940aa5137d7dae3e2a881d4f483b0e61d889dfd6df0a8b56bdf6ef58",
  "args": [
    "0x5646077E2779a4e8607A99257bD76F627A262d86",
    "0x605d3e1De7896C29A75B4E24E42CA6D1aD703809",
    28800,
    "0",
    1657048731
  ],
  "numDeployments": 1,
  "solcInputHash": "1ed1fada204c36c360193582a3c5764a",
  "bytecode": "0x60c060405234801561001057600080fd5b50604051611b76380380611b76833981810160405260a081101561003357600080fd5b50805160208201516040808401516060850151608090950151600080546001600160a01b031916331780825593519596949592949391926001600160a01b0392909216917fea8258f2d9ddb679928cf34b78cf645b7feda9acc828e4dd82d014eaae270eba908290a36001600160a01b0385166100af57600080fd5b6001600160601b0319606086901b166080526001600160a01b0384166100d457600080fd5b6001600160601b0319606094851b1660a0526040805160808101825283815260006020820181905263ffffffff95861692820183905292909416939094018390526002919091556003556004805464010000000090920263ffffffff60201b1963ffffffff19909316909317919091169190911790555060805160601c60a05160601c6119bc6101ba6000398061044152806105ee52806106e75280610a825280610b8e5280610e565280610ed4528061106452806111a5528061126152806113c1525080610771528061098c5280610d575280610e8b528061136052506119bc6000f3fe608060405234801561001057600080fd5b50600436106101a35760003560e01c80638f077b83116100ee578063c9f464ff11610097578063ed4acaa811610071578063ed4acaa8146103d4578063f13e7b01146103dc578063f3d86e4a146103e4578063f62ae76a146103ec576101a3565b8063c9f464ff146103a7578063d7b96d4e146103c4578063deac361a146103cc576101a3565b8063a8dd07dc116100c8578063a8dd07dc1461038f578063af14052c14610397578063bfe109281461039f576101a3565b80638f077b831461032e578063900cf0cf146103365780639ebea88c1461036a576101a3565b8063481c6a75116101505780637acb77571161012a5780637acb7757146102b7578063865e6fd3146102f75780638b7afe2e14610326576101a3565b8063481c6a75146102595780635a96ac0a146102615780636746f4c214610269576101a3565b80632986c0e5116101815780632986c0e5146101f55780633c4e6da71461020f57806346f68ee914610233576101a3565b806303c23670146101a8578063089208d8146101c75780631e83409a146101cf575b600080fd5b6101c5600480360360208110156101be57600080fd5b5035610409565b005b6101c561046d565b6101c5600480360360208110156101e557600080fd5b50356001600160a01b0316610516565b6101fd6106e3565b60408051918252519081900360200190f35b61021761076f565b604080516001600160a01b039092168252519081900360200190f35b6101c56004803603602081101561024957600080fd5b50356001600160a01b0316610793565b610217610892565b6101c56108a1565b61028f6004803603602081101561027f57600080fd5b50356001600160a01b031661094b565b6040805194855260208501939093528383019190915215156060830152519081900360800190f35b6102e3600480360360408110156102cd57600080fd5b50803590602001356001600160a01b0316610975565b604080519115158252519081900360200190f35b6101c56004803603604081101561030d57600080fd5b50803560ff1690602001356001600160a01b0316610bc1565b6101fd610d4d565b6101c5610df9565b61033e610e1d565b60408051948552602085019390935263ffffffff91821684840152166060830152519081900360800190f35b6101c56004803603604081101561038057600080fd5b50803590602001351515610e3b565b6101fd610eb2565b6101c5610eb8565b61021761110c565b6101c5600480360360208110156103bd57600080fd5b503561111b565b61021761117f565b6101fd61118e565b610217611194565b6102176111a3565b6101c56111c7565b6101c56004803603602081101561040257600080fd5b5035611389565b6006546001600160a01b0316331461042057600080fd5b60075461042d90826113eb565b60075560065461046a906001600160a01b037f0000000000000000000000000000000000000000000000000000000000000000811691168361144c565b50565b6000546001600160a01b031633146104cc576040805162461bcd60e51b815260206004820181905260248201527f4f776e61626c653a2063616c6c6572206973206e6f7420746865206f776e6572604482015290519081900360640190fd5b600080546040516001600160a01b03909116907fea8258f2d9ddb679928cf34b78cf645b7feda9acc828e4dd82d014eaae270eba908390a3600080546001600160a01b0319169055565b61051e6118a4565b506001600160a01b0381166000908152600a602090815260409182902082516080810184528154815260018201549281019290925260028082015493830184905260039091015460ff1615156060830152549091118015906105835750604081015115155b156106df576001600160a01b038083166000908152600a602090815260408083208381556001810184905560028101939093556003909201805460ff19169055600854848201518351637965d56d60e01b8152600481019190915292519084169363c3a2a6659387937f000000000000000000000000000000000000000000000000000000000000000090921692637965d56d92602480840193919291829003018186803b15801561063457600080fd5b505afa158015610648573d6000803e3d6000fd5b505050506040513d602081101561065e57600080fd5b5051604080517fffffffff0000000000000000000000000000000000000000000000000000000060e086901b1681526001600160a01b039093166004840152602483019190915251604480830192600092919082900301818387803b1580156106c657600080fd5b505af11580156106da573d6000803e3d6000fd5b505050505b5050565b60007f00000000000000000000000000000000000000000000000000000000000000006001600160a01b0316632986c0e56040518163ffffffff1660e01b815260040160206040518083038186803b15801561073e57600080fd5b505afa158015610752573d6000803e3d6000fd5b505050506040513d602081101561076857600080fd5b5051905090565b7f000000000000000000000000000000000000000000000000000000000000000081565b6000546001600160a01b031633146107f2576040805162461bcd60e51b815260206004820181905260248201527f4f776e61626c653a2063616c6c6572206973206e6f7420746865206f776e6572604482015290519081900360640190fd5b6001600160a01b0381166108375760405162461bcd60e51b81526004018080602001828103825260268152602001806118f26026913960400191505060405180910390fd5b600080546040516001600160a01b03808516939216917fea8258f2d9ddb679928cf34b78cf645b7feda9acc828e4dd82d014eaae270eba91a3600180546001600160a01b0319166001600160a01b0392909216919091179055565b6000546001600160a01b031690565b6001546001600160a01b031633146108ea5760405162461bcd60e51b815260040180806020018281038252602281526020018061193b6022913960400191505060405180910390fd5b600154600080546040516001600160a01b0393841693909116917faa151555690c956fc3ea32f106bb9f119b5237a061eaa8557cff3e51e3792c8d91a3600154600080546001600160a01b0319166001600160a01b03909216919091179055565b600a6020526000908152604090208054600182015460028301546003909301549192909160ff1684565b600061097f610eb8565b6109b46001600160a01b037f0000000000000000000000000000000000000000000000000000000000000000163330866114b8565b6109bc6118a4565b506001600160a01b0382166000908152600a602090815260409182902082516080810184528154815260018201549281019290925260028101549282019290925260039091015460ff161580156060830152610a5f576040805162461bcd60e51b815260206004820152601f60248201527f4465706f7369747320666f72206163636f756e7420617265206c6f636b656400604482015290519081900360640190fd5b604080516080810190915281518190610a7890876113eb565b8152602001610b1b7f00000000000000000000000000000000000000000000000000000000000000006001600160a01b0316631bd39674886040518263ffffffff1660e01b81526004018082815260200191505060206040518083038186803b158015610ae457600080fd5b505afa158015610af8573d6000803e3d6000fd5b505050506040513d6020811015610b0e57600080fd5b50516020850151906113eb565b8152600954600254602090920191610b32916113eb565b8152600060209182018190526001600160a01b038681168252600a8352604091829020845181559284015160018401559083015160028301556060909201516003909101805460ff1916911515919091179055600854610bb7917f0000000000000000000000000000000000000000000000000000000000000000811691168661144c565b5060019392505050565b6000546001600160a01b03163314610c20576040805162461bcd60e51b815260206004820181905260248201527f4f776e61626c653a2063616c6c6572206973206e6f7420746865206f776e6572604482015290519081900360640190fd5b6000826002811115610c2e57fe5b1415610c5457600580546001600160a01b0319166001600160a01b0383161790556106df565b6001826002811115610c6257fe5b1415610cd0576008546001600160a01b031615610cb05760405162461bcd60e51b81526004018080602001828103825260238152602001806119186023913960400191505060405180910390fd5b600880546001600160a01b0319166001600160a01b0383161790556106df565b6002826002811115610cde57fe5b14156106df576006546001600160a01b031615610d2c5760405162461bcd60e51b81526004018080602001828103825260238152602001806118cf6023913960400191505060405180910390fd5b600680546001600160a01b0383166001600160a01b03199091161790555050565b6000610df46007547f00000000000000000000000000000000000000000000000000000000000000006001600160a01b03166370a08231306040518263ffffffff1660e01b815260040180826001600160a01b0316815260200191505060206040518083038186803b158015610dc257600080fd5b505afa158015610dd6573d6000803e3d6000fd5b505050506040513d6020811015610dec57600080fd5b5051906113eb565b905090565b336000908152600a60205260409020600301805460ff19811660ff90911615179055565b60025460035460045463ffffffff8082169164010000000090041684565b8015610e4957610e49610eb8565b610e7e6001600160a01b037f0000000000000000000000000000000000000000000000000000000000000000163330856114b8565b6106df6001600160a01b037f000000000000000000000000000000000000000000000000000000000000000016338461144c565b60075481565b60045463ffffffff428116640100000000909204161161110a577f00000000000000000000000000000000000000000000000000000000000000006001600160a01b031663058ecdb46002600101546002600001546040518363ffffffff1660e01b81526004018083815260200182815260200192505050602060405180830381600087803b158015610f4a57600080fd5b505af1158015610f5e573d6000803e3d6000fd5b505050506040513d6020811015610f7457600080fd5b5050600454610f969063ffffffff640100000000820481169181169061152d16565b6004805463ffffffff929092166401000000000267ffffffff00000000199092169190911790556002805460010190556005546001600160a01b03161561105457600560009054906101000a90046001600160a01b03166001600160a01b031663e4fc6b6d6040518163ffffffff1660e01b8152600401602060405180830381600087803b15801561102757600080fd5b505af115801561103b573d6000803e3d6000fd5b505050506040513d602081101561105157600080fd5b50505b600061105e610d4d565b905060007f00000000000000000000000000000000000000000000000000000000000000006001600160a01b0316639358928b6040518163ffffffff1660e01b815260040160206040518083038186803b1580156110bb57600080fd5b505afa1580156110cf573d6000803e3d6000fd5b505050506040513d60208110156110e557600080fd5b505190508082116110fa5760006003556106df565b6111048282611590565b60035550505b565b6005546001600160a01b031681565b6000546001600160a01b0316331461117a576040805162461bcd60e51b815260206004820181905260248201527f4f776e61626c653a2063616c6c6572206973206e6f7420746865206f776e6572604482015290519081900360640190fd5b600955565b6006546001600160a01b031681565b60095481565b6008546001600160a01b031681565b7f000000000000000000000000000000000000000000000000000000000000000081565b6111cf6118a4565b50336000818152600a602081815260408084208151608081018352815481526001820180548286019081526002840180548487015260038501805460ff8116151560608701529a8a5297875293889055908790559590915560ff1990951690925560085492518251637965d56d60e01b8152600481019190915291516001600160a01b039384169363c3a2a6659330937f000000000000000000000000000000000000000000000000000000000000000090921692637965d56d92602480840193919291829003018186803b1580156112a757600080fd5b505afa1580156112bb573d6000803e3d6000fd5b505050506040513d60208110156112d157600080fd5b5051604080517fffffffff0000000000000000000000000000000000000000000000000000000060e086901b1681526001600160a01b039093166004840152602483019190915251604480830192600092919082900301818387803b15801561133957600080fd5b505af115801561134d573d6000803e3d6000fd5b5050825161046a92506001600160a01b037f0000000000000000000000000000000000000000000000000000000000000000169150339061144c565b6006546001600160a01b031633146113a057600080fd5b6007546113ad9082611590565b60075560065461046a906001600160a01b037f00000000000000000000000000000000000000000000000000000000000000008116911630846114b8565b600082820183811015611445576040805162461bcd60e51b815260206004820152601b60248201527f536166654d6174683a206164646974696f6e206f766572666c6f770000000000604482015290519081900360640190fd5b9392505050565b604080516001600160a01b038416602482015260448082018490528251808303909101815260649091019091526020810180517bffffffffffffffffffffffffffffffffffffffffffffffffffffffff1663a9059cbb60e01b1790526114b39084906115d2565b505050565b604080516001600160a01b0380861660248301528416604482015260648082018490528251808303909101815260849091019091526020810180517bffffffffffffffffffffffffffffffffffffffffffffffffffffffff166323b872dd60e01b1790526115279085906115d2565b50505050565b600082820163ffffffff8085169082161015611445576040805162461bcd60e51b815260206004820152601b60248201527f536166654d6174683a206164646974696f6e206f766572666c6f770000000000604482015290519081900360640190fd5b600061144583836040518060400160405280601e81526020017f536166654d6174683a207375627472616374696f6e206f766572666c6f770000815250611683565b6060611627826040518060400160405280602081526020017f5361666545524332303a206c6f772d6c6576656c2063616c6c206661696c6564815250856001600160a01b031661171a9092919063ffffffff16565b8051909150156114b35780806020019051602081101561164657600080fd5b50516114b35760405162461bcd60e51b815260040180806020018281038252602a81526020018061195d602a913960400191505060405180910390fd5b600081848411156117125760405162461bcd60e51b81526004018080602001828103825283818151815260200191508051906020019080838360005b838110156116d75781810151838201526020016116bf565b50505050905090810190601f1680156117045780820380516001836020036101000a031916815260200191505b509250505060405180910390fd5b505050900390565b60606117298484600085611731565b949350505050565b606061173c8561189e565b61178d576040805162461bcd60e51b815260206004820152601d60248201527f416464726573733a2063616c6c20746f206e6f6e2d636f6e7472616374000000604482015290519081900360640190fd5b60006060866001600160a01b031685876040518082805190602001908083835b602083106117cc5780518252601f1990920191602091820191016117ad565b6001836020036101000a03801982511681845116808217855250505050505090500191505060006040518083038185875af1925050503d806000811461182e576040519150601f19603f3d011682016040523d82523d6000602084013e611833565b606091505b509150915081156118475791506117299050565b8051156118575780518082602001fd5b60405162461bcd60e51b81526020600482018181528651602484015286518793919283926044019190850190808383600083156116d75781810151838201526020016116bf565b3b151590565b6040518060800160405280600081526020016000815260200160008152602001600015158152509056fe4c6f636b65722063616e6e6f7420626520736574206d6f7265207468616e206f6e63654f776e61626c653a206e6577206f776e657220697320746865207a65726f20616464726573735761726d75702063616e6e6f7420626520736574206d6f7265207468616e206f6e63654f776e61626c653a206d757374206265206e6577206f776e657220746f2070756c6c5361666545524332303a204552433230206f7065726174696f6e20646964206e6f742073756363656564a26469706673582212203cb4b8cf7f1353aa66ff686eaa595ec5915a02cbdbd351f58e5823da55999d6164736f6c63430007050033",
  "devdoc": {
    "kind": "dev",
    "methods": {
      "claim(address)": {
        "params": {
          "_recipient": "address"
        }
      },
      "contractBalance()": {
        "returns": {
          "_0": "uint"
        }
      },
      "giveLockBonus(uint256)": {
        "params": {
          "_amount": "uint"
        }
      },
      "index()": {
        "returns": {
          "_0": "uint"
        }
      },
      "returnLockBonus(uint256)": {
        "params": {
          "_amount": "uint"
        }
      },
      "setContract(uint8,address)": {
        "params": {
          "_contract": "address"
        }
      },
      "setWarmup(uint256)": {
        "params": {
          "_warmupPeriod": "uint"
        }
      },
      "stake(uint256,address)": {
        "params": {
          "_amount": "uint"
        },
        "returns": {
          "_0": "bool"
        }
      },
      "unstake(uint256,bool)": {
        "params": {
          "_amount": "uint",
          "_trigger": "bool"
        }
      }
    },
    "version": 1
  },
  "userdoc": {
    "kind": "user",
    "methods": {
      "claim(address)": {
        "notice": "retrieve sbash from warmup"
      },
      "contractBalance()": {
        "notice": "returns contract bash holdings, including bonuses provided"
      },
      "forfeit()": {
        "notice": "forfeit sbash in warmup and retrieve bash"
      },
      "giveLockBonus(uint256)": {
        "notice": "provide bonus to locked staking contract"
      },
      "index()": {
        "notice": "returns the sbash index, which tracks rebase growth"
      },
      "rebase()": {
        "notice": "trigger rebase if epoch over"
      },
      "returnLockBonus(uint256)": {
        "notice": "reclaim bonus from locked staking contract"
      },
      "setContract(uint8,address)": {
        "notice": "sets the contract address for LP staking"
      },
      "setWarmup(uint256)": {
        "notice": "set warmup period in epoch's numbers for new stakers"
      },
      "stake(uint256,address)": {
        "notice": "stake bash to enter warmup"
      },
      "toggleDepositLock()": {
        "notice": "prevent new deposits to address (protection from malicious activity)"
      },
      "unstake(uint256,bool)": {
        "notice": "redeem sbash for bash"
      }
    },
    "version": 1
  },
  "storageLayout": {
    "storage": [
      {
        "astId": 20012,
        "contract": "contracts/Staking.sol:ATBASHStaking",
        "label": "_owner",
        "offset": 0,
        "slot": "0",
        "type": "t_address"
      },
      {
        "astId": 20014,
        "contract": "contracts/Staking.sol:ATBASHStaking",
        "label": "_newOwner",
        "offset": 0,
        "slot": "1",
        "type": "t_address"
      },
      {
        "astId": 12117,
        "contract": "contracts/Staking.sol:ATBASHStaking",
        "label": "epoch",
        "offset": 0,
        "slot": "2",
        "type": "t_struct(Epoch)12115_storage"
      },
      {
        "astId": 12119,
        "contract": "contracts/Staking.sol:ATBASHStaking",
        "label": "distributor",
        "offset": 0,
        "slot": "5",
        "type": "t_address"
      },
      {
        "astId": 12121,
        "contract": "contracts/Staking.sol:ATBASHStaking",
        "label": "locker",
        "offset": 0,
        "slot": "6",
        "type": "t_address"
      },
      {
        "astId": 12123,
        "contract": "contracts/Staking.sol:ATBASHStaking",
        "label": "totalBonus",
        "offset": 0,
        "slot": "7",
        "type": "t_uint256"
      },
      {
        "astId": 12125,
        "contract": "contracts/Staking.sol:ATBASHStaking",
        "label": "warmupContract",
        "offset": 0,
        "slot": "8",
        "type": "t_address"
      },
      {
        "astId": 12127,
        "contract": "contracts/Staking.sol:ATBASHStaking",
        "label": "warmupPeriod",
        "offset": 0,
        "slot": "9",
        "type": "t_uint256"
      },
      {
        "astId": 12189,
        "contract": "contracts/Staking.sol:ATBASHStaking",
        "label": "warmupInfo",
        "offset": 0,
        "slot": "10",
        "type": "t_mapping(t_address,t_struct(Claim)12185_storage)"
      }
    ],
    "types": {
      "t_address": {
        "encoding": "inplace",
        "label": "address",
        "numberOfBytes": "20"
      },
      "t_bool": {
        "encoding": "inplace",
        "label": "bool",
        "numberOfBytes": "1"
      },
      "t_mapping(t_address,t_struct(Claim)12185_storage)": {
        "encoding": "mapping",
        "key": "t_address",
        "label": "mapping(address => struct ATBASHStaking.Claim)",
        "numberOfBytes": "32",
        "value": "t_struct(Claim)12185_storage"
      },
      "t_struct(Claim)12185_storage": {
        "encoding": "inplace",
        "label": "struct ATBASHStaking.Claim",
        "members": [
          {
            "astId": 12178,
            "contract": "contracts/Staking.sol:ATBASHStaking",
            "label": "deposit",
            "offset": 0,
            "slot": "0",
            "type": "t_uint256"
          },
          {
            "astId": 12180,
            "contract": "contracts/Staking.sol:ATBASHStaking",
            "label": "gons",
            "offset": 0,
            "slot": "1",
            "type": "t_uint256"
          },
          {
            "astId": 12182,
            "contract": "contracts/Staking.sol:ATBASHStaking",
            "label": "expiry",
            "offset": 0,
            "slot": "2",
            "type": "t_uint256"
          },
          {
            "astId": 12184,
            "contract": "contracts/Staking.sol:ATBASHStaking",
            "label": "lock",
            "offset": 0,
            "slot": "3",
            "type": "t_bool"
          }
        ],
        "numberOfBytes": "128"
      },
      "t_struct(Epoch)12115_storage": {
        "encoding": "inplace",
        "label": "struct ATBASHStaking.Epoch",
        "members": [
          {
            "astId": 12108,
            "contract": "contracts/Staking.sol:ATBASHStaking",
            "label": "number",
            "offset": 0,
            "slot": "0",
            "type": "t_uint256"
          },
          {
            "astId": 12110,
            "contract": "contracts/Staking.sol:ATBASHStaking",
            "label": "distribute",
            "offset": 0,
            "slot": "1",
            "type": "t_uint256"
          },
          {
            "astId": 12112,
            "contract": "contracts/Staking.sol:ATBASHStaking",
            "label": "length",
            "offset": 0,
            "slot": "2",
            "type": "t_uint32"
          },
          {
            "astId": 12114,
            "contract": "contracts/Staking.sol:ATBASHStaking",
            "label": "endTime",
            "offset": 4,
            "slot": "2",
            "type": "t_uint32"
          }
        ],
        "numberOfBytes": "96"
      },
      "t_uint256": {
        "encoding": "inplace",
        "label": "uint256",
        "numberOfBytes": "32"
      },
      "t_uint32": {
        "encoding": "inplace",
        "label": "uint32",
        "numberOfBytes": "4"
      }
    }
  }
}