{
  "address": "0x57DA2292620e69B07cfbFb47E390735Fecc94e40",
  "abi": [
    {
      "inputs": [
        {
          "internalType": "address",
          "name": "_staking",
          "type": "address"
        },
        {
          "internalType": "address",
          "name": "_Bash",
          "type": "address"
        }
      ],
      "stateMutability": "nonpayable",
      "type": "constructor"
    },
    {
      "inputs": [],
      "name": "Bash",
      "outputs": [
        {
          "internalType": "address",
          "name": "",
          "type": "address"
        }
      ],
      "stateMutability": "view",
      "type": "function"
    },
    {
      "inputs": [
        {
          "internalType": "uint256",
          "name": "_amount",
          "type": "uint256"
        },
        {
          "internalType": "address",
          "name": "recipient",
          "type": "address"
        }
      ],
      "name": "stake",
      "outputs": [],
      "stateMutability": "nonpayable",
      "type": "function"
    },
    {
      "inputs": [],
      "name": "staking",
      "outputs": [
        {
          "internalType": "address",
          "name": "",
          "type": "address"
        }
      ],
      "stateMutability": "view",
      "type": "function"
    }
  ],
  "transactionHash": "0x64d0393c9120dc4e1ffd28d35b2e98c70799bb87ab7d348f223f2ef19410b557",
  "args": [
    "0xfd0610C109cb4e0079f801A190FD2dfC6A84aC50",
    "0x5646077E2779a4e8607A99257bD76F627A262d86"
  ],
  "numDeployments": 1,
  "solcInputHash": "85f01f6409d14a5c24fb536dec2bc6b9",
  "bytecode": "0x60c060405234801561001057600080fd5b506040516104713803806104718339818101604052604081101561003357600080fd5b5080516020909101516001600160a01b03821661004f57600080fd5b6001600160601b0319606083901b166080526001600160a01b03811661007457600080fd5b606081811b6001600160601b03191660a052608051901c91506001600160a01b03166103a76100ca6000398060a2528061011552806101d252508060c652806101a15280610272528061030b52506103a76000f3fe608060405234801561001057600080fd5b50600436106100415760003560e01c80633c4e6da7146100465780634cf088d91461006a5780637acb775714610072575b600080fd5b61004e6100a0565b604080516001600160a01b039092168252519081900360200190f35b61004e6100c4565b61009e6004803603604081101561008857600080fd5b50803590602001356001600160a01b03166100e8565b005b7f000000000000000000000000000000000000000000000000000000000000000081565b7f000000000000000000000000000000000000000000000000000000000000000081565b604080516323b872dd60e01b81523360048201523060248201526044810184905290516001600160a01b037f000000000000000000000000000000000000000000000000000000000000000016916323b872dd9160648083019260209291908290030181600087803b15801561015d57600080fd5b505af1158015610171573d6000803e3d6000fd5b505050506040513d602081101561018757600080fd5b50506040805163095ea7b360e01b81526001600160a01b037f0000000000000000000000000000000000000000000000000000000000000000811660048301526024820185905291517f00000000000000000000000000000000000000000000000000000000000000009092169163095ea7b3916044808201926020929091908290030181600087803b15801561021d57600080fd5b505af1158015610231573d6000803e3d6000fd5b505050506040513d602081101561024757600080fd5b505060408051637acb775760e01b8152600481018490526001600160a01b03838116602483015291517f000000000000000000000000000000000000000000000000000000000000000090921691637acb7757916044808201926020929091908290030181600087803b1580156102bd57600080fd5b505af11580156102d1573d6000803e3d6000fd5b505050506040513d60208110156102e757600080fd5b505060408051630f41a04d60e11b81526001600160a01b03838116600483015291517f000000000000000000000000000000000000000000000000000000000000000090921691631e83409a9160248082019260009290919082900301818387803b15801561035557600080fd5b505af1158015610369573d6000803e3d6000fd5b50505050505056fea2646970667358221220cfb26125ca8873bb15fbe29d76cd39660c22d7105d4696a69ae355dadde763ef64736f6c63430007050033",
  "devdoc": {
    "kind": "dev",
    "methods": {},
    "version": 1
  },
  "userdoc": {
    "kind": "user",
    "methods": {},
    "version": 1
  },
  "storageLayout": {
    "storage": [],
    "types": null
  }
}